{
  "_format": "hh-sol-artifact-1",
  "contractName": "EduFundNFT",
  "sourceName": "contracts/EduFundNFT.sol",
  "abi": [
    {
      "inputs": [],
      "stateMutability": "nonpayable",
      "type": "constructor"
    },
    {
      "anonymous": false,
      "inputs": [
        {
          "indexed": true,
          "internalType": "address",
          "name": "owner",
          "type": "address"
        },
        {
          "indexed": true,
          "internalType": "address",
          "name": "approved",
          "type": "address"
        },
        {
          "indexed": true,
          "internalType": "uint256",
          "name": "tokenId",
          "type": "uint256"
        }
      ],
      "name": "Approval",
      "type": "event"
    },
    {
      "anonymous": false,
      "inputs": [
        {
          "indexed": true,
          "internalType": "address",
          "name": "owner",
          "type": "address"
        },
        {
          "indexed": true,
          "internalType": "address",
          "name": "operator",
          "type": "address"
        },
        {
          "indexed": false,
          "internalType": "bool",
          "name": "approved",
          "type": "bool"
        }
      ],
      "name": "ApprovalForAll",
      "type": "event"
    },
    {
      "anonymous": false,
      "inputs": [
        {
          "indexed": true,
          "internalType": "uint256",
          "name": "tokenId",
          "type": "uint256"
        },
        {
          "indexed": false,
          "internalType": "address payable",
          "name": "seller",
          "type": "address"
        },
        {
          "indexed": false,
          "internalType": "address payable",
          "name": "owner",
          "type": "address"
        },
        {
          "indexed": false,
          "internalType": "uint256",
          "name": "price",
          "type": "uint256"
        },
        {
          "indexed": false,
          "internalType": "bool",
          "name": "sold",
          "type": "bool"
        }
      ],
      "name": "FacilityCreated",
      "type": "event"
    },
    {
      "anonymous": false,
      "inputs": [
        {
          "indexed": true,
          "internalType": "address",
          "name": "previousOwner",
          "type": "address"
        },
        {
          "indexed": true,
          "internalType": "address",
          "name": "newOwner",
          "type": "address"
        }
      ],
      "name": "OwnershipTransferred",
      "type": "event"
    },
    {
      "anonymous": false,
      "inputs": [
        {
          "indexed": true,
          "internalType": "address",
          "name": "from",
          "type": "address"
        },
        {
          "indexed": true,
          "internalType": "address",
          "name": "to",
          "type": "address"
        },
        {
          "indexed": true,
          "internalType": "uint256",
          "name": "tokenId",
          "type": "uint256"
        }
      ],
      "name": "Transfer",
      "type": "event"
    },
    {
      "inputs": [
        {
          "internalType": "address",
          "name": "to",
          "type": "address"
        },
        {
          "internalType": "uint256",
          "name": "tokenId",
          "type": "uint256"
        }
      ],
      "name": "approve",
      "outputs": [],
      "stateMutability": "nonpayable",
      "type": "function"
    },
    {
      "inputs": [
        {
          "internalType": "address",
          "name": "owner",
          "type": "address"
        }
      ],
      "name": "balanceOf",
      "outputs": [
        {
          "internalType": "uint256",
          "name": "",
          "type": "uint256"
        }
      ],
      "stateMutability": "view",
      "type": "function"
    },
    {
      "inputs": [
        {
          "internalType": "address",
          "name": "_nftContractAddress",
          "type": "address"
        },
        {
          "internalType": "uint256",
          "name": "_tokenId",
          "type": "uint256"
        }
      ],
      "name": "buyNFT_to_fund_Edu",
      "outputs": [],
      "stateMutability": "payable",
      "type": "function"
    },
    {
      "inputs": [
        {
          "internalType": "address",
          "name": "_nftContractAddress",
          "type": "address"
        },
        {
          "internalType": "uint256",
          "name": "_tokenId",
          "type": "uint256"
        }
      ],
      "name": "buyResaleNFT",
      "outputs": [],
      "stateMutability": "payable",
      "type": "function"
    },
    {
      "inputs": [
        {
          "internalType": "uint256",
          "name": "_listPrice",
          "type": "uint256"
        }
      ],
      "name": "changeNFTPrice",
      "outputs": [],
      "stateMutability": "payable",
      "type": "function"
    },
    {
      "inputs": [
        {
          "internalType": "string",
          "name": "_tokenURI",
          "type": "string"
        },
        {
          "internalType": "uint256",
          "name": "price",
          "type": "uint256"
        }
      ],
      "name": "createFacility",
      "outputs": [
        {
          "internalType": "uint256",
          "name": "",
          "type": "uint256"
        }
      ],
      "stateMutability": "payable",
      "type": "function"
    },
    {
      "inputs": [
        {
          "internalType": "uint256",
          "name": "",
          "type": "uint256"
        }
      ],
      "name": "facility",
      "outputs": [
        {
          "internalType": "uint256",
          "name": "tokenId",
          "type": "uint256"
        },
        {
          "internalType": "address payable",
          "name": "seller",
          "type": "address"
        },
        {
          "internalType": "address payable",
          "name": "owner",
          "type": "address"
        },
        {
          "internalType": "uint256",
          "name": "price",
          "type": "uint256"
        },
        {
          "internalType": "bool",
          "name": "sold",
          "type": "bool"
        },
        {
          "internalType": "bool",
          "name": "isForResale",
          "type": "bool"
        }
      ],
      "stateMutability": "view",
      "type": "function"
    },
    {
      "inputs": [
        {
          "internalType": "uint256",
          "name": "tokenId",
          "type": "uint256"
        }
      ],
      "name": "getApproved",
      "outputs": [
        {
          "internalType": "address",
          "name": "",
          "type": "address"
        }
      ],
      "stateMutability": "view",
      "type": "function"
    },
    {
      "inputs": [],
      "name": "getContractOwner",
      "outputs": [
        {
          "internalType": "address",
          "name": "",
          "type": "address"
        }
      ],
      "stateMutability": "view",
      "type": "function"
    },
    {
      "inputs": [
        {
          "internalType": "uint256",
          "name": "_tokenId",
          "type": "uint256"
        }
      ],
      "name": "getFacility",
      "outputs": [
        {
          "components": [
            {
              "internalType": "uint256",
              "name": "tokenId",
              "type": "uint256"
            },
            {
              "internalType": "address payable",
              "name": "seller",
              "type": "address"
            },
            {
              "internalType": "address payable",
              "name": "owner",
              "type": "address"
            },
            {
              "internalType": "uint256",
              "name": "price",
              "type": "uint256"
            },
            {
              "internalType": "bool",
              "name": "sold",
              "type": "bool"
            },
            {
              "internalType": "bool",
              "name": "isForResale",
              "type": "bool"
            }
          ],
          "internalType": "struct EduFundNFT.EduFacility",
          "name": "",
          "type": "tuple"
        }
      ],
      "stateMutability": "view",
      "type": "function"
    },
    {
      "inputs": [],
      "name": "getListPrice",
      "outputs": [
        {
          "internalType": "uint256",
          "name": "",
          "type": "uint256"
        }
      ],
      "stateMutability": "view",
      "type": "function"
    },
    {
      "inputs": [
        {
          "internalType": "uint256",
          "name": "index",
          "type": "uint256"
        }
      ],
      "name": "getNftOwner",
      "outputs": [
        {
          "internalType": "address",
          "name": "",
          "type": "address"
        }
      ],
      "stateMutability": "view",
      "type": "function"
    },
    {
      "inputs": [],
      "name": "getTotalFacility",
      "outputs": [
        {
          "internalType": "uint256",
          "name": "",
          "type": "uint256"
        }
      ],
      "stateMutability": "view",
      "type": "function"
    },
    {
      "inputs": [
        {
          "internalType": "address",
          "name": "owner",
          "type": "address"
        },
        {
          "internalType": "address",
          "name": "operator",
          "type": "address"
        }
      ],
      "name": "isApprovedForAll",
      "outputs": [
        {
          "internalType": "bool",
          "name": "",
          "type": "bool"
        }
      ],
      "stateMutability": "view",
      "type": "function"
    },
    {
      "inputs": [
        {
          "internalType": "uint256",
          "name": "_tokenId",
          "type": "uint256"
        },
        {
          "internalType": "uint256",
          "name": "price",
          "type": "uint256"
        }
      ],
      "name": "listNFT",
      "outputs": [],
      "stateMutability": "nonpayable",
      "type": "function"
    },
    {
      "inputs": [],
      "name": "name",
      "outputs": [
        {
          "internalType": "string",
          "name": "",
          "type": "string"
        }
      ],
      "stateMutability": "view",
      "type": "function"
    },
    {
      "inputs": [
        {
          "internalType": "address",
          "name": "",
          "type": "address"
        },
        {
          "internalType": "address",
          "name": "",
          "type": "address"
        },
        {
          "internalType": "uint256",
          "name": "",
          "type": "uint256"
        },
        {
          "internalType": "bytes",
          "name": "",
          "type": "bytes"
        }
      ],
      "name": "onERC721Received",
      "outputs": [
        {
          "internalType": "bytes4",
          "name": "",
          "type": "bytes4"
        }
      ],
      "stateMutability": "pure",
      "type": "function"
    },
    {
      "inputs": [],
      "name": "owner",
      "outputs": [
        {
          "internalType": "address",
          "name": "",
          "type": "address"
        }
      ],
      "stateMutability": "view",
      "type": "function"
    },
    {
      "inputs": [
        {
          "internalType": "uint256",
          "name": "tokenId",
          "type": "uint256"
        }
      ],
      "name": "ownerOf",
      "outputs": [
        {
          "internalType": "address",
          "name": "",
          "type": "address"
        }
      ],
      "stateMutability": "view",
      "type": "function"
    },
    {
      "inputs": [
        {
          "internalType": "uint256",
          "name": "_tokenId",
          "type": "uint256"
        },
        {
          "internalType": "uint256",
          "name": "newPrice",
          "type": "uint256"
        }
      ],
      "name": "re_ListNFT",
      "outputs": [
        {
          "internalType": "uint256",
          "name": "",
          "type": "uint256"
        }
      ],
      "stateMutability": "payable",
      "type": "function"
    },
    {
      "inputs": [],
      "name": "renounceOwnership",
      "outputs": [],
      "stateMutability": "nonpayable",
      "type": "function"
    },
    {
      "inputs": [
        {
          "internalType": "address",
          "name": "to",
          "type": "address"
        },
        {
          "internalType": "string",
          "name": "uri",
          "type": "string"
        }
      ],
      "name": "safeMint",
      "outputs": [],
      "stateMutability": "nonpayable",
      "type": "function"
    },
    {
      "inputs": [
        {
          "internalType": "address",
          "name": "from",
          "type": "address"
        },
        {
          "internalType": "address",
          "name": "to",
          "type": "address"
        },
        {
          "internalType": "uint256",
          "name": "tokenId",
          "type": "uint256"
        }
      ],
      "name": "safeTransferFrom",
      "outputs": [],
      "stateMutability": "nonpayable",
      "type": "function"
    },
    {
      "inputs": [
        {
          "internalType": "address",
          "name": "from",
          "type": "address"
        },
        {
          "internalType": "address",
          "name": "to",
          "type": "address"
        },
        {
          "internalType": "uint256",
          "name": "tokenId",
          "type": "uint256"
        },
        {
          "internalType": "bytes",
          "name": "data",
          "type": "bytes"
        }
      ],
      "name": "safeTransferFrom",
      "outputs": [],
      "stateMutability": "nonpayable",
      "type": "function"
    },
    {
      "inputs": [
        {
          "internalType": "address",
          "name": "operator",
          "type": "address"
        },
        {
          "internalType": "bool",
          "name": "approved",
          "type": "bool"
        }
      ],
      "name": "setApprovalForAll",
      "outputs": [],
      "stateMutability": "nonpayable",
      "type": "function"
    },
    {
      "inputs": [
        {
          "internalType": "bytes4",
          "name": "interfaceId",
          "type": "bytes4"
        }
      ],
      "name": "supportsInterface",
      "outputs": [
        {
          "internalType": "bool",
          "name": "",
          "type": "bool"
        }
      ],
      "stateMutability": "view",
      "type": "function"
    },
    {
      "inputs": [],
      "name": "symbol",
      "outputs": [
        {
          "internalType": "string",
          "name": "",
          "type": "string"
        }
      ],
      "stateMutability": "view",
      "type": "function"
    },
    {
      "inputs": [
        {
          "internalType": "uint256",
          "name": "tokenId",
          "type": "uint256"
        }
      ],
      "name": "tokenURI",
      "outputs": [
        {
          "internalType": "string",
          "name": "",
          "type": "string"
        }
      ],
      "stateMutability": "view",
      "type": "function"
    },
    {
      "inputs": [
        {
          "internalType": "address",
          "name": "from",
          "type": "address"
        },
        {
          "internalType": "address",
          "name": "to",
          "type": "address"
        },
        {
          "internalType": "uint256",
          "name": "tokenId",
          "type": "uint256"
        }
      ],
      "name": "transferFrom",
      "outputs": [],
      "stateMutability": "nonpayable",
      "type": "function"
    },
    {
      "inputs": [
        {
          "internalType": "address",
          "name": "newOwner",
          "type": "address"
        }
      ],
      "name": "transferOwnership",
      "outputs": [],
      "stateMutability": "nonpayable",
      "type": "function"
    }
  ],
  "bytecode": "0x60806040523480156200001157600080fd5b506040518060400160405280600a81526020017f45647546756e644e4654000000000000000000000000000000000000000000008152506040518060400160405280600581526020017f45464e4654000000000000000000000000000000000000000000000000000000815250816000908051906020019062000096929190620001a6565b508060019080519060200190620000af929190620001a6565b505050620000d2620000c6620000d860201b60201c565b620000e060201b60201c565b620002bb565b600033905090565b6000600760009054906101000a900473ffffffffffffffffffffffffffffffffffffffff16905081600760006101000a81548173ffffffffffffffffffffffffffffffffffffffff021916908373ffffffffffffffffffffffffffffffffffffffff1602179055508173ffffffffffffffffffffffffffffffffffffffff168173ffffffffffffffffffffffffffffffffffffffff167f8be0079c531659141344cd1fd0a4f28419497f9722a3daafe3b4186f6b6457e060405160405180910390a35050565b828054620001b49062000256565b90600052602060002090601f016020900481019282620001d8576000855562000224565b82601f10620001f357805160ff191683800117855562000224565b8280016001018555821562000224579182015b828111156200022357825182559160200191906001019062000206565b5b50905062000233919062000237565b5090565b5b808211156200025257600081600090555060010162000238565b5090565b600060028204905060018216806200026f57607f821691505b602082108114156200028657620002856200028c565b5b50919050565b7f4e487b7100000000000000000000000000000000000000000000000000000000600052602260045260246000fd5b61452880620002cb6000396000f3fe6080604052600436106101cd5760003560e01c80638698fb32116100f7578063b88d4fde11610095578063e985e9c511610064578063e985e9c51461068a578063edc4400a146106c7578063f26318bf146106e3578063f2fde38b14610725576101cd565b8063b88d4fde146105d0578063c4bfbd90146105f9578063c87b56dd14610624578063d204c45e14610661576101cd565b806394383f14116100d157806394383f141461052357806395d89b411461054c57806399dad95414610577578063a22cb465146105a7576101cd565b80638698fb321461047e5780638ad2d5a7146104bb5780638da5cb5b146104f8576101cd565b806342842e0e1161016f5780636352211e1161013e5780636352211e146103c257806368f1945f146103ff57806370a082311461042a578063715018a614610467576101cd565b806342842e0e14610322578063442890d51461034b5780634d9a8e58146103765780634f8e05a614610392576101cd565b8063095ea7b3116101ab578063095ea7b314610277578063150b7a02146102a057806323b872dd146102dd57806330c62a8014610306576101cd565b806301ffc9a7146101d257806306fdde031461020f578063081812fc1461023a575b600080fd5b3480156101de57600080fd5b506101f960048036038101906101f491906130ea565b61074e565b60405161020691906137a9565b60405180910390f35b34801561021b57600080fd5b50610224610760565b60405161023191906137df565b60405180910390f35b34801561024657600080fd5b50610261600480360381019061025c9190613190565b6107f2565b60405161026e91906136c6565b60405180910390f35b34801561028357600080fd5b5061029e600480360381019061029991906130ae565b610838565b005b3480156102ac57600080fd5b506102c760048036038101906102c29190612f23565b610950565b6040516102d491906137c4565b60405180910390f35b3480156102e957600080fd5b5061030460048036038101906102ff9190612ed4565b610965565b005b610320600480360381019061031b91906130ae565b6109c5565b005b34801561032e57600080fd5b5061034960048036038101906103449190612ed4565b610d81565b005b34801561035757600080fd5b50610360610da1565b60405161036d91906136c6565b60405180910390f35b610390600480360381019061038b91906130ae565b610db0565b005b6103ac60048036038101906103a791906131b9565b6110a9565b6040516103b99190613abc565b60405180910390f35b3480156103ce57600080fd5b506103e960048036038101906103e49190613190565b61126d565b6040516103f691906136c6565b60405180910390f35b34801561040b57600080fd5b5061041461131f565b6040516104219190613abc565b60405180910390f35b34801561043657600080fd5b50610451600480360381019061044c9190612e6f565b611329565b60405161045e9190613abc565b60405180910390f35b34801561047357600080fd5b5061047c6113e1565b005b34801561048a57600080fd5b506104a560048036038101906104a09190613190565b6113f5565b6040516104b29190613aa1565b60405180910390f35b3480156104c757600080fd5b506104e260048036038101906104dd9190613190565b611518565b6040516104ef91906136c6565b60405180910390f35b34801561050457600080fd5b5061050d611558565b60405161051a91906136c6565b60405180910390f35b34801561052f57600080fd5b5061054a600480360381019061054591906131b9565b611582565b005b34801561055857600080fd5b506105616117a8565b60405161056e91906137df565b60405180910390f35b610591600480360381019061058c919061313c565b61183a565b60405161059e9190613abc565b60405180910390f35b3480156105b357600080fd5b506105ce60048036038101906105c9919061301e565b611884565b005b3480156105dc57600080fd5b506105f760048036038101906105f29190612fa3565b61189a565b005b34801561060557600080fd5b5061060e6118fc565b60405161061b9190613abc565b60405180910390f35b34801561063057600080fd5b5061064b60048036038101906106469190613190565b61190d565b60405161065891906137df565b60405180910390f35b34801561066d57600080fd5b506106886004803603810190610683919061305a565b61191f565b005b34801561069657600080fd5b506106b160048036038101906106ac9190612e98565b611958565b6040516106be91906137a9565b60405180910390f35b6106e160048036038101906106dc9190613190565b6119ec565b005b3480156106ef57600080fd5b5061070a60048036038101906107059190613190565b6119fe565b60405161071c96959493929190613ad7565b60405180910390f35b34801561073157600080fd5b5061074c60048036038101906107479190612e6f565b611a94565b005b600061075982611b18565b9050919050565b60606000805461076f90613dea565b80601f016020809104026020016040519081016040528092919081815260200182805461079b90613dea565b80156107e85780601f106107bd576101008083540402835291602001916107e8565b820191906000526020600020905b8154815290600101906020018083116107cb57829003601f168201915b5050505050905090565b60006107fd82611bfa565b6004600083815260200190815260200160002060009054906101000a900473ffffffffffffffffffffffffffffffffffffffff169050919050565b60006108438261126d565b90508073ffffffffffffffffffffffffffffffffffffffff168373ffffffffffffffffffffffffffffffffffffffff1614156108b4576040517f08c379a00000000000000000000000000000000000000000000000000000000081526004016108ab90613a21565b60405180910390fd5b8073ffffffffffffffffffffffffffffffffffffffff166108d3611c45565b73ffffffffffffffffffffffffffffffffffffffff1614806109025750610901816108fc611c45565b611958565b5b610941576040517f08c379a000000000000000000000000000000000000000000000000000000000815260040161093890613981565b60405180910390fd5b61094b8383611c4d565b505050565b600063150b7a0260e01b905095945050505050565b610976610970611c45565b82611d06565b6109b5576040517f08c379a00000000000000000000000000000000000000000000000000000000081526004016109ac90613a61565b60405180910390fd5b6109c0838383611d9b565b505050565b6000600a600083815260200190815260200160002060030154905080341015610a23576040517f08c379a0000000000000000000000000000000000000000000000000000000008152600401610a1a906138c1565b60405180910390fd5b60011515600a600084815260200190815260200160002060040160019054906101000a900460ff16151514610a8d576040517f08c379a0000000000000000000000000000000000000000000000000000000008152600401610a8490613801565b60405180910390fd5b8273ffffffffffffffffffffffffffffffffffffffff166342842e0e3033856040518463ffffffff1660e01b8152600401610aca93929190613726565b600060405180830381600087803b158015610ae457600080fd5b505af1158015610af8573d6000803e3d6000fd5b505050506000600a600084815260200190815260200160002060010160009054906101000a900473ffffffffffffffffffffffffffffffffffffffff16905060008173ffffffffffffffffffffffffffffffffffffffff166064604634610b5f9190613c94565b610b699190613c63565b604051610b75906136b1565b60006040518083038185875af1925050503d8060008114610bb2576040519150601f19603f3d011682016040523d82523d6000602084013e610bb7565b606091505b5050905080610bfb576040517f08c379a0000000000000000000000000000000000000000000000000000000008152600401610bf290613a41565b60405180910390fd5b6000610c05611558565b73ffffffffffffffffffffffffffffffffffffffff166064601e34610c2a9190613c94565b610c349190613c63565b604051610c40906136b1565b60006040518083038185875af1925050503d8060008114610c7d576040519150601f19603f3d011682016040523d82523d6000602084013e610c82565b606091505b5050905080610cc6576040517f08c379a0000000000000000000000000000000000000000000000000000000008152600401610cbd90613a81565b60405180910390fd5b33600a600087815260200190815260200160002060020160006101000a81548173ffffffffffffffffffffffffffffffffffffffff021916908373ffffffffffffffffffffffffffffffffffffffff1602179055506001600a600087815260200190815260200160002060040160006101000a81548160ff0219169083151502179055506001600a600087815260200190815260200160002060040160016101000a81548160ff021916908315150217905550505050505050565b610d9c8383836040518060200160405280600081525061189a565b505050565b6000610dab611558565b905090565b6000600a600083815260200190815260200160002060030154905080341015610e0e576040517f08c379a0000000000000000000000000000000000000000000000000000000008152600401610e05906138c1565b60405180910390fd5b60001515600a600084815260200190815260200160002060040160019054906101000a900460ff16151514610e78576040517f08c379a0000000000000000000000000000000000000000000000000000000008152600401610e6f90613921565b60405180910390fd5b8273ffffffffffffffffffffffffffffffffffffffff166342842e0e3033856040518463ffffffff1660e01b8152600401610eb593929190613726565b600060405180830381600087803b158015610ecf57600080fd5b505af1158015610ee3573d6000803e3d6000fd5b505050506001600a600084815260200190815260200160002060040160006101000a81548160ff02191690831515021790555033600a600084815260200190815260200160002060020160006101000a81548173ffffffffffffffffffffffffffffffffffffffff021916908373ffffffffffffffffffffffffffffffffffffffff1602179055506000600a600084815260200190815260200160002060010160006101000a81548173ffffffffffffffffffffffffffffffffffffffff021916908373ffffffffffffffffffffffffffffffffffffffff1602179055506000610fcb611558565b73ffffffffffffffffffffffffffffffffffffffff1634604051610fee906136b1565b60006040518083038185875af1925050503d806000811461102b576040519150601f19603f3d011682016040523d82523d6000602084013e611030565b606091505b5050905080611074576040517f08c379a000000000000000000000000000000000000000000000000000000000815260040161106b90613a81565b60405180910390fd5b6001600a600085815260200190815260200160002060040160016101000a81548160ff02191690831515021790555050505050565b6000823373ffffffffffffffffffffffffffffffffffffffff16600a600083815260200190815260200160002060020160009054906101000a900473ffffffffffffffffffffffffffffffffffffffff1673ffffffffffffffffffffffffffffffffffffffff1614611150576040517f08c379a0000000000000000000000000000000000000000000000000000000008152600401611147906139e1565b60405180910390fd5b61115b333086610d81565b6000600a600086815260200190815260200160002060040160006101000a81548160ff02191690831515021790555033600a600086815260200190815260200160002060010160006101000a81548173ffffffffffffffffffffffffffffffffffffffff021916908373ffffffffffffffffffffffffffffffffffffffff16021790555033600a600086815260200190815260200160002060020160006101000a81548173ffffffffffffffffffffffffffffffffffffffff021916908373ffffffffffffffffffffffffffffffffffffffff1602179055506001600a600086815260200190815260200160002060040160016101000a81548160ff0219169083151502179055508291505092915050565b6000806002600084815260200190815260200160002060009054906101000a900473ffffffffffffffffffffffffffffffffffffffff169050600073ffffffffffffffffffffffffffffffffffffffff168173ffffffffffffffffffffffffffffffffffffffff161415611316576040517f08c379a000000000000000000000000000000000000000000000000000000000815260040161130d90613a01565b60405180910390fd5b80915050919050565b6000600954905090565b60008073ffffffffffffffffffffffffffffffffffffffff168273ffffffffffffffffffffffffffffffffffffffff16141561139a576040517f08c379a000000000000000000000000000000000000000000000000000000000815260040161139190613941565b60405180910390fd5b600360008373ffffffffffffffffffffffffffffffffffffffff1673ffffffffffffffffffffffffffffffffffffffff168152602001908152602001600020549050919050565b6113e9612002565b6113f36000612080565b565b6113fd612be3565b600a60008381526020019081526020016000206040518060c0016040529081600082015481526020016001820160009054906101000a900473ffffffffffffffffffffffffffffffffffffffff1673ffffffffffffffffffffffffffffffffffffffff1673ffffffffffffffffffffffffffffffffffffffff1681526020016002820160009054906101000a900473ffffffffffffffffffffffffffffffffffffffff1673ffffffffffffffffffffffffffffffffffffffff1673ffffffffffffffffffffffffffffffffffffffff168152602001600382015481526020016004820160009054906101000a900460ff161515151581526020016004820160019054906101000a900460ff1615151515815250509050919050565b6000600a600083815260200190815260200160002060020160009054906101000a900473ffffffffffffffffffffffffffffffffffffffff169050919050565b6000600760009054906101000a900473ffffffffffffffffffffffffffffffffffffffff16905090565b61158a612002565b600081116115cd576040517f08c379a00000000000000000000000000000000000000000000000000000000081526004016115c490613821565b60405180910390fd5b6040518060c001604052808381526020013373ffffffffffffffffffffffffffffffffffffffff1681526020013373ffffffffffffffffffffffffffffffffffffffff16815260200182815260200160001515815260200160001515815250600a60008481526020019081526020016000206000820151816000015560208201518160010160006101000a81548173ffffffffffffffffffffffffffffffffffffffff021916908373ffffffffffffffffffffffffffffffffffffffff16021790555060408201518160020160006101000a81548173ffffffffffffffffffffffffffffffffffffffff021916908373ffffffffffffffffffffffffffffffffffffffff1602179055506060820151816003015560808201518160040160006101000a81548160ff02191690831515021790555060a08201518160040160016101000a81548160ff021916908315150217905550905050611765600a600084815260200190815260200160002060020160009054906101000a900473ffffffffffffffffffffffffffffffffffffffff163084610d81565b817f0bf718aa63f641b3cd55a8b6dc138207634e87116e1422763a5715d89a8a97cd333084600060405161179c94939291906136e1565b60405180910390a25050565b6060600180546117b790613dea565b80601f01602080910402602001604051908101604052809291908181526020018280546117e390613dea565b80156118305780601f1061180557610100808354040283529160200191611830565b820191906000526020600020905b81548152906001019060200180831161181357829003601f168201915b5050505050905090565b6000611844612002565b61184e6008612146565b600061185a600861215c565b9050611866338261216a565b6118708185612188565b61187a8184611582565b8091505092915050565b61189661188f611c45565b83836121fc565b5050565b6118ab6118a5611c45565b83611d06565b6118ea576040517f08c379a00000000000000000000000000000000000000000000000000000000081526004016118e190613a61565b60405180910390fd5b6118f684848484612369565b50505050565b6000611908600861215c565b905090565b6060611918826123c5565b9050919050565b611927612002565b6000611933600861215c565b905061193f6008612146565b611949838261216a565b6119538183612188565b505050565b6000600560008473ffffffffffffffffffffffffffffffffffffffff1673ffffffffffffffffffffffffffffffffffffffff16815260200190815260200160002060008373ffffffffffffffffffffffffffffffffffffffff1673ffffffffffffffffffffffffffffffffffffffff16815260200190815260200160002060009054906101000a900460ff16905092915050565b6119f4612002565b8060098190555050565b600a6020528060005260406000206000915090508060000154908060010160009054906101000a900473ffffffffffffffffffffffffffffffffffffffff16908060020160009054906101000a900473ffffffffffffffffffffffffffffffffffffffff16908060030154908060040160009054906101000a900460ff16908060040160019054906101000a900460ff16905086565b611a9c612002565b600073ffffffffffffffffffffffffffffffffffffffff168173ffffffffffffffffffffffffffffffffffffffff161415611b0c576040517f08c379a0000000000000000000000000000000000000000000000000000000008152600401611b0390613861565b60405180910390fd5b611b1581612080565b50565b60007f80ac58cd000000000000000000000000000000000000000000000000000000007bffffffffffffffffffffffffffffffffffffffffffffffffffffffff1916827bffffffffffffffffffffffffffffffffffffffffffffffffffffffff19161480611be357507f5b5e139f000000000000000000000000000000000000000000000000000000007bffffffffffffffffffffffffffffffffffffffffffffffffffffffff1916827bffffffffffffffffffffffffffffffffffffffffffffffffffffffff1916145b80611bf35750611bf2826124d8565b5b9050919050565b611c0381612542565b611c42576040517f08c379a0000000000000000000000000000000000000000000000000000000008152600401611c3990613a01565b60405180910390fd5b50565b600033905090565b816004600083815260200190815260200160002060006101000a81548173ffffffffffffffffffffffffffffffffffffffff021916908373ffffffffffffffffffffffffffffffffffffffff160217905550808273ffffffffffffffffffffffffffffffffffffffff16611cc08361126d565b73ffffffffffffffffffffffffffffffffffffffff167f8c5be1e5ebec7d5bd14f71427d1e84f3dd0314c0f7b2291e5b200ac8c7c3b92560405160405180910390a45050565b600080611d128361126d565b90508073ffffffffffffffffffffffffffffffffffffffff168473ffffffffffffffffffffffffffffffffffffffff161480611d545750611d538185611958565b5b80611d9257508373ffffffffffffffffffffffffffffffffffffffff16611d7a846107f2565b73ffffffffffffffffffffffffffffffffffffffff16145b91505092915050565b8273ffffffffffffffffffffffffffffffffffffffff16611dbb8261126d565b73ffffffffffffffffffffffffffffffffffffffff1614611e11576040517f08c379a0000000000000000000000000000000000000000000000000000000008152600401611e0890613881565b60405180910390fd5b600073ffffffffffffffffffffffffffffffffffffffff168273ffffffffffffffffffffffffffffffffffffffff161415611e81576040517f08c379a0000000000000000000000000000000000000000000000000000000008152600401611e78906138e1565b60405180910390fd5b611e8c8383836125ae565b611e97600082611c4d565b6001600360008573ffffffffffffffffffffffffffffffffffffffff1673ffffffffffffffffffffffffffffffffffffffff1681526020019081526020016000206000828254611ee79190613cee565b925050819055506001600360008473ffffffffffffffffffffffffffffffffffffffff1673ffffffffffffffffffffffffffffffffffffffff1681526020019081526020016000206000828254611f3e9190613c0d565b92505081905550816002600083815260200190815260200160002060006101000a81548173ffffffffffffffffffffffffffffffffffffffff021916908373ffffffffffffffffffffffffffffffffffffffff160217905550808273ffffffffffffffffffffffffffffffffffffffff168473ffffffffffffffffffffffffffffffffffffffff167fddf252ad1be2c89b69c2b068fc378daa952ba7f163c4a11628f55a4df523b3ef60405160405180910390a4611ffd8383836125be565b505050565b61200a611c45565b73ffffffffffffffffffffffffffffffffffffffff16612028611558565b73ffffffffffffffffffffffffffffffffffffffff161461207e576040517f08c379a0000000000000000000000000000000000000000000000000000000008152600401612075906139c1565b60405180910390fd5b565b6000600760009054906101000a900473ffffffffffffffffffffffffffffffffffffffff16905081600760006101000a81548173ffffffffffffffffffffffffffffffffffffffff021916908373ffffffffffffffffffffffffffffffffffffffff1602179055508173ffffffffffffffffffffffffffffffffffffffff168173ffffffffffffffffffffffffffffffffffffffff167f8be0079c531659141344cd1fd0a4f28419497f9722a3daafe3b4186f6b6457e060405160405180910390a35050565b6001816000016000828254019250508190555050565b600081600001549050919050565b6121848282604051806020016040528060008152506125c3565b5050565b61219182612542565b6121d0576040517f08c379a00000000000000000000000000000000000000000000000000000000081526004016121c790613961565b60405180910390fd5b806006600084815260200190815260200160002090805190602001906121f7929190612c49565b505050565b8173ffffffffffffffffffffffffffffffffffffffff168373ffffffffffffffffffffffffffffffffffffffff16141561226b576040517f08c379a000000000000000000000000000000000000000000000000000000000815260040161226290613901565b60405180910390fd5b80600560008573ffffffffffffffffffffffffffffffffffffffff1673ffffffffffffffffffffffffffffffffffffffff16815260200190815260200160002060008473ffffffffffffffffffffffffffffffffffffffff1673ffffffffffffffffffffffffffffffffffffffff16815260200190815260200160002060006101000a81548160ff0219169083151502179055508173ffffffffffffffffffffffffffffffffffffffff168373ffffffffffffffffffffffffffffffffffffffff167f17307eab39ab6107e8899845ad3d59bd9653f200f220920489ca2b5937696c318360405161235c91906137a9565b60405180910390a3505050565b612374848484611d9b565b6123808484848461261e565b6123bf576040517f08c379a00000000000000000000000000000000000000000000000000000000081526004016123b690613841565b60405180910390fd5b50505050565b60606123d082611bfa565b60006006600084815260200190815260200160002080546123f090613dea565b80601f016020809104026020016040519081016040528092919081815260200182805461241c90613dea565b80156124695780601f1061243e57610100808354040283529160200191612469565b820191906000526020600020905b81548152906001019060200180831161244c57829003601f168201915b50505050509050600061247a6127b5565b90506000815114156124905781925050506124d3565b6000825111156124c55780826040516020016124ad92919061368d565b604051602081830303815290604052925050506124d3565b6124ce846127cc565b925050505b919050565b60007f01ffc9a7000000000000000000000000000000000000000000000000000000007bffffffffffffffffffffffffffffffffffffffffffffffffffffffff1916827bffffffffffffffffffffffffffffffffffffffffffffffffffffffff1916149050919050565b60008073ffffffffffffffffffffffffffffffffffffffff166002600084815260200190815260200160002060009054906101000a900473ffffffffffffffffffffffffffffffffffffffff1673ffffffffffffffffffffffffffffffffffffffff1614159050919050565b6125b9838383612834565b505050565b505050565b6125cd8383612839565b6125da600084848461261e565b612619576040517f08c379a000000000000000000000000000000000000000000000000000000000815260040161261090613841565b60405180910390fd5b505050565b600061263f8473ffffffffffffffffffffffffffffffffffffffff16612a13565b156127a8578373ffffffffffffffffffffffffffffffffffffffff1663150b7a02612668611c45565b8786866040518563ffffffff1660e01b815260040161268a949392919061375d565b602060405180830381600087803b1580156126a457600080fd5b505af19250505080156126d557506040513d601f19601f820116820180604052508101906126d29190613113565b60015b612758573d8060008114612705576040519150601f19603f3d011682016040523d82523d6000602084013e61270a565b606091505b50600081511415612750576040517f08c379a000000000000000000000000000000000000000000000000000000000815260040161274790613841565b60405180910390fd5b805181602001fd5b63150b7a0260e01b7bffffffffffffffffffffffffffffffffffffffffffffffffffffffff1916817bffffffffffffffffffffffffffffffffffffffffffffffffffffffff1916149150506127ad565b600190505b949350505050565b606060405180602001604052806000815250905090565b60606127d782611bfa565b60006127e16127b5565b90506000815111612801576040518060200160405280600081525061282c565b8061280b84612a36565b60405160200161281c92919061368d565b6040516020818303038152906040525b915050919050565b505050565b600073ffffffffffffffffffffffffffffffffffffffff168273ffffffffffffffffffffffffffffffffffffffff1614156128a9576040517f08c379a00000000000000000000000000000000000000000000000000000000081526004016128a0906139a1565b60405180910390fd5b6128b281612542565b156128f2576040517f08c379a00000000000000000000000000000000000000000000000000000000081526004016128e9906138a1565b60405180910390fd5b6128fe600083836125ae565b6001600360008473ffffffffffffffffffffffffffffffffffffffff1673ffffffffffffffffffffffffffffffffffffffff168152602001908152602001600020600082825461294e9190613c0d565b92505081905550816002600083815260200190815260200160002060006101000a81548173ffffffffffffffffffffffffffffffffffffffff021916908373ffffffffffffffffffffffffffffffffffffffff160217905550808273ffffffffffffffffffffffffffffffffffffffff16600073ffffffffffffffffffffffffffffffffffffffff167fddf252ad1be2c89b69c2b068fc378daa952ba7f163c4a11628f55a4df523b3ef60405160405180910390a4612a0f600083836125be565b5050565b6000808273ffffffffffffffffffffffffffffffffffffffff163b119050919050565b60606000821415612a7e576040518060400160405280600181526020017f30000000000000000000000000000000000000000000000000000000000000008152509050612bde565b600082905060005b60008214612ab0578080612a9990613e4d565b915050600a82612aa99190613c63565b9150612a86565b60008167ffffffffffffffff811115612af2577f4e487b7100000000000000000000000000000000000000000000000000000000600052604160045260246000fd5b6040519080825280601f01601f191660200182016040528015612b245781602001600182028036833780820191505090505b5090505b60008514612bd757600182612b3d9190613cee565b9150600a85612b4c9190613e96565b6030612b589190613c0d565b60f81b818381518110612b94577f4e487b7100000000000000000000000000000000000000000000000000000000600052603260045260246000fd5b60200101907effffffffffffffffffffffffffffffffffffffffffffffffffffffffffffff1916908160001a905350600a85612bd09190613c63565b9450612b28565b8093505050505b919050565b6040518060c0016040528060008152602001600073ffffffffffffffffffffffffffffffffffffffff168152602001600073ffffffffffffffffffffffffffffffffffffffff168152602001600081526020016000151581526020016000151581525090565b828054612c5590613dea565b90600052602060002090601f016020900481019282612c775760008555612cbe565b82601f10612c9057805160ff1916838001178555612cbe565b82800160010185558215612cbe579182015b82811115612cbd578251825591602001919060010190612ca2565b5b509050612ccb9190612ccf565b5090565b5b80821115612ce8576000816000905550600101612cd0565b5090565b6000612cff612cfa84613b5d565b613b38565b905082815260208101848484011115612d1757600080fd5b612d22848285613da8565b509392505050565b6000612d3d612d3884613b8e565b613b38565b905082815260208101848484011115612d5557600080fd5b612d60848285613da8565b509392505050565b600081359050612d7781614496565b92915050565b600081359050612d8c816144ad565b92915050565b600081359050612da1816144c4565b92915050565b600081519050612db6816144c4565b92915050565b60008083601f840112612dce57600080fd5b8235905067ffffffffffffffff811115612de757600080fd5b602083019150836001820283011115612dff57600080fd5b9250929050565b600082601f830112612e1757600080fd5b8135612e27848260208601612cec565b91505092915050565b600082601f830112612e4157600080fd5b8135612e51848260208601612d2a565b91505092915050565b600081359050612e69816144db565b92915050565b600060208284031215612e8157600080fd5b6000612e8f84828501612d68565b91505092915050565b60008060408385031215612eab57600080fd5b6000612eb985828601612d68565b9250506020612eca85828601612d68565b9150509250929050565b600080600060608486031215612ee957600080fd5b6000612ef786828701612d68565b9350506020612f0886828701612d68565b9250506040612f1986828701612e5a565b9150509250925092565b600080600080600060808688031215612f3b57600080fd5b6000612f4988828901612d68565b9550506020612f5a88828901612d68565b9450506040612f6b88828901612e5a565b935050606086013567ffffffffffffffff811115612f8857600080fd5b612f9488828901612dbc565b92509250509295509295909350565b60008060008060808587031215612fb957600080fd5b6000612fc787828801612d68565b9450506020612fd887828801612d68565b9350506040612fe987828801612e5a565b925050606085013567ffffffffffffffff81111561300657600080fd5b61301287828801612e06565b91505092959194509250565b6000806040838503121561303157600080fd5b600061303f85828601612d68565b925050602061305085828601612d7d565b9150509250929050565b6000806040838503121561306d57600080fd5b600061307b85828601612d68565b925050602083013567ffffffffffffffff81111561309857600080fd5b6130a485828601612e30565b9150509250929050565b600080604083850312156130c157600080fd5b60006130cf85828601612d68565b92505060206130e085828601612e5a565b9150509250929050565b6000602082840312156130fc57600080fd5b600061310a84828501612d92565b91505092915050565b60006020828403121561312557600080fd5b600061313384828501612da7565b91505092915050565b6000806040838503121561314f57600080fd5b600083013567ffffffffffffffff81111561316957600080fd5b61317585828601612e30565b925050602061318685828601612e5a565b9150509250929050565b6000602082840312156131a257600080fd5b60006131b084828501612e5a565b91505092915050565b600080604083850312156131cc57600080fd5b60006131da85828601612e5a565b92505060206131eb85828601612e5a565b9150509250929050565b6131fe81613d34565b82525050565b61320d81613d34565b82525050565b61321c81613d22565b82525050565b61322b81613d46565b82525050565b61323a81613d46565b82525050565b61324981613d52565b82525050565b600061325a82613bbf565b6132648185613bd5565b9350613274818560208601613db7565b61327d81613f83565b840191505092915050565b600061329382613bca565b61329d8185613bf1565b93506132ad818560208601613db7565b6132b681613f83565b840191505092915050565b60006132cc82613bca565b6132d68185613c02565b93506132e6818560208601613db7565b80840191505092915050565b60006132ff601583613bf1565b915061330a82613f94565b602082019050919050565b6000613322601f83613bf1565b915061332d82613fbd565b602082019050919050565b6000613345603283613bf1565b915061335082613fe6565b604082019050919050565b6000613368602683613bf1565b915061337382614035565b604082019050919050565b600061338b602583613bf1565b915061339682614084565b604082019050919050565b60006133ae601c83613bf1565b91506133b9826140d3565b602082019050919050565b60006133d1602083613bf1565b91506133dc826140fc565b602082019050919050565b60006133f4602483613bf1565b91506133ff82614125565b604082019050919050565b6000613417601983613bf1565b915061342282614174565b602082019050919050565b600061343a601283613bf1565b91506134458261419d565b602082019050919050565b600061345d602983613bf1565b9150613468826141c6565b604082019050919050565b6000613480602e83613bf1565b915061348b82614215565b604082019050919050565b60006134a3603e83613bf1565b91506134ae82614264565b604082019050919050565b60006134c6602083613bf1565b91506134d1826142b3565b602082019050919050565b60006134e9602083613bf1565b91506134f4826142dc565b602082019050919050565b600061350c601d83613bf1565b915061351782614305565b602082019050919050565b600061352f601883613bf1565b915061353a8261432e565b602082019050919050565b6000613552602183613bf1565b915061355d82614357565b604082019050919050565b6000613575600083613be6565b9150613580826143a6565b600082019050919050565b6000613598602683613bf1565b91506135a3826143a9565b604082019050919050565b60006135bb602e83613bf1565b91506135c6826143f8565b604082019050919050565b60006135de602783613bf1565b91506135e982614447565b604082019050919050565b60c08201600082015161360a600085018261366f565b50602082015161361d60208501826131f5565b50604082015161363060408501826131f5565b506060820151613643606085018261366f565b5060808201516136566080850182613222565b5060a082015161366960a0850182613222565b50505050565b61367881613d9e565b82525050565b61368781613d9e565b82525050565b600061369982856132c1565b91506136a582846132c1565b91508190509392505050565b60006136bc82613568565b9150819050919050565b60006020820190506136db6000830184613213565b92915050565b60006080820190506136f66000830187613204565b6137036020830186613204565b613710604083018561367e565b61371d6060830184613231565b95945050505050565b600060608201905061373b6000830186613213565b6137486020830185613213565b613755604083018461367e565b949350505050565b60006080820190506137726000830187613213565b61377f6020830186613213565b61378c604083018561367e565b818103606083015261379e818461324f565b905095945050505050565b60006020820190506137be6000830184613231565b92915050565b60006020820190506137d96000830184613240565b92915050565b600060208201905081810360008301526137f98184613288565b905092915050565b6000602082019050818103600083015261381a816132f2565b9050919050565b6000602082019050818103600083015261383a81613315565b9050919050565b6000602082019050818103600083015261385a81613338565b9050919050565b6000602082019050818103600083015261387a8161335b565b9050919050565b6000602082019050818103600083015261389a8161337e565b9050919050565b600060208201905081810360008301526138ba816133a1565b9050919050565b600060208201905081810360008301526138da816133c4565b9050919050565b600060208201905081810360008301526138fa816133e7565b9050919050565b6000602082019050818103600083015261391a8161340a565b9050919050565b6000602082019050818103600083015261393a8161342d565b9050919050565b6000602082019050818103600083015261395a81613450565b9050919050565b6000602082019050818103600083015261397a81613473565b9050919050565b6000602082019050818103600083015261399a81613496565b9050919050565b600060208201905081810360008301526139ba816134b9565b9050919050565b600060208201905081810360008301526139da816134dc565b9050919050565b600060208201905081810360008301526139fa816134ff565b9050919050565b60006020820190508181036000830152613a1a81613522565b9050919050565b60006020820190508181036000830152613a3a81613545565b9050919050565b60006020820190508181036000830152613a5a8161358b565b9050919050565b60006020820190508181036000830152613a7a816135ae565b9050919050565b60006020820190508181036000830152613a9a816135d1565b9050919050565b600060c082019050613ab660008301846135f4565b92915050565b6000602082019050613ad1600083018461367e565b92915050565b600060c082019050613aec600083018961367e565b613af96020830188613204565b613b066040830187613204565b613b13606083018661367e565b613b206080830185613231565b613b2d60a0830184613231565b979650505050505050565b6000613b42613b53565b9050613b4e8282613e1c565b919050565b6000604051905090565b600067ffffffffffffffff821115613b7857613b77613f54565b5b613b8182613f83565b9050602081019050919050565b600067ffffffffffffffff821115613ba957613ba8613f54565b5b613bb282613f83565b9050602081019050919050565b600081519050919050565b600081519050919050565b600082825260208201905092915050565b600081905092915050565b600082825260208201905092915050565b600081905092915050565b6000613c1882613d9e565b9150613c2383613d9e565b9250827fffffffffffffffffffffffffffffffffffffffffffffffffffffffffffffffff03821115613c5857613c57613ec7565b5b828201905092915050565b6000613c6e82613d9e565b9150613c7983613d9e565b925082613c8957613c88613ef6565b5b828204905092915050565b6000613c9f82613d9e565b9150613caa83613d9e565b9250817fffffffffffffffffffffffffffffffffffffffffffffffffffffffffffffffff0483118215151615613ce357613ce2613ec7565b5b828202905092915050565b6000613cf982613d9e565b9150613d0483613d9e565b925082821015613d1757613d16613ec7565b5b828203905092915050565b6000613d2d82613d7e565b9050919050565b6000613d3f82613d7e565b9050919050565b60008115159050919050565b60007fffffffff0000000000000000000000000000000000000000000000000000000082169050919050565b600073ffffffffffffffffffffffffffffffffffffffff82169050919050565b6000819050919050565b82818337600083830152505050565b60005b83811015613dd5578082015181840152602081019050613dba565b83811115613de4576000848401525b50505050565b60006002820490506001821680613e0257607f821691505b60208210811415613e1657613e15613f25565b5b50919050565b613e2582613f83565b810181811067ffffffffffffffff82111715613e4457613e43613f54565b5b80604052505050565b6000613e5882613d9e565b91507fffffffffffffffffffffffffffffffffffffffffffffffffffffffffffffffff821415613e8b57613e8a613ec7565b5b600182019050919050565b6000613ea182613d9e565b9150613eac83613d9e565b925082613ebc57613ebb613ef6565b5b828206905092915050565b7f4e487b7100000000000000000000000000000000000000000000000000000000600052601160045260246000fd5b7f4e487b7100000000000000000000000000000000000000000000000000000000600052601260045260246000fd5b7f4e487b7100000000000000000000000000000000000000000000000000000000600052602260045260246000fd5b7f4e487b7100000000000000000000000000000000000000000000000000000000600052604160045260246000fd5b6000601f19601f8301169050919050565b7f4e4654206973206e6f7420666f7220726573616c650000000000000000000000600082015250565b7f5072696365206d7573742062652067726561746572207468616e207a65726f00600082015250565b7f4552433732313a207472616e7366657220746f206e6f6e20455243373231526560008201527f63656976657220696d706c656d656e7465720000000000000000000000000000602082015250565b7f4f776e61626c653a206e6577206f776e657220697320746865207a65726f206160008201527f6464726573730000000000000000000000000000000000000000000000000000602082015250565b7f4552433732313a207472616e736665722066726f6d20696e636f72726563742060008201527f6f776e6572000000000000000000000000000000000000000000000000000000602082015250565b7f4552433732313a20746f6b656e20616c7265616479206d696e74656400000000600082015250565b7f56616c7565206d75737420626520657175616c20746f204e4654207072696365600082015250565b7f4552433732313a207472616e7366657220746f20746865207a65726f2061646460008201527f7265737300000000000000000000000000000000000000000000000000000000602082015250565b7f4552433732313a20617070726f766520746f2063616c6c657200000000000000600082015250565b7f204e465420697320666f7220726573616c650000000000000000000000000000600082015250565b7f4552433732313a2061646472657373207a65726f206973206e6f74206120766160008201527f6c6964206f776e65720000000000000000000000000000000000000000000000602082015250565b7f45524337323155524953746f726167653a2055524920736574206f66206e6f6e60008201527f6578697374656e7420746f6b656e000000000000000000000000000000000000602082015250565b7f4552433732313a20617070726f76652063616c6c6572206973206e6f7420746f60008201527f6b656e206f776e6572206e6f7220617070726f76656420666f7220616c6c0000602082015250565b7f4552433732313a206d696e7420746f20746865207a65726f2061646472657373600082015250565b7f4f776e61626c653a2063616c6c6572206973206e6f7420746865206f776e6572600082015250565b7f4f6e6c79206e6577204e4654206f776e65722043616e2052656c697374000000600082015250565b7f4552433732313a20696e76616c696420746f6b656e2049440000000000000000600082015250565b7f4552433732313a20617070726f76616c20746f2063757272656e74206f776e6560008201527f7200000000000000000000000000000000000000000000000000000000000000602082015250565b50565b7f43616e6e6f742073656e642076616c756520746f20746865206e6577204e465460008201527f206f776e65720000000000000000000000000000000000000000000000000000602082015250565b7f4552433732313a2063616c6c6572206973206e6f7420746f6b656e206f776e6560008201527f72206e6f7220617070726f766564000000000000000000000000000000000000602082015250565b7f43616e6e6f742073656e642076616c756520746f2074686520636f6e7472616360008201527f74206f776e657200000000000000000000000000000000000000000000000000602082015250565b61449f81613d22565b81146144aa57600080fd5b50565b6144b681613d46565b81146144c157600080fd5b50565b6144cd81613d52565b81146144d857600080fd5b50565b6144e481613d9e565b81146144ef57600080fd5b5056fea2646970667358221220994f70cfac440dd9f70a9853e2505065953264147e5ec037e70ed9eeaf3274f364736f6c63430008040033",
  "linkReferences": {},
  "deployedLinkReferences": {}
}