{
  "_format": "hh-sol-artifact-1",
  "contractName": "EduFundNFT",
  "sourceName": "contracts/EduFundNFT.sol",
  "abi": [
    {
      "inputs": [],
      "stateMutability": "nonpayable",
      "type": "constructor"
    },
    {
      "anonymous": false,
      "inputs": [
        {
          "indexed": true,
          "internalType": "address",
          "name": "owner",
          "type": "address"
        },
        {
          "indexed": true,
          "internalType": "address",
          "name": "approved",
          "type": "address"
        },
        {
          "indexed": true,
          "internalType": "uint256",
          "name": "tokenId",
          "type": "uint256"
        }
      ],
      "name": "Approval",
      "type": "event"
    },
    {
      "anonymous": false,
      "inputs": [
        {
          "indexed": true,
          "internalType": "address",
          "name": "owner",
          "type": "address"
        },
        {
          "indexed": true,
          "internalType": "address",
          "name": "operator",
          "type": "address"
        },
        {
          "indexed": false,
          "internalType": "bool",
          "name": "approved",
          "type": "bool"
        }
      ],
      "name": "ApprovalForAll",
      "type": "event"
    },
    {
      "anonymous": false,
      "inputs": [
        {
          "indexed": true,
          "internalType": "uint256",
          "name": "tokenId",
          "type": "uint256"
        },
        {
          "indexed": false,
          "internalType": "address payable",
          "name": "owner",
          "type": "address"
        },
        {
          "indexed": false,
          "internalType": "address payable",
          "name": "seller",
          "type": "address"
        },
        {
          "indexed": false,
          "internalType": "uint256",
          "name": "price",
          "type": "uint256"
        },
        {
          "indexed": false,
          "internalType": "bool",
          "name": "sold",
          "type": "bool"
        }
      ],
      "name": "FacilityCreated",
      "type": "event"
    },
    {
      "anonymous": false,
      "inputs": [
        {
          "indexed": true,
          "internalType": "address",
          "name": "previousOwner",
          "type": "address"
        },
        {
          "indexed": true,
          "internalType": "address",
          "name": "newOwner",
          "type": "address"
        }
      ],
      "name": "OwnershipTransferred",
      "type": "event"
    },
    {
      "anonymous": false,
      "inputs": [
        {
          "indexed": true,
          "internalType": "address",
          "name": "from",
          "type": "address"
        },
        {
          "indexed": true,
          "internalType": "address",
          "name": "to",
          "type": "address"
        },
        {
          "indexed": true,
          "internalType": "uint256",
          "name": "tokenId",
          "type": "uint256"
        }
      ],
      "name": "Transfer",
      "type": "event"
    },
    {
      "inputs": [
        {
          "internalType": "address",
          "name": "to",
          "type": "address"
        },
        {
          "internalType": "uint256",
          "name": "tokenId",
          "type": "uint256"
        }
      ],
      "name": "approve",
      "outputs": [],
      "stateMutability": "nonpayable",
      "type": "function"
    },
    {
      "inputs": [
        {
          "internalType": "address",
          "name": "owner",
          "type": "address"
        }
      ],
      "name": "balanceOf",
      "outputs": [
        {
          "internalType": "uint256",
          "name": "",
          "type": "uint256"
        }
      ],
      "stateMutability": "view",
      "type": "function"
    },
    {
      "inputs": [
        {
          "internalType": "uint256",
          "name": "_tokenId",
          "type": "uint256"
        }
      ],
      "name": "buyNFT_to_fund_Edu",
      "outputs": [],
      "stateMutability": "payable",
      "type": "function"
    },
    {
      "inputs": [
        {
          "internalType": "uint256",
          "name": "_listPrice",
          "type": "uint256"
        },
        {
          "internalType": "uint256",
          "name": "_tokenId",
          "type": "uint256"
        }
      ],
      "name": "changeNFTPrice",
      "outputs": [],
      "stateMutability": "payable",
      "type": "function"
    },
    {
      "inputs": [
        {
          "internalType": "string",
          "name": "_tokenURI",
          "type": "string"
        },
        {
          "internalType": "uint256",
          "name": "price",
          "type": "uint256"
        }
      ],
      "name": "createFacility",
      "outputs": [
        {
          "internalType": "uint256",
          "name": "",
          "type": "uint256"
        }
      ],
      "stateMutability": "payable",
      "type": "function"
    },
    {
      "inputs": [
        {
          "internalType": "uint256",
          "name": "tokenId",
          "type": "uint256"
        }
      ],
      "name": "getApproved",
      "outputs": [
        {
          "internalType": "address",
          "name": "",
          "type": "address"
        }
      ],
      "stateMutability": "view",
      "type": "function"
    },
    {
      "inputs": [
        {
          "internalType": "uint256",
          "name": "_tokenId",
          "type": "uint256"
        }
      ],
      "name": "getFacility",
      "outputs": [
        {
          "components": [
            {
              "internalType": "uint256",
              "name": "tokenId",
              "type": "uint256"
            },
            {
              "internalType": "address payable",
              "name": "owner",
              "type": "address"
            },
            {
              "internalType": "uint256",
              "name": "price",
              "type": "uint256"
            },
            {
              "internalType": "bool",
              "name": "hasBeenSoldBefore",
              "type": "bool"
            },
            {
              "internalType": "bool",
              "name": "sold",
              "type": "bool"
            }
          ],
          "internalType": "struct EduFundNFT.EduFacility",
          "name": "",
          "type": "tuple"
        }
      ],
      "stateMutability": "view",
      "type": "function"
    },
    {
      "inputs": [
        {
          "internalType": "uint256",
          "name": "_tokenId",
          "type": "uint256"
        }
      ],
      "name": "getTokenPrice",
      "outputs": [
        {
          "internalType": "uint256",
          "name": "",
          "type": "uint256"
        }
      ],
      "stateMutability": "view",
      "type": "function"
    },
    {
      "inputs": [],
      "name": "getTotalFacility",
      "outputs": [
        {
          "internalType": "uint256",
          "name": "",
          "type": "uint256"
        }
      ],
      "stateMutability": "view",
      "type": "function"
    },
    {
      "inputs": [
        {
          "internalType": "address",
          "name": "owner",
          "type": "address"
        },
        {
          "internalType": "address",
          "name": "operator",
          "type": "address"
        }
      ],
      "name": "isApprovedForAll",
      "outputs": [
        {
          "internalType": "bool",
          "name": "",
          "type": "bool"
        }
      ],
      "stateMutability": "view",
      "type": "function"
    },
    {
      "inputs": [],
      "name": "name",
      "outputs": [
        {
          "internalType": "string",
          "name": "",
          "type": "string"
        }
      ],
      "stateMutability": "view",
      "type": "function"
    },
    {
      "inputs": [
        {
          "internalType": "address",
          "name": "",
          "type": "address"
        },
        {
          "internalType": "address",
          "name": "",
          "type": "address"
        },
        {
          "internalType": "uint256",
          "name": "",
          "type": "uint256"
        },
        {
          "internalType": "bytes",
          "name": "",
          "type": "bytes"
        }
      ],
      "name": "onERC721Received",
      "outputs": [
        {
          "internalType": "bytes4",
          "name": "",
          "type": "bytes4"
        }
      ],
      "stateMutability": "pure",
      "type": "function"
    },
    {
      "inputs": [],
      "name": "owner",
      "outputs": [
        {
          "internalType": "address",
          "name": "",
          "type": "address"
        }
      ],
      "stateMutability": "view",
      "type": "function"
    },
    {
      "inputs": [
        {
          "internalType": "uint256",
          "name": "tokenId",
          "type": "uint256"
        }
      ],
      "name": "ownerOf",
      "outputs": [
        {
          "internalType": "address",
          "name": "",
          "type": "address"
        }
      ],
      "stateMutability": "view",
      "type": "function"
    },
    {
      "inputs": [
        {
          "internalType": "uint256",
          "name": "_tokenId",
          "type": "uint256"
        },
        {
          "internalType": "uint256",
          "name": "newPrice",
          "type": "uint256"
        }
      ],
      "name": "re_ListNFT",
      "outputs": [],
      "stateMutability": "nonpayable",
      "type": "function"
    },
    {
      "inputs": [],
      "name": "renounceOwnership",
      "outputs": [],
      "stateMutability": "nonpayable",
      "type": "function"
    },
    {
      "inputs": [
        {
          "internalType": "address",
          "name": "to",
          "type": "address"
        },
        {
          "internalType": "string",
          "name": "uri",
          "type": "string"
        }
      ],
      "name": "safeMint",
      "outputs": [],
      "stateMutability": "nonpayable",
      "type": "function"
    },
    {
      "inputs": [
        {
          "internalType": "address",
          "name": "from",
          "type": "address"
        },
        {
          "internalType": "address",
          "name": "to",
          "type": "address"
        },
        {
          "internalType": "uint256",
          "name": "tokenId",
          "type": "uint256"
        }
      ],
      "name": "safeTransferFrom",
      "outputs": [],
      "stateMutability": "nonpayable",
      "type": "function"
    },
    {
      "inputs": [
        {
          "internalType": "address",
          "name": "from",
          "type": "address"
        },
        {
          "internalType": "address",
          "name": "to",
          "type": "address"
        },
        {
          "internalType": "uint256",
          "name": "_tokenId",
          "type": "uint256"
        },
        {
          "internalType": "bytes",
          "name": "data",
          "type": "bytes"
        }
      ],
      "name": "safeTransferFrom",
      "outputs": [],
      "stateMutability": "nonpayable",
      "type": "function"
    },
    {
      "inputs": [
        {
          "internalType": "address",
          "name": "operator",
          "type": "address"
        },
        {
          "internalType": "bool",
          "name": "approved",
          "type": "bool"
        }
      ],
      "name": "setApprovalForAll",
      "outputs": [],
      "stateMutability": "nonpayable",
      "type": "function"
    },
    {
      "inputs": [
        {
          "internalType": "bytes4",
          "name": "interfaceId",
          "type": "bytes4"
        }
      ],
      "name": "supportsInterface",
      "outputs": [
        {
          "internalType": "bool",
          "name": "",
          "type": "bool"
        }
      ],
      "stateMutability": "view",
      "type": "function"
    },
    {
      "inputs": [],
      "name": "symbol",
      "outputs": [
        {
          "internalType": "string",
          "name": "",
          "type": "string"
        }
      ],
      "stateMutability": "view",
      "type": "function"
    },
    {
      "inputs": [
        {
          "internalType": "uint256",
          "name": "index",
          "type": "uint256"
        }
      ],
      "name": "tokenByIndex",
      "outputs": [
        {
          "internalType": "uint256",
          "name": "",
          "type": "uint256"
        }
      ],
      "stateMutability": "view",
      "type": "function"
    },
    {
      "inputs": [
        {
          "internalType": "address",
          "name": "owner",
          "type": "address"
        },
        {
          "internalType": "uint256",
          "name": "index",
          "type": "uint256"
        }
      ],
      "name": "tokenOfOwnerByIndex",
      "outputs": [
        {
          "internalType": "uint256",
          "name": "",
          "type": "uint256"
        }
      ],
      "stateMutability": "view",
      "type": "function"
    },
    {
      "inputs": [
        {
          "internalType": "uint256",
          "name": "tokenId",
          "type": "uint256"
        }
      ],
      "name": "tokenURI",
      "outputs": [
        {
          "internalType": "string",
          "name": "",
          "type": "string"
        }
      ],
      "stateMutability": "view",
      "type": "function"
    },
    {
      "inputs": [],
      "name": "totalSupply",
      "outputs": [
        {
          "internalType": "uint256",
          "name": "",
          "type": "uint256"
        }
      ],
      "stateMutability": "view",
      "type": "function"
    },
    {
      "inputs": [
        {
          "internalType": "address",
          "name": "from",
          "type": "address"
        },
        {
          "internalType": "address",
          "name": "to",
          "type": "address"
        },
        {
          "internalType": "uint256",
          "name": "tokenId",
          "type": "uint256"
        }
      ],
      "name": "transferFrom",
      "outputs": [],
      "stateMutability": "nonpayable",
      "type": "function"
    },
    {
      "inputs": [
        {
          "internalType": "address",
          "name": "newOwner",
          "type": "address"
        }
      ],
      "name": "transferOwnership",
      "outputs": [],
      "stateMutability": "nonpayable",
      "type": "function"
    }
  ],
  "bytecode": "0x60806040523480156200001157600080fd5b506040518060400160405280600a81526020017f45647546756e644e4654000000000000000000000000000000000000000000008152506040518060400160405280600581526020017f45464e4654000000000000000000000000000000000000000000000000000000815250816000908051906020019062000096929190620001a6565b508060019080519060200190620000af929190620001a6565b505050620000d2620000c6620000d860201b60201c565b620000e060201b60201c565b620002bb565b600033905090565b6000600b60009054906101000a900473ffffffffffffffffffffffffffffffffffffffff16905081600b60006101000a81548173ffffffffffffffffffffffffffffffffffffffff021916908373ffffffffffffffffffffffffffffffffffffffff1602179055508173ffffffffffffffffffffffffffffffffffffffff168173ffffffffffffffffffffffffffffffffffffffff167f8be0079c531659141344cd1fd0a4f28419497f9722a3daafe3b4186f6b6457e060405160405180910390a35050565b828054620001b49062000256565b90600052602060002090601f016020900481019282620001d8576000855562000224565b82601f10620001f357805160ff191683800117855562000224565b8280016001018555821562000224579182015b828111156200022357825182559160200191906001019062000206565b5b50905062000233919062000237565b5090565b5b808211156200025257600081600090555060010162000238565b5090565b600060028204905060018216806200026f57607f821691505b602082108114156200028657620002856200028c565b5b50919050565b7f4e487b7100000000000000000000000000000000000000000000000000000000600052602260045260246000fd5b61478a80620002cb6000396000f3fe6080604052600436106101b75760003560e01c806370a08231116100ec578063b88d4fde1161008a578063c87b56dd11610064578063c87b56dd1461062d578063d204c45e1461066a578063e985e9c514610693578063f2fde38b146106d0576101b7565b8063b88d4fde1461059c578063c457fb37146105c5578063c4bfbd9014610602576101b7565b80638da5cb5b116100c65780638da5cb5b146104ed57806395d89b411461051857806399dad95414610543578063a22cb46514610573576101b7565b806370a082311461045c578063715018a6146104995780638698fb32146104b0576101b7565b806323b872dd1161015957806342c691e91161013357806342c691e91461039d5780634f6ccce7146103b95780634f8e05a6146103f65780636352211e1461041f576101b7565b806323b872dd1461030e5780632f745c591461033757806342842e0e14610374576101b7565b8063095ea7b311610195578063095ea7b3146102615780630fd76c7c1461028a578063150b7a02146102a657806318160ddd146102e3576101b7565b806301ffc9a7146101bc57806306fdde03146101f9578063081812fc14610224575b600080fd5b3480156101c857600080fd5b506101e360048036038101906101de9190613261565b6106f9565b6040516101f09190613938565b60405180910390f35b34801561020557600080fd5b5061020e61070b565b60405161021b919061396e565b60405180910390f35b34801561023057600080fd5b5061024b6004803603810190610246919061331b565b61079d565b604051610258919061388c565b60405180910390f35b34801561026d57600080fd5b5061028860048036038101906102839190613221565b6107e3565b005b6102a4600480360381019061029f9190613348565b6108fb565b005b3480156102b257600080fd5b506102cd60048036038101906102c8919061307a565b610928565b6040516102da9190613953565b60405180910390f35b3480156102ef57600080fd5b506102f861093d565b6040516103059190613c8b565b60405180910390f35b34801561031a57600080fd5b5061033560048036038101906103309190613027565b61094a565b005b34801561034357600080fd5b5061035e60048036038101906103599190613221565b6109aa565b60405161036b9190613c8b565b60405180910390f35b34801561038057600080fd5b5061039b60048036038101906103969190613027565b610a4f565b005b6103b760048036038101906103b2919061331b565b610a6f565b005b3480156103c557600080fd5b506103e060048036038101906103db919061331b565b610e55565b6040516103ed9190613c8b565b60405180910390f35b34801561040257600080fd5b5061041d60048036038101906104189190613348565b610ec6565b005b34801561042b57600080fd5b506104466004803603810190610441919061331b565b61106d565b604051610453919061388c565b60405180910390f35b34801561046857600080fd5b50610483600480360381019061047e9190612fba565b61111f565b6040516104909190613c8b565b60405180910390f35b3480156104a557600080fd5b506104ae6111d7565b005b3480156104bc57600080fd5b506104d760048036038101906104d2919061331b565b6111eb565b6040516104e49190613c70565b60405180910390f35b3480156104f957600080fd5b506105026112b8565b60405161050f919061388c565b60405180910390f35b34801561052457600080fd5b5061052d6112e2565b60405161053a919061396e565b60405180910390f35b61055d600480360381019061055891906132bb565b611374565b60405161056a9190613c8b565b60405180910390f35b34801561057f57600080fd5b5061059a60048036038101906105959190613185565b6115b0565b005b3480156105a857600080fd5b506105c360048036038101906105be9190613102565b6115c6565b005b3480156105d157600080fd5b506105ec60048036038101906105e7919061331b565b61162d565b6040516105f99190613c8b565b60405180910390f35b34801561060e57600080fd5b50610617611652565b6040516106249190613c8b565b60405180910390f35b34801561063957600080fd5b50610654600480360381019061064f919061331b565b611663565b604051610661919061396e565b60405180910390f35b34801561067657600080fd5b50610691600480360381019061068c91906131c5565b611675565b005b34801561069f57600080fd5b506106ba60048036038101906106b59190612fe7565b6116ae565b6040516106c79190613938565b60405180910390f35b3480156106dc57600080fd5b506106f760048036038101906106f29190612fba565b611742565b005b6000610704826117c6565b9050919050565b60606000805461071a90613f58565b80601f016020809104026020016040519081016040528092919081815260200182805461074690613f58565b80156107935780601f1061076857610100808354040283529160200191610793565b820191906000526020600020905b81548152906001019060200180831161077657829003601f168201915b5050505050905090565b60006107a882611840565b6004600083815260200190815260200160002060009054906101000a900473ffffffffffffffffffffffffffffffffffffffff169050919050565b60006107ee8261106d565b90508073ffffffffffffffffffffffffffffffffffffffff168373ffffffffffffffffffffffffffffffffffffffff16141561085f576040517f08c379a000000000000000000000000000000000000000000000000000000000815260040161085690613b90565b60405180910390fd5b8073ffffffffffffffffffffffffffffffffffffffff1661087e61188b565b73ffffffffffffffffffffffffffffffffffffffff1614806108ad57506108ac816108a761188b565b6116ae565b5b6108ec576040517f08c379a00000000000000000000000000000000000000000000000000000000081526004016108e390613ad0565b60405180910390fd5b6108f68383611893565b505050565b61090361194c565b6000600d60008381526020019081526020016000209050828160020181905550505050565b600063150b7a0260e01b905095945050505050565b6000600980549050905090565b61095b61095561188b565b826119ca565b61099a576040517f08c379a000000000000000000000000000000000000000000000000000000000815260040161099190613c30565b60405180910390fd5b6109a5838383611a5f565b505050565b60006109b58361111f565b82106109f6576040517f08c379a00000000000000000000000000000000000000000000000000000000081526004016109ed90613990565b60405180910390fd5b600760008473ffffffffffffffffffffffffffffffffffffffff1673ffffffffffffffffffffffffffffffffffffffff168152602001908152602001600020600083815260200190815260200160002054905092915050565b610a6a838383604051806020016040528060008152506115c6565b505050565b6000600d6000838152602001908152602001600020905060008160020154905060008260010160009054906101000a900473ffffffffffffffffffffffffffffffffffffffff16905081341015610afb576040517f08c379a0000000000000000000000000000000000000000000000000000000008152600401610af290613bf0565b60405180910390fd5b600015158360030160019054906101000a900460ff16151514610b53576040517f08c379a0000000000000000000000000000000000000000000000000000000008152600401610b4a90613c50565b60405180910390fd5b600015158360030160009054906101000a900460ff1615151415610c3557610b7c303386610a4f565b6000610b866112b8565b73ffffffffffffffffffffffffffffffffffffffff1634604051610ba990613877565b60006040518083038185875af1925050503d8060008114610be6576040519150601f19603f3d011682016040523d82523d6000602084013e610beb565b606091505b5050905080610c2f576040517f08c379a0000000000000000000000000000000000000000000000000000000008152600401610c2690613bd0565b60405180910390fd5b50610dd2565b610c40303386610a4f565b60008173ffffffffffffffffffffffffffffffffffffffff166064601e34610c689190613e02565b610c729190613dd1565b604051610c7e90613877565b60006040518083038185875af1925050503d8060008114610cbb576040519150601f19603f3d011682016040523d82523d6000602084013e610cc0565b606091505b5050905080610d04576040517f08c379a0000000000000000000000000000000000000000000000000000000008152600401610cfb90613c10565b60405180910390fd5b6000610d0e6112b8565b73ffffffffffffffffffffffffffffffffffffffff166064604634610d339190613e02565b610d3d9190613dd1565b604051610d4990613877565b60006040518083038185875af1925050503d8060008114610d86576040519150601f19603f3d011682016040523d82523d6000602084013e610d8b565b606091505b5050905080610dcf576040517f08c379a0000000000000000000000000000000000000000000000000000000008152600401610dc690613b50565b60405180910390fd5b50505b60018360030160006101000a81548160ff02191690831515021790555060018360030160016101000a81548160ff021916908315150217905550338360010160006101000a81548173ffffffffffffffffffffffffffffffffffffffff021916908373ffffffffffffffffffffffffffffffffffffffff16021790555050505050565b6000610e5f61093d565b8210610ea0576040517f08c379a0000000000000000000000000000000000000000000000000000000008152600401610e9790613bb0565b60405180910390fd5b60098281548110610eb457610eb36140f1565b5b90600052602060002001549050919050565b816000600d600083815260200190815260200160002090503373ffffffffffffffffffffffffffffffffffffffff16600d600084815260200190815260200160002060010160009054906101000a900473ffffffffffffffffffffffffffffffffffffffff1673ffffffffffffffffffffffffffffffffffffffff16148015610f76575060011515600d600084815260200190815260200160002060030160009054906101000a900460ff161515145b610fb5576040517f08c379a0000000000000000000000000000000000000000000000000000000008152600401610fac90613b30565b60405180910390fd5b6000600d60008681526020019081526020016000209050838160020181905550610fe0333087610a4f565b60008160030160016101000a81548160ff021916908315150217905550338160010160006101000a81548173ffffffffffffffffffffffffffffffffffffffff021916908373ffffffffffffffffffffffffffffffffffffffff16021790555083816002018190555060018160030160006101000a81548160ff0219169083151502179055505050505050565b6000806002600084815260200190815260200160002060009054906101000a900473ffffffffffffffffffffffffffffffffffffffff169050600073ffffffffffffffffffffffffffffffffffffffff168173ffffffffffffffffffffffffffffffffffffffff161415611116576040517f08c379a000000000000000000000000000000000000000000000000000000000815260040161110d90613b70565b60405180910390fd5b80915050919050565b60008073ffffffffffffffffffffffffffffffffffffffff168273ffffffffffffffffffffffffffffffffffffffff161415611190576040517f08c379a000000000000000000000000000000000000000000000000000000000815260040161118790613a90565b60405180910390fd5b600360008373ffffffffffffffffffffffffffffffffffffffff1673ffffffffffffffffffffffffffffffffffffffff168152602001908152602001600020549050919050565b6111df61194c565b6111e96000611cc6565b565b6111f3612cd9565b600d60008381526020019081526020016000206040518060a0016040529081600082015481526020016001820160009054906101000a900473ffffffffffffffffffffffffffffffffffffffff1673ffffffffffffffffffffffffffffffffffffffff1673ffffffffffffffffffffffffffffffffffffffff168152602001600282015481526020016003820160009054906101000a900460ff161515151581526020016003820160019054906101000a900460ff1615151515815250509050919050565b6000600b60009054906101000a900473ffffffffffffffffffffffffffffffffffffffff16905090565b6060600180546112f190613f58565b80601f016020809104026020016040519081016040528092919081815260200182805461131d90613f58565b801561136a5780601f1061133f5761010080835404028352916020019161136a565b820191906000526020600020905b81548152906001019060200180831161134d57829003601f168201915b5050505050905090565b600061137e61194c565b600082116113c1576040517f08c379a00000000000000000000000000000000000000000000000000000000081526004016113b8906139b0565b60405180910390fd5b6113cb600c611d8c565b60006113d7600c611da2565b90506113e33382611db0565b6114318186868080601f016020809104026020016040519081016040528093929190818152602001838380828437600081840152601f19601f82011690508083019250505050505050611dce565b6040518060a001604052808281526020013373ffffffffffffffffffffffffffffffffffffffff16815260200184815260200160001515815260200160001515815250600d60008381526020019081526020016000206000820151816000015560208201518160010160006101000a81548173ffffffffffffffffffffffffffffffffffffffff021916908373ffffffffffffffffffffffffffffffffffffffff1602179055506040820151816002015560608201518160030160006101000a81548160ff02191690831515021790555060808201518160030160016101000a81548160ff021916908315150217905550905050611566600d600083815260200190815260200160002060010160009054906101000a900473ffffffffffffffffffffffffffffffffffffffff163083610a4f565b807f0bf718aa63f641b3cd55a8b6dc138207634e87116e1422763a5715d89a8a97cd333386600060405161159d94939291906138a7565b60405180910390a2809150509392505050565b6115c26115bb61188b565b8383611e42565b5050565b82600d600084815260200190815260200160002060010160006101000a81548173ffffffffffffffffffffffffffffffffffffffff021916908373ffffffffffffffffffffffffffffffffffffffff16021790555061162784848484611faf565b50505050565b600080600d600084815260200190815260200160002090508060020154915050919050565b600061165e600c611da2565b905090565b606061166e8261200b565b9050919050565b61167d61194c565b6000611689600c611da2565b9050611695600c611d8c565b61169f8382611db0565b6116a98183611dce565b505050565b6000600560008473ffffffffffffffffffffffffffffffffffffffff1673ffffffffffffffffffffffffffffffffffffffff16815260200190815260200160002060008373ffffffffffffffffffffffffffffffffffffffff1673ffffffffffffffffffffffffffffffffffffffff16815260200190815260200160002060009054906101000a900460ff16905092915050565b61174a61194c565b600073ffffffffffffffffffffffffffffffffffffffff168173ffffffffffffffffffffffffffffffffffffffff1614156117ba576040517f08c379a00000000000000000000000000000000000000000000000000000000081526004016117b1906139f0565b60405180910390fd5b6117c381611cc6565b50565b60007f780e9d63000000000000000000000000000000000000000000000000000000007bffffffffffffffffffffffffffffffffffffffffffffffffffffffff1916827bffffffffffffffffffffffffffffffffffffffffffffffffffffffff1916148061183957506118388261211e565b5b9050919050565b61184981612200565b611888576040517f08c379a000000000000000000000000000000000000000000000000000000000815260040161187f90613b70565b60405180910390fd5b50565b600033905090565b816004600083815260200190815260200160002060006101000a81548173ffffffffffffffffffffffffffffffffffffffff021916908373ffffffffffffffffffffffffffffffffffffffff160217905550808273ffffffffffffffffffffffffffffffffffffffff166119068361106d565b73ffffffffffffffffffffffffffffffffffffffff167f8c5be1e5ebec7d5bd14f71427d1e84f3dd0314c0f7b2291e5b200ac8c7c3b92560405160405180910390a45050565b61195461188b565b73ffffffffffffffffffffffffffffffffffffffff166119726112b8565b73ffffffffffffffffffffffffffffffffffffffff16146119c8576040517f08c379a00000000000000000000000000000000000000000000000000000000081526004016119bf90613b10565b60405180910390fd5b565b6000806119d68361106d565b90508073ffffffffffffffffffffffffffffffffffffffff168473ffffffffffffffffffffffffffffffffffffffff161480611a185750611a1781856116ae565b5b80611a5657508373ffffffffffffffffffffffffffffffffffffffff16611a3e8461079d565b73ffffffffffffffffffffffffffffffffffffffff16145b91505092915050565b8273ffffffffffffffffffffffffffffffffffffffff16611a7f8261106d565b73ffffffffffffffffffffffffffffffffffffffff1614611ad5576040517f08c379a0000000000000000000000000000000000000000000000000000000008152600401611acc90613a10565b60405180910390fd5b600073ffffffffffffffffffffffffffffffffffffffff168273ffffffffffffffffffffffffffffffffffffffff161415611b45576040517f08c379a0000000000000000000000000000000000000000000000000000000008152600401611b3c90613a50565b60405180910390fd5b611b5083838361226c565b611b5b600082611893565b6001600360008573ffffffffffffffffffffffffffffffffffffffff1673ffffffffffffffffffffffffffffffffffffffff1681526020019081526020016000206000828254611bab9190613e5c565b925050819055506001600360008473ffffffffffffffffffffffffffffffffffffffff1673ffffffffffffffffffffffffffffffffffffffff1681526020019081526020016000206000828254611c029190613d7b565b92505081905550816002600083815260200190815260200160002060006101000a81548173ffffffffffffffffffffffffffffffffffffffff021916908373ffffffffffffffffffffffffffffffffffffffff160217905550808273ffffffffffffffffffffffffffffffffffffffff168473ffffffffffffffffffffffffffffffffffffffff167fddf252ad1be2c89b69c2b068fc378daa952ba7f163c4a11628f55a4df523b3ef60405160405180910390a4611cc183838361227c565b505050565b6000600b60009054906101000a900473ffffffffffffffffffffffffffffffffffffffff16905081600b60006101000a81548173ffffffffffffffffffffffffffffffffffffffff021916908373ffffffffffffffffffffffffffffffffffffffff1602179055508173ffffffffffffffffffffffffffffffffffffffff168173ffffffffffffffffffffffffffffffffffffffff167f8be0079c531659141344cd1fd0a4f28419497f9722a3daafe3b4186f6b6457e060405160405180910390a35050565b6001816000016000828254019250508190555050565b600081600001549050919050565b611dca828260405180602001604052806000815250612281565b5050565b611dd782612200565b611e16576040517f08c379a0000000000000000000000000000000000000000000000000000000008152600401611e0d90613ab0565b60405180910390fd5b80600660008481526020019081526020016000209080519060200190611e3d929190612d22565b505050565b8173ffffffffffffffffffffffffffffffffffffffff168373ffffffffffffffffffffffffffffffffffffffff161415611eb1576040517f08c379a0000000000000000000000000000000000000000000000000000000008152600401611ea890613a70565b60405180910390fd5b80600560008573ffffffffffffffffffffffffffffffffffffffff1673ffffffffffffffffffffffffffffffffffffffff16815260200190815260200160002060008473ffffffffffffffffffffffffffffffffffffffff1673ffffffffffffffffffffffffffffffffffffffff16815260200190815260200160002060006101000a81548160ff0219169083151502179055508173ffffffffffffffffffffffffffffffffffffffff168373ffffffffffffffffffffffffffffffffffffffff167f17307eab39ab6107e8899845ad3d59bd9653f200f220920489ca2b5937696c3183604051611fa29190613938565b60405180910390a3505050565b611fba848484611a5f565b611fc6848484846122dc565b612005576040517f08c379a0000000000000000000000000000000000000000000000000000000008152600401611ffc906139d0565b60405180910390fd5b50505050565b606061201682611840565b600060066000848152602001908152602001600020805461203690613f58565b80601f016020809104026020016040519081016040528092919081815260200182805461206290613f58565b80156120af5780601f10612084576101008083540402835291602001916120af565b820191906000526020600020905b81548152906001019060200180831161209257829003601f168201915b5050505050905060006120c0612473565b90506000815114156120d6578192505050612119565b60008251111561210b5780826040516020016120f3929190613853565b60405160208183030381529060405292505050612119565b6121148461248a565b925050505b919050565b60007f80ac58cd000000000000000000000000000000000000000000000000000000007bffffffffffffffffffffffffffffffffffffffffffffffffffffffff1916827bffffffffffffffffffffffffffffffffffffffffffffffffffffffff191614806121e957507f5b5e139f000000000000000000000000000000000000000000000000000000007bffffffffffffffffffffffffffffffffffffffffffffffffffffffff1916827bffffffffffffffffffffffffffffffffffffffffffffffffffffffff1916145b806121f957506121f8826124f2565b5b9050919050565b60008073ffffffffffffffffffffffffffffffffffffffff166002600084815260200190815260200160002060009054906101000a900473ffffffffffffffffffffffffffffffffffffffff1673ffffffffffffffffffffffffffffffffffffffff1614159050919050565b61227783838361255c565b505050565b505050565b61228b8383612670565b61229860008484846122dc565b6122d7576040517f08c379a00000000000000000000000000000000000000000000000000000000081526004016122ce906139d0565b60405180910390fd5b505050565b60006122fd8473ffffffffffffffffffffffffffffffffffffffff1661284a565b15612466578373ffffffffffffffffffffffffffffffffffffffff1663150b7a0261232661188b565b8786866040518563ffffffff1660e01b815260040161234894939291906138ec565b602060405180830381600087803b15801561236257600080fd5b505af192505050801561239357506040513d601f19601f82011682018060405250810190612390919061328e565b60015b612416573d80600081146123c3576040519150601f19603f3d011682016040523d82523d6000602084013e6123c8565b606091505b5060008151141561240e576040517f08c379a0000000000000000000000000000000000000000000000000000000008152600401612405906139d0565b60405180910390fd5b805181602001fd5b63150b7a0260e01b7bffffffffffffffffffffffffffffffffffffffffffffffffffffffff1916817bffffffffffffffffffffffffffffffffffffffffffffffffffffffff19161491505061246b565b600190505b949350505050565b606060405180602001604052806000815250905090565b606061249582611840565b600061249f612473565b905060008151116124bf57604051806020016040528060008152506124ea565b806124c98461286d565b6040516020016124da929190613853565b6040516020818303038152906040525b915050919050565b60007f01ffc9a7000000000000000000000000000000000000000000000000000000007bffffffffffffffffffffffffffffffffffffffffffffffffffffffff1916827bffffffffffffffffffffffffffffffffffffffffffffffffffffffff1916149050919050565b6125678383836129ce565b600073ffffffffffffffffffffffffffffffffffffffff168373ffffffffffffffffffffffffffffffffffffffff1614156125aa576125a5816129d3565b6125e9565b8173ffffffffffffffffffffffffffffffffffffffff168373ffffffffffffffffffffffffffffffffffffffff16146125e8576125e78382612a1c565b5b5b600073ffffffffffffffffffffffffffffffffffffffff168273ffffffffffffffffffffffffffffffffffffffff16141561262c5761262781612b89565b61266b565b8273ffffffffffffffffffffffffffffffffffffffff168273ffffffffffffffffffffffffffffffffffffffff161461266a576126698282612c5a565b5b5b505050565b600073ffffffffffffffffffffffffffffffffffffffff168273ffffffffffffffffffffffffffffffffffffffff1614156126e0576040517f08c379a00000000000000000000000000000000000000000000000000000000081526004016126d790613af0565b60405180910390fd5b6126e981612200565b15612729576040517f08c379a000000000000000000000000000000000000000000000000000000000815260040161272090613a30565b60405180910390fd5b6127356000838361226c565b6001600360008473ffffffffffffffffffffffffffffffffffffffff1673ffffffffffffffffffffffffffffffffffffffff16815260200190815260200160002060008282546127859190613d7b565b92505081905550816002600083815260200190815260200160002060006101000a81548173ffffffffffffffffffffffffffffffffffffffff021916908373ffffffffffffffffffffffffffffffffffffffff160217905550808273ffffffffffffffffffffffffffffffffffffffff16600073ffffffffffffffffffffffffffffffffffffffff167fddf252ad1be2c89b69c2b068fc378daa952ba7f163c4a11628f55a4df523b3ef60405160405180910390a46128466000838361227c565b5050565b6000808273ffffffffffffffffffffffffffffffffffffffff163b119050919050565b606060008214156128b5576040518060400160405280600181526020017f300000000000000000000000000000000000000000000000000000000000000081525090506129c9565b600082905060005b600082146128e75780806128d090613fbb565b915050600a826128e09190613dd1565b91506128bd565b60008167ffffffffffffffff81111561290357612902614120565b5b6040519080825280601f01601f1916602001820160405280156129355781602001600182028036833780820191505090505b5090505b600085146129c25760018261294e9190613e5c565b9150600a8561295d9190614004565b60306129699190613d7b565b60f81b81838151811061297f5761297e6140f1565b5b60200101907effffffffffffffffffffffffffffffffffffffffffffffffffffffffffffff1916908160001a905350600a856129bb9190613dd1565b9450612939565b8093505050505b919050565b505050565b600980549050600a600083815260200190815260200160002081905550600981908060018154018082558091505060019003906000526020600020016000909190919091505550565b60006001612a298461111f565b612a339190613e5c565b9050600060086000848152602001908152602001600020549050818114612b18576000600760008673ffffffffffffffffffffffffffffffffffffffff1673ffffffffffffffffffffffffffffffffffffffff168152602001908152602001600020600084815260200190815260200160002054905080600760008773ffffffffffffffffffffffffffffffffffffffff1673ffffffffffffffffffffffffffffffffffffffff168152602001908152602001600020600084815260200190815260200160002081905550816008600083815260200190815260200160002081905550505b6008600084815260200190815260200160002060009055600760008573ffffffffffffffffffffffffffffffffffffffff1673ffffffffffffffffffffffffffffffffffffffff16815260200190815260200160002060008381526020019081526020016000206000905550505050565b60006001600980549050612b9d9190613e5c565b90506000600a6000848152602001908152602001600020549050600060098381548110612bcd57612bcc6140f1565b5b906000526020600020015490508060098381548110612bef57612bee6140f1565b5b906000526020600020018190555081600a600083815260200190815260200160002081905550600a6000858152602001908152602001600020600090556009805480612c3e57612c3d6140c2565b5b6001900381819060005260206000200160009055905550505050565b6000612c658361111f565b905081600760008573ffffffffffffffffffffffffffffffffffffffff1673ffffffffffffffffffffffffffffffffffffffff168152602001908152602001600020600083815260200190815260200160002081905550806008600084815260200190815260200160002081905550505050565b6040518060a0016040528060008152602001600073ffffffffffffffffffffffffffffffffffffffff168152602001600081526020016000151581526020016000151581525090565b828054612d2e90613f58565b90600052602060002090601f016020900481019282612d505760008555612d97565b82601f10612d6957805160ff1916838001178555612d97565b82800160010185558215612d97579182015b82811115612d96578251825591602001919060010190612d7b565b5b509050612da49190612da8565b5090565b5b80821115612dc1576000816000905550600101612da9565b5090565b6000612dd8612dd384613ccb565b613ca6565b905082815260208101848484011115612df457612df361415e565b5b612dff848285613f16565b509392505050565b6000612e1a612e1584613cfc565b613ca6565b905082815260208101848484011115612e3657612e3561415e565b5b612e41848285613f16565b509392505050565b600081359050612e58816146f8565b92915050565b600081359050612e6d8161470f565b92915050565b600081359050612e8281614726565b92915050565b600081519050612e9781614726565b92915050565b60008083601f840112612eb357612eb2614154565b5b8235905067ffffffffffffffff811115612ed057612ecf61414f565b5b602083019150836001820283011115612eec57612eeb614159565b5b9250929050565b600082601f830112612f0857612f07614154565b5b8135612f18848260208601612dc5565b91505092915050565b60008083601f840112612f3757612f36614154565b5b8235905067ffffffffffffffff811115612f5457612f5361414f565b5b602083019150836001820283011115612f7057612f6f614159565b5b9250929050565b600082601f830112612f8c57612f8b614154565b5b8135612f9c848260208601612e07565b91505092915050565b600081359050612fb48161473d565b92915050565b600060208284031215612fd057612fcf614168565b5b6000612fde84828501612e49565b91505092915050565b60008060408385031215612ffe57612ffd614168565b5b600061300c85828601612e49565b925050602061301d85828601612e49565b9150509250929050565b6000806000606084860312156130405761303f614168565b5b600061304e86828701612e49565b935050602061305f86828701612e49565b925050604061307086828701612fa5565b9150509250925092565b60008060008060006080868803121561309657613095614168565b5b60006130a488828901612e49565b95505060206130b588828901612e49565b94505060406130c688828901612fa5565b935050606086013567ffffffffffffffff8111156130e7576130e6614163565b5b6130f388828901612e9d565b92509250509295509295909350565b6000806000806080858703121561311c5761311b614168565b5b600061312a87828801612e49565b945050602061313b87828801612e49565b935050604061314c87828801612fa5565b925050606085013567ffffffffffffffff81111561316d5761316c614163565b5b61317987828801612ef3565b91505092959194509250565b6000806040838503121561319c5761319b614168565b5b60006131aa85828601612e49565b92505060206131bb85828601612e5e565b9150509250929050565b600080604083850312156131dc576131db614168565b5b60006131ea85828601612e49565b925050602083013567ffffffffffffffff81111561320b5761320a614163565b5b61321785828601612f77565b9150509250929050565b6000806040838503121561323857613237614168565b5b600061324685828601612e49565b925050602061325785828601612fa5565b9150509250929050565b60006020828403121561327757613276614168565b5b600061328584828501612e73565b91505092915050565b6000602082840312156132a4576132a3614168565b5b60006132b284828501612e88565b91505092915050565b6000806000604084860312156132d4576132d3614168565b5b600084013567ffffffffffffffff8111156132f2576132f1614163565b5b6132fe86828701612f21565b9350935050602061331186828701612fa5565b9150509250925092565b60006020828403121561333157613330614168565b5b600061333f84828501612fa5565b91505092915050565b6000806040838503121561335f5761335e614168565b5b600061336d85828601612fa5565b925050602061337e85828601612fa5565b9150509250929050565b61339181613ea2565b82525050565b6133a081613ea2565b82525050565b6133af81613e90565b82525050565b6133be81613eb4565b82525050565b6133cd81613eb4565b82525050565b6133dc81613ec0565b82525050565b60006133ed82613d2d565b6133f78185613d43565b9350613407818560208601613f25565b6134108161416d565b840191505092915050565b600061342682613d38565b6134308185613d5f565b9350613440818560208601613f25565b6134498161416d565b840191505092915050565b600061345f82613d38565b6134698185613d70565b9350613479818560208601613f25565b80840191505092915050565b6000613492602b83613d5f565b915061349d8261417e565b604082019050919050565b60006134b5601f83613d5f565b91506134c0826141cd565b602082019050919050565b60006134d8603283613d5f565b91506134e3826141f6565b604082019050919050565b60006134fb602683613d5f565b915061350682614245565b604082019050919050565b600061351e602583613d5f565b915061352982614294565b604082019050919050565b6000613541601c83613d5f565b915061354c826142e3565b602082019050919050565b6000613564602483613d5f565b915061356f8261430c565b604082019050919050565b6000613587601983613d5f565b91506135928261435b565b602082019050919050565b60006135aa602983613d5f565b91506135b582614384565b604082019050919050565b60006135cd602e83613d5f565b91506135d8826143d3565b604082019050919050565b60006135f0603e83613d5f565b91506135fb82614422565b604082019050919050565b6000613613602083613d5f565b915061361e82614471565b602082019050919050565b6000613636602083613d5f565b91506136418261449a565b602082019050919050565b6000613659601d83613d5f565b9150613664826144c3565b602082019050919050565b600061367c601183613d5f565b9150613687826144ec565b602082019050919050565b600061369f601883613d5f565b91506136aa82614515565b602082019050919050565b60006136c2602183613d5f565b91506136cd8261453e565b604082019050919050565b60006136e5600083613d54565b91506136f08261458d565b600082019050919050565b6000613708602c83613d5f565b915061371382614590565b604082019050919050565b600061372b601183613d5f565b9150613736826145df565b602082019050919050565b600061374e603083613d5f565b915061375982614608565b604082019050919050565b6000613771601183613d5f565b915061377c82614657565b602082019050919050565b6000613794602e83613d5f565b915061379f82614680565b604082019050919050565b60006137b7601483613d5f565b91506137c2826146cf565b602082019050919050565b60a0820160008201516137e36000850182613835565b5060208201516137f66020850182613388565b5060408201516138096040850182613835565b50606082015161381c60608501826133b5565b50608082015161382f60808501826133b5565b50505050565b61383e81613f0c565b82525050565b61384d81613f0c565b82525050565b600061385f8285613454565b915061386b8284613454565b91508190509392505050565b6000613882826136d8565b9150819050919050565b60006020820190506138a160008301846133a6565b92915050565b60006080820190506138bc6000830187613397565b6138c96020830186613397565b6138d66040830185613844565b6138e360608301846133c4565b95945050505050565b600060808201905061390160008301876133a6565b61390e60208301866133a6565b61391b6040830185613844565b818103606083015261392d81846133e2565b905095945050505050565b600060208201905061394d60008301846133c4565b92915050565b600060208201905061396860008301846133d3565b92915050565b60006020820190508181036000830152613988818461341b565b905092915050565b600060208201905081810360008301526139a981613485565b9050919050565b600060208201905081810360008301526139c9816134a8565b9050919050565b600060208201905081810360008301526139e9816134cb565b9050919050565b60006020820190508181036000830152613a09816134ee565b9050919050565b60006020820190508181036000830152613a2981613511565b9050919050565b60006020820190508181036000830152613a4981613534565b9050919050565b60006020820190508181036000830152613a6981613557565b9050919050565b60006020820190508181036000830152613a898161357a565b9050919050565b60006020820190508181036000830152613aa98161359d565b9050919050565b60006020820190508181036000830152613ac9816135c0565b9050919050565b60006020820190508181036000830152613ae9816135e3565b9050919050565b60006020820190508181036000830152613b0981613606565b9050919050565b60006020820190508181036000830152613b2981613629565b9050919050565b60006020820190508181036000830152613b498161364c565b9050919050565b60006020820190508181036000830152613b698161366f565b9050919050565b60006020820190508181036000830152613b8981613692565b9050919050565b60006020820190508181036000830152613ba9816136b5565b9050919050565b60006020820190508181036000830152613bc9816136fb565b9050919050565b60006020820190508181036000830152613be98161371e565b9050919050565b60006020820190508181036000830152613c0981613741565b9050919050565b60006020820190508181036000830152613c2981613764565b9050919050565b60006020820190508181036000830152613c4981613787565b9050919050565b60006020820190508181036000830152613c69816137aa565b9050919050565b600060a082019050613c8560008301846137cd565b92915050565b6000602082019050613ca06000830184613844565b92915050565b6000613cb0613cc1565b9050613cbc8282613f8a565b919050565b6000604051905090565b600067ffffffffffffffff821115613ce657613ce5614120565b5b613cef8261416d565b9050602081019050919050565b600067ffffffffffffffff821115613d1757613d16614120565b5b613d208261416d565b9050602081019050919050565b600081519050919050565b600081519050919050565b600082825260208201905092915050565b600081905092915050565b600082825260208201905092915050565b600081905092915050565b6000613d8682613f0c565b9150613d9183613f0c565b9250827fffffffffffffffffffffffffffffffffffffffffffffffffffffffffffffffff03821115613dc657613dc5614035565b5b828201905092915050565b6000613ddc82613f0c565b9150613de783613f0c565b925082613df757613df6614064565b5b828204905092915050565b6000613e0d82613f0c565b9150613e1883613f0c565b9250817fffffffffffffffffffffffffffffffffffffffffffffffffffffffffffffffff0483118215151615613e5157613e50614035565b5b828202905092915050565b6000613e6782613f0c565b9150613e7283613f0c565b925082821015613e8557613e84614035565b5b828203905092915050565b6000613e9b82613eec565b9050919050565b6000613ead82613eec565b9050919050565b60008115159050919050565b60007fffffffff0000000000000000000000000000000000000000000000000000000082169050919050565b600073ffffffffffffffffffffffffffffffffffffffff82169050919050565b6000819050919050565b82818337600083830152505050565b60005b83811015613f43578082015181840152602081019050613f28565b83811115613f52576000848401525b50505050565b60006002820490506001821680613f7057607f821691505b60208210811415613f8457613f83614093565b5b50919050565b613f938261416d565b810181811067ffffffffffffffff82111715613fb257613fb1614120565b5b80604052505050565b6000613fc682613f0c565b91507fffffffffffffffffffffffffffffffffffffffffffffffffffffffffffffffff821415613ff957613ff8614035565b5b600182019050919050565b600061400f82613f0c565b915061401a83613f0c565b92508261402a57614029614064565b5b828206905092915050565b7f4e487b7100000000000000000000000000000000000000000000000000000000600052601160045260246000fd5b7f4e487b7100000000000000000000000000000000000000000000000000000000600052601260045260246000fd5b7f4e487b7100000000000000000000000000000000000000000000000000000000600052602260045260246000fd5b7f4e487b7100000000000000000000000000000000000000000000000000000000600052603160045260246000fd5b7f4e487b7100000000000000000000000000000000000000000000000000000000600052603260045260246000fd5b7f4e487b7100000000000000000000000000000000000000000000000000000000600052604160045260246000fd5b600080fd5b600080fd5b600080fd5b600080fd5b600080fd5b600080fd5b6000601f19601f8301169050919050565b7f455243373231456e756d657261626c653a206f776e657220696e646578206f7560008201527f74206f6620626f756e6473000000000000000000000000000000000000000000602082015250565b7f5072696365206d7573742062652067726561746572207468616e207a65726f00600082015250565b7f4552433732313a207472616e7366657220746f206e6f6e20455243373231526560008201527f63656976657220696d706c656d656e7465720000000000000000000000000000602082015250565b7f4f776e61626c653a206e6577206f776e657220697320746865207a65726f206160008201527f6464726573730000000000000000000000000000000000000000000000000000602082015250565b7f4552433732313a207472616e736665722066726f6d20696e636f72726563742060008201527f6f776e6572000000000000000000000000000000000000000000000000000000602082015250565b7f4552433732313a20746f6b656e20616c7265616479206d696e74656400000000600082015250565b7f4552433732313a207472616e7366657220746f20746865207a65726f2061646460008201527f7265737300000000000000000000000000000000000000000000000000000000602082015250565b7f4552433732313a20617070726f766520746f2063616c6c657200000000000000600082015250565b7f4552433732313a2061646472657373207a65726f206973206e6f74206120766160008201527f6c6964206f776e65720000000000000000000000000000000000000000000000602082015250565b7f45524337323155524953746f726167653a2055524920736574206f66206e6f6e60008201527f6578697374656e7420746f6b656e000000000000000000000000000000000000602082015250565b7f4552433732313a20617070726f76652063616c6c6572206973206e6f7420746f60008201527f6b656e206f776e6572206e6f7220617070726f76656420666f7220616c6c0000602082015250565b7f4552433732313a206d696e7420746f20746865207a65726f2061646472657373600082015250565b7f4f776e61626c653a2063616c6c6572206973206e6f7420746865206f776e6572600082015250565b7f4f6e6c79206e6577204e4654206f776e65722043616e2052656c697374000000600082015250565b7f5472616e73666572206661696c65642033000000000000000000000000000000600082015250565b7f4552433732313a20696e76616c696420746f6b656e2049440000000000000000600082015250565b7f4552433732313a20617070726f76616c20746f2063757272656e74206f776e6560008201527f7200000000000000000000000000000000000000000000000000000000000000602082015250565b50565b7f455243373231456e756d657261626c653a20676c6f62616c20696e646578206f60008201527f7574206f6620626f756e64730000000000000000000000000000000000000000602082015250565b7f5472616e73666572206661696c65642031000000000000000000000000000000600082015250565b7f56616c7565206d75737420626520657175616c20746f206f722067726561746560008201527f72207468616e204e465420707269636500000000000000000000000000000000602082015250565b7f5472616e73666572206661696c65642032000000000000000000000000000000600082015250565b7f4552433732313a2063616c6c6572206973206e6f7420746f6b656e206f776e6560008201527f72206e6f7220617070726f766564000000000000000000000000000000000000602082015250565b7f204e4654206973206e6f7420666f722073616c65000000000000000000000000600082015250565b61470181613e90565b811461470c57600080fd5b50565b61471881613eb4565b811461472357600080fd5b50565b61472f81613ec0565b811461473a57600080fd5b50565b61474681613f0c565b811461475157600080fd5b5056fea2646970667358221220cb6e2eb7870a4045657d2c5fb23f1269fe68a25fa930d6fe740b7650f93455f664736f6c63430008070033",
  "linkReferences": {},
  "deployedLinkReferences": {}
}