{
  "_format": "hh-sol-artifact-1",
  "contractName": "EduFundNFT",
  "sourceName": "contracts/EduFundNFT.sol",
  "abi": [
    {
      "inputs": [],
      "stateMutability": "nonpayable",
      "type": "constructor"
    },
    {
      "anonymous": false,
      "inputs": [
        {
          "indexed": true,
          "internalType": "address",
          "name": "owner",
          "type": "address"
        },
        {
          "indexed": true,
          "internalType": "address",
          "name": "approved",
          "type": "address"
        },
        {
          "indexed": true,
          "internalType": "uint256",
          "name": "tokenId",
          "type": "uint256"
        }
      ],
      "name": "Approval",
      "type": "event"
    },
    {
      "anonymous": false,
      "inputs": [
        {
          "indexed": true,
          "internalType": "address",
          "name": "owner",
          "type": "address"
        },
        {
          "indexed": true,
          "internalType": "address",
          "name": "operator",
          "type": "address"
        },
        {
          "indexed": false,
          "internalType": "bool",
          "name": "approved",
          "type": "bool"
        }
      ],
      "name": "ApprovalForAll",
      "type": "event"
    },
    {
      "anonymous": false,
      "inputs": [
        {
          "indexed": true,
          "internalType": "uint256",
          "name": "tokenId",
          "type": "uint256"
        },
        {
          "indexed": false,
          "internalType": "address payable",
          "name": "seller",
          "type": "address"
        },
        {
          "indexed": false,
          "internalType": "address payable",
          "name": "owner",
          "type": "address"
        },
        {
          "indexed": false,
          "internalType": "uint256",
          "name": "price",
          "type": "uint256"
        },
        {
          "indexed": false,
          "internalType": "bool",
          "name": "sold",
          "type": "bool"
        }
      ],
      "name": "FacilityCreated",
      "type": "event"
    },
    {
      "anonymous": false,
      "inputs": [
        {
          "indexed": true,
          "internalType": "address",
          "name": "previousOwner",
          "type": "address"
        },
        {
          "indexed": true,
          "internalType": "address",
          "name": "newOwner",
          "type": "address"
        }
      ],
      "name": "OwnershipTransferred",
      "type": "event"
    },
    {
      "anonymous": false,
      "inputs": [
        {
          "indexed": true,
          "internalType": "address",
          "name": "from",
          "type": "address"
        },
        {
          "indexed": true,
          "internalType": "address",
          "name": "to",
          "type": "address"
        },
        {
          "indexed": true,
          "internalType": "uint256",
          "name": "tokenId",
          "type": "uint256"
        }
      ],
      "name": "Transfer",
      "type": "event"
    },
    {
      "inputs": [
        {
          "internalType": "address",
          "name": "to",
          "type": "address"
        },
        {
          "internalType": "uint256",
          "name": "tokenId",
          "type": "uint256"
        }
      ],
      "name": "approve",
      "outputs": [],
      "stateMutability": "nonpayable",
      "type": "function"
    },
    {
      "inputs": [
        {
          "internalType": "address",
          "name": "owner",
          "type": "address"
        }
      ],
      "name": "balanceOf",
      "outputs": [
        {
          "internalType": "uint256",
          "name": "",
          "type": "uint256"
        }
      ],
      "stateMutability": "view",
      "type": "function"
    },
    {
      "inputs": [
        {
          "internalType": "uint256",
          "name": "_tokenId",
          "type": "uint256"
        }
      ],
      "name": "buyNFT_to_fund_Edu",
      "outputs": [],
      "stateMutability": "payable",
      "type": "function"
    },
    {
      "inputs": [
        {
          "internalType": "uint256",
          "name": "_listPrice",
          "type": "uint256"
        }
      ],
      "name": "changeNFTPrice",
      "outputs": [],
      "stateMutability": "payable",
      "type": "function"
    },
    {
      "inputs": [
        {
          "internalType": "string",
          "name": "_tokenURI",
          "type": "string"
        },
        {
          "internalType": "uint256",
          "name": "price",
          "type": "uint256"
        }
      ],
      "name": "createFacility",
      "outputs": [
        {
          "internalType": "uint256",
          "name": "",
          "type": "uint256"
        }
      ],
      "stateMutability": "payable",
      "type": "function"
    },
    {
      "inputs": [
        {
          "internalType": "uint256",
          "name": "",
          "type": "uint256"
        }
      ],
      "name": "facility",
      "outputs": [
        {
          "internalType": "uint256",
          "name": "tokenId",
          "type": "uint256"
        },
        {
          "internalType": "address payable",
          "name": "seller",
          "type": "address"
        },
        {
          "internalType": "address payable",
          "name": "owner",
          "type": "address"
        },
        {
          "internalType": "uint256",
          "name": "price",
          "type": "uint256"
        },
        {
          "internalType": "bool",
          "name": "sold",
          "type": "bool"
        },
        {
          "internalType": "bool",
          "name": "isForResale",
          "type": "bool"
        }
      ],
      "stateMutability": "view",
      "type": "function"
    },
    {
      "inputs": [
        {
          "internalType": "uint256",
          "name": "tokenId",
          "type": "uint256"
        }
      ],
      "name": "getApproved",
      "outputs": [
        {
          "internalType": "address",
          "name": "",
          "type": "address"
        }
      ],
      "stateMutability": "view",
      "type": "function"
    },
    {
      "inputs": [],
      "name": "getContractOwner",
      "outputs": [
        {
          "internalType": "address",
          "name": "",
          "type": "address"
        }
      ],
      "stateMutability": "view",
      "type": "function"
    },
    {
      "inputs": [
        {
          "internalType": "uint256",
          "name": "_tokenId",
          "type": "uint256"
        }
      ],
      "name": "getFacility",
      "outputs": [
        {
          "components": [
            {
              "internalType": "uint256",
              "name": "tokenId",
              "type": "uint256"
            },
            {
              "internalType": "address payable",
              "name": "seller",
              "type": "address"
            },
            {
              "internalType": "address payable",
              "name": "owner",
              "type": "address"
            },
            {
              "internalType": "uint256",
              "name": "price",
              "type": "uint256"
            },
            {
              "internalType": "bool",
              "name": "sold",
              "type": "bool"
            },
            {
              "internalType": "bool",
              "name": "isForResale",
              "type": "bool"
            }
          ],
          "internalType": "struct EduFundNFT.EduFacility",
          "name": "",
          "type": "tuple"
        }
      ],
      "stateMutability": "view",
      "type": "function"
    },
    {
      "inputs": [],
      "name": "getListPrice",
      "outputs": [
        {
          "internalType": "uint256",
          "name": "",
          "type": "uint256"
        }
      ],
      "stateMutability": "view",
      "type": "function"
    },
    {
      "inputs": [
        {
          "internalType": "uint256",
          "name": "index",
          "type": "uint256"
        }
      ],
      "name": "getNftOwner",
      "outputs": [
        {
          "internalType": "address",
          "name": "",
          "type": "address"
        }
      ],
      "stateMutability": "view",
      "type": "function"
    },
    {
      "inputs": [],
      "name": "getTotalFacility",
      "outputs": [
        {
          "internalType": "uint256",
          "name": "",
          "type": "uint256"
        }
      ],
      "stateMutability": "view",
      "type": "function"
    },
    {
      "inputs": [
        {
          "internalType": "address",
          "name": "owner",
          "type": "address"
        },
        {
          "internalType": "address",
          "name": "operator",
          "type": "address"
        }
      ],
      "name": "isApprovedForAll",
      "outputs": [
        {
          "internalType": "bool",
          "name": "",
          "type": "bool"
        }
      ],
      "stateMutability": "view",
      "type": "function"
    },
    {
      "inputs": [
        {
          "internalType": "uint256",
          "name": "_tokenId",
          "type": "uint256"
        },
        {
          "internalType": "uint256",
          "name": "price",
          "type": "uint256"
        }
      ],
      "name": "listNFT",
      "outputs": [],
      "stateMutability": "nonpayable",
      "type": "function"
    },
    {
      "inputs": [],
      "name": "name",
      "outputs": [
        {
          "internalType": "string",
          "name": "",
          "type": "string"
        }
      ],
      "stateMutability": "view",
      "type": "function"
    },
    {
      "inputs": [
        {
          "internalType": "address",
          "name": "",
          "type": "address"
        },
        {
          "internalType": "address",
          "name": "",
          "type": "address"
        },
        {
          "internalType": "uint256",
          "name": "",
          "type": "uint256"
        },
        {
          "internalType": "bytes",
          "name": "",
          "type": "bytes"
        }
      ],
      "name": "onERC721Received",
      "outputs": [
        {
          "internalType": "bytes4",
          "name": "",
          "type": "bytes4"
        }
      ],
      "stateMutability": "pure",
      "type": "function"
    },
    {
      "inputs": [],
      "name": "owner",
      "outputs": [
        {
          "internalType": "address",
          "name": "",
          "type": "address"
        }
      ],
      "stateMutability": "view",
      "type": "function"
    },
    {
      "inputs": [
        {
          "internalType": "uint256",
          "name": "tokenId",
          "type": "uint256"
        }
      ],
      "name": "ownerOf",
      "outputs": [
        {
          "internalType": "address",
          "name": "",
          "type": "address"
        }
      ],
      "stateMutability": "view",
      "type": "function"
    },
    {
      "inputs": [
        {
          "internalType": "uint256",
          "name": "_tokenId",
          "type": "uint256"
        },
        {
          "internalType": "uint256",
          "name": "newPrice",
          "type": "uint256"
        }
      ],
      "name": "re_ListNFT",
      "outputs": [
        {
          "internalType": "uint256",
          "name": "",
          "type": "uint256"
        }
      ],
      "stateMutability": "payable",
      "type": "function"
    },
    {
      "inputs": [],
      "name": "renounceOwnership",
      "outputs": [],
      "stateMutability": "nonpayable",
      "type": "function"
    },
    {
      "inputs": [
        {
          "internalType": "address",
          "name": "to",
          "type": "address"
        },
        {
          "internalType": "string",
          "name": "uri",
          "type": "string"
        }
      ],
      "name": "safeMint",
      "outputs": [],
      "stateMutability": "nonpayable",
      "type": "function"
    },
    {
      "inputs": [
        {
          "internalType": "address",
          "name": "from",
          "type": "address"
        },
        {
          "internalType": "address",
          "name": "to",
          "type": "address"
        },
        {
          "internalType": "uint256",
          "name": "tokenId",
          "type": "uint256"
        }
      ],
      "name": "safeTransferFrom",
      "outputs": [],
      "stateMutability": "nonpayable",
      "type": "function"
    },
    {
      "inputs": [
        {
          "internalType": "address",
          "name": "from",
          "type": "address"
        },
        {
          "internalType": "address",
          "name": "to",
          "type": "address"
        },
        {
          "internalType": "uint256",
          "name": "tokenId",
          "type": "uint256"
        },
        {
          "internalType": "bytes",
          "name": "data",
          "type": "bytes"
        }
      ],
      "name": "safeTransferFrom",
      "outputs": [],
      "stateMutability": "nonpayable",
      "type": "function"
    },
    {
      "inputs": [
        {
          "internalType": "address",
          "name": "operator",
          "type": "address"
        },
        {
          "internalType": "bool",
          "name": "approved",
          "type": "bool"
        }
      ],
      "name": "setApprovalForAll",
      "outputs": [],
      "stateMutability": "nonpayable",
      "type": "function"
    },
    {
      "inputs": [
        {
          "internalType": "bytes4",
          "name": "interfaceId",
          "type": "bytes4"
        }
      ],
      "name": "supportsInterface",
      "outputs": [
        {
          "internalType": "bool",
          "name": "",
          "type": "bool"
        }
      ],
      "stateMutability": "view",
      "type": "function"
    },
    {
      "inputs": [],
      "name": "symbol",
      "outputs": [
        {
          "internalType": "string",
          "name": "",
          "type": "string"
        }
      ],
      "stateMutability": "view",
      "type": "function"
    },
    {
      "inputs": [
        {
          "internalType": "uint256",
          "name": "index",
          "type": "uint256"
        }
      ],
      "name": "tokenByIndex",
      "outputs": [
        {
          "internalType": "uint256",
          "name": "",
          "type": "uint256"
        }
      ],
      "stateMutability": "view",
      "type": "function"
    },
    {
      "inputs": [
        {
          "internalType": "address",
          "name": "owner",
          "type": "address"
        },
        {
          "internalType": "uint256",
          "name": "index",
          "type": "uint256"
        }
      ],
      "name": "tokenOfOwnerByIndex",
      "outputs": [
        {
          "internalType": "uint256",
          "name": "",
          "type": "uint256"
        }
      ],
      "stateMutability": "view",
      "type": "function"
    },
    {
      "inputs": [
        {
          "internalType": "uint256",
          "name": "tokenId",
          "type": "uint256"
        }
      ],
      "name": "tokenURI",
      "outputs": [
        {
          "internalType": "string",
          "name": "",
          "type": "string"
        }
      ],
      "stateMutability": "view",
      "type": "function"
    },
    {
      "inputs": [],
      "name": "totalSupply",
      "outputs": [
        {
          "internalType": "uint256",
          "name": "",
          "type": "uint256"
        }
      ],
      "stateMutability": "view",
      "type": "function"
    },
    {
      "inputs": [
        {
          "internalType": "address",
          "name": "from",
          "type": "address"
        },
        {
          "internalType": "address",
          "name": "to",
          "type": "address"
        },
        {
          "internalType": "uint256",
          "name": "tokenId",
          "type": "uint256"
        }
      ],
      "name": "transferFrom",
      "outputs": [],
      "stateMutability": "nonpayable",
      "type": "function"
    },
    {
      "inputs": [
        {
          "internalType": "address",
          "name": "newOwner",
          "type": "address"
        }
      ],
      "name": "transferOwnership",
      "outputs": [],
      "stateMutability": "nonpayable",
      "type": "function"
    }
  ],
  "bytecode": "0x60806040523480156200001157600080fd5b506040518060400160405280600a81526020017f45647546756e644e4654000000000000000000000000000000000000000000008152506040518060400160405280600581526020017f45464e4654000000000000000000000000000000000000000000000000000000815250816000908051906020019062000096929190620001a6565b508060019080519060200190620000af929190620001a6565b505050620000d2620000c6620000d860201b60201c565b620000e060201b60201c565b620002bb565b600033905090565b6000600b60009054906101000a900473ffffffffffffffffffffffffffffffffffffffff16905081600b60006101000a81548173ffffffffffffffffffffffffffffffffffffffff021916908373ffffffffffffffffffffffffffffffffffffffff1602179055508173ffffffffffffffffffffffffffffffffffffffff168173ffffffffffffffffffffffffffffffffffffffff167f8be0079c531659141344cd1fd0a4f28419497f9722a3daafe3b4186f6b6457e060405160405180910390a35050565b828054620001b49062000256565b90600052602060002090601f016020900481019282620001d8576000855562000224565b82601f10620001f357805160ff191683800117855562000224565b8280016001018555821562000224579182015b828111156200022357825182559160200191906001019062000206565b5b50905062000233919062000237565b5090565b5b808211156200025257600081600090555060010162000238565b5090565b600060028204905060018216806200026f57607f821691505b602082108114156200028657620002856200028c565b5b50919050565b7f4e487b7100000000000000000000000000000000000000000000000000000000600052602260045260246000fd5b61474980620002cb6000396000f3fe6080604052600436106101e35760003560e01c8063715018a611610102578063b88d4fde11610095578063e985e9c511610064578063e985e9c514610729578063edc4400a14610766578063f26318bf14610782578063f2fde38b146107c4576101e3565b8063b88d4fde1461066f578063c4bfbd9014610698578063c87b56dd146106c3578063d204c45e14610700576101e3565b806394383f14116100d157806394383f14146105c257806395d89b41146105eb57806399dad95414610616578063a22cb46514610646576101e3565b8063715018a6146105065780638698fb321461051d5780638ad2d5a71461055a5780638da5cb5b14610597576101e3565b806342842e0e1161017a5780634f8e05a6116101495780634f8e05a6146104315780636352211e1461046157806368f1945f1461049e57806370a08231146104c9576101e3565b806342842e0e1461038457806342c691e9146103ad578063442890d5146103c95780634f6ccce7146103f4576101e3565b8063150b7a02116101b6578063150b7a02146102b657806318160ddd146102f357806323b872dd1461031e5780632f745c5914610347576101e3565b806301ffc9a7146101e857806306fdde0314610225578063081812fc14610250578063095ea7b31461028d575b600080fd5b3480156101f457600080fd5b5061020f600480360381019061020a9190613428565b6107ed565b60405161021c9190613a55565b60405180910390f35b34801561023157600080fd5b5061023a6107ff565b6040516102479190613a8b565b60405180910390f35b34801561025c57600080fd5b50610277600480360381019061027291906134ce565b610891565b60405161028491906139a9565b60405180910390f35b34801561029957600080fd5b506102b460048036038101906102af91906133ec565b6108d7565b005b3480156102c257600080fd5b506102dd60048036038101906102d89190613261565b6109ef565b6040516102ea9190613a70565b60405180910390f35b3480156102ff57600080fd5b50610308610a04565b6040516103159190613d48565b60405180910390f35b34801561032a57600080fd5b5061034560048036038101906103409190613212565b610a11565b005b34801561035357600080fd5b5061036e600480360381019061036991906133ec565b610a71565b60405161037b9190613d48565b60405180910390f35b34801561039057600080fd5b506103ab60048036038101906103a69190613212565b610b16565b005b6103c760048036038101906103c291906134ce565b610b36565b005b3480156103d557600080fd5b506103de610e3b565b6040516103eb91906139a9565b60405180910390f35b34801561040057600080fd5b5061041b600480360381019061041691906134ce565b610e4a565b6040516104289190613d48565b60405180910390f35b61044b600480360381019061044691906134f7565b610ee1565b6040516104589190613d48565b60405180910390f35b34801561046d57600080fd5b50610488600480360381019061048391906134ce565b6110a5565b60405161049591906139a9565b60405180910390f35b3480156104aa57600080fd5b506104b3611157565b6040516104c09190613d48565b60405180910390f35b3480156104d557600080fd5b506104f060048036038101906104eb91906131ad565b611161565b6040516104fd9190613d48565b60405180910390f35b34801561051257600080fd5b5061051b611219565b005b34801561052957600080fd5b50610544600480360381019061053f91906134ce565b61122d565b6040516105519190613d2d565b60405180910390f35b34801561056657600080fd5b50610581600480360381019061057c91906134ce565b611350565b60405161058e91906139a9565b60405180910390f35b3480156105a357600080fd5b506105ac611390565b6040516105b991906139a9565b60405180910390f35b3480156105ce57600080fd5b506105e960048036038101906105e491906134f7565b6113ba565b005b3480156105f757600080fd5b506106006115e0565b60405161060d9190613a8b565b60405180910390f35b610630600480360381019061062b919061347a565b611672565b60405161063d9190613d48565b60405180910390f35b34801561065257600080fd5b5061066d6004803603810190610668919061335c565b6116bc565b005b34801561067b57600080fd5b50610696600480360381019061069191906132e1565b6116d2565b005b3480156106a457600080fd5b506106ad611734565b6040516106ba9190613d48565b60405180910390f35b3480156106cf57600080fd5b506106ea60048036038101906106e591906134ce565b611745565b6040516106f79190613a8b565b60405180910390f35b34801561070c57600080fd5b5061072760048036038101906107229190613398565b611757565b005b34801561073557600080fd5b50610750600480360381019061074b91906131d6565b611790565b60405161075d9190613a55565b60405180910390f35b610780600480360381019061077b91906134ce565b611824565b005b34801561078e57600080fd5b506107a960048036038101906107a491906134ce565b611836565b6040516107bb96959493929190613d63565b60405180910390f35b3480156107d057600080fd5b506107eb60048036038101906107e691906131ad565b6118cc565b005b60006107f882611950565b9050919050565b60606000805461080e90614011565b80601f016020809104026020016040519081016040528092919081815260200182805461083a90614011565b80156108875780601f1061085c57610100808354040283529160200191610887565b820191906000526020600020905b81548152906001019060200180831161086a57829003601f168201915b5050505050905090565b600061089c826119ca565b6004600083815260200190815260200160002060009054906101000a900473ffffffffffffffffffffffffffffffffffffffff169050919050565b60006108e2826110a5565b90508073ffffffffffffffffffffffffffffffffffffffff168373ffffffffffffffffffffffffffffffffffffffff161415610953576040517f08c379a000000000000000000000000000000000000000000000000000000000815260040161094a90613cad565b60405180910390fd5b8073ffffffffffffffffffffffffffffffffffffffff16610972611a15565b73ffffffffffffffffffffffffffffffffffffffff1614806109a157506109a08161099b611a15565b611790565b5b6109e0576040517f08c379a00000000000000000000000000000000000000000000000000000000081526004016109d790613c0d565b60405180910390fd5b6109ea8383611a1d565b505050565b600063150b7a0260e01b905095945050505050565b6000600980549050905090565b610a22610a1c611a15565b82611ad6565b610a61576040517f08c379a0000000000000000000000000000000000000000000000000000000008152600401610a5890613d0d565b60405180910390fd5b610a6c838383611b6b565b505050565b6000610a7c83611161565b8210610abd576040517f08c379a0000000000000000000000000000000000000000000000000000000008152600401610ab490613aad565b60405180910390fd5b600760008473ffffffffffffffffffffffffffffffffffffffff1673ffffffffffffffffffffffffffffffffffffffff168152602001908152602001600020600083815260200190815260200160002054905092915050565b610b31838383604051806020016040528060008152506116d2565b505050565b6000600e60008381526020019081526020016000206003015490506000600e600084815260200190815260200160002060020160009054906101000a900473ffffffffffffffffffffffffffffffffffffffff1690506000600e600085815260200190815260200160002060010160009054906101000a900473ffffffffffffffffffffffffffffffffffffffff16905082341015610c0a576040517f08c379a0000000000000000000000000000000000000000000000000000000008152600401610c0190613ced565b60405180910390fd5b60001515600e600086815260200190815260200160002060040160019054906101000a900460ff16151514610c74576040517f08c379a0000000000000000000000000000000000000000000000000000000008152600401610c6b90613bad565b60405180910390fd5b6001600e600086815260200190815260200160002060040160006101000a81548160ff02191690831515021790555033600e600086815260200190815260200160002060020160006101000a81548173ffffffffffffffffffffffffffffffffffffffff021916908373ffffffffffffffffffffffffffffffffffffffff1602179055506000600e600086815260200190815260200160002060010160006101000a81548173ffffffffffffffffffffffffffffffffffffffff021916908373ffffffffffffffffffffffffffffffffffffffff1602179055506001600e600086815260200190815260200160002060040160016101000a81548160ff021916908315150217905550600e600085815260200190815260200160002060040160019054906101000a900460ff1615610dee578173ffffffffffffffffffffffffffffffffffffffff166108fc849081150290604051600060405180830381858888f19350505050158015610dec573d6000803e3d6000fd5b505b8073ffffffffffffffffffffffffffffffffffffffff166108fc849081150290604051600060405180830381858888f19350505050158015610e34573d6000803e3d6000fd5b5050505050565b6000610e45611390565b905090565b6000610e54610a04565b8210610e95576040517f08c379a0000000000000000000000000000000000000000000000000000000008152600401610e8c90613ccd565b60405180910390fd5b60098281548110610ecf577f4e487b7100000000000000000000000000000000000000000000000000000000600052603260045260246000fd5b90600052602060002001549050919050565b6000823373ffffffffffffffffffffffffffffffffffffffff16600e600083815260200190815260200160002060020160009054906101000a900473ffffffffffffffffffffffffffffffffffffffff1673ffffffffffffffffffffffffffffffffffffffff1614610f88576040517f08c379a0000000000000000000000000000000000000000000000000000000008152600401610f7f90613c6d565b60405180910390fd5b610f93333086610b16565b6000600e600086815260200190815260200160002060040160006101000a81548160ff02191690831515021790555033600e600086815260200190815260200160002060010160006101000a81548173ffffffffffffffffffffffffffffffffffffffff021916908373ffffffffffffffffffffffffffffffffffffffff16021790555033600e600086815260200190815260200160002060020160006101000a81548173ffffffffffffffffffffffffffffffffffffffff021916908373ffffffffffffffffffffffffffffffffffffffff1602179055506001600e600086815260200190815260200160002060040160016101000a81548160ff0219169083151502179055508291505092915050565b6000806002600084815260200190815260200160002060009054906101000a900473ffffffffffffffffffffffffffffffffffffffff169050600073ffffffffffffffffffffffffffffffffffffffff168173ffffffffffffffffffffffffffffffffffffffff16141561114e576040517f08c379a000000000000000000000000000000000000000000000000000000000815260040161114590613c8d565b60405180910390fd5b80915050919050565b6000600d54905090565b60008073ffffffffffffffffffffffffffffffffffffffff168273ffffffffffffffffffffffffffffffffffffffff1614156111d2576040517f08c379a00000000000000000000000000000000000000000000000000000000081526004016111c990613bcd565b60405180910390fd5b600360008373ffffffffffffffffffffffffffffffffffffffff1673ffffffffffffffffffffffffffffffffffffffff168152602001908152602001600020549050919050565b611221611dd2565b61122b6000611e50565b565b611235612f21565b600e60008381526020019081526020016000206040518060c0016040529081600082015481526020016001820160009054906101000a900473ffffffffffffffffffffffffffffffffffffffff1673ffffffffffffffffffffffffffffffffffffffff1673ffffffffffffffffffffffffffffffffffffffff1681526020016002820160009054906101000a900473ffffffffffffffffffffffffffffffffffffffff1673ffffffffffffffffffffffffffffffffffffffff1673ffffffffffffffffffffffffffffffffffffffff168152602001600382015481526020016004820160009054906101000a900460ff161515151581526020016004820160019054906101000a900460ff1615151515815250509050919050565b6000600e600083815260200190815260200160002060020160009054906101000a900473ffffffffffffffffffffffffffffffffffffffff169050919050565b6000600b60009054906101000a900473ffffffffffffffffffffffffffffffffffffffff16905090565b6113c2611dd2565b60008111611405576040517f08c379a00000000000000000000000000000000000000000000000000000000081526004016113fc90613acd565b60405180910390fd5b6040518060c001604052808381526020013373ffffffffffffffffffffffffffffffffffffffff1681526020013373ffffffffffffffffffffffffffffffffffffffff16815260200182815260200160001515815260200160001515815250600e60008481526020019081526020016000206000820151816000015560208201518160010160006101000a81548173ffffffffffffffffffffffffffffffffffffffff021916908373ffffffffffffffffffffffffffffffffffffffff16021790555060408201518160020160006101000a81548173ffffffffffffffffffffffffffffffffffffffff021916908373ffffffffffffffffffffffffffffffffffffffff1602179055506060820151816003015560808201518160040160006101000a81548160ff02191690831515021790555060a08201518160040160016101000a81548160ff02191690831515021790555090505061159d600e600084815260200190815260200160002060020160009054906101000a900473ffffffffffffffffffffffffffffffffffffffff163084610b16565b817f0bf718aa63f641b3cd55a8b6dc138207634e87116e1422763a5715d89a8a97cd33308460006040516115d494939291906139c4565b60405180910390a25050565b6060600180546115ef90614011565b80601f016020809104026020016040519081016040528092919081815260200182805461161b90614011565b80156116685780601f1061163d57610100808354040283529160200191611668565b820191906000526020600020905b81548152906001019060200180831161164b57829003601f168201915b5050505050905090565b600061167c611dd2565b611686600c611f16565b6000611692600c611f2c565b905061169e3382611f3a565b6116a88185611f58565b6116b281846113ba565b8091505092915050565b6116ce6116c7611a15565b8383611fcc565b5050565b6116e36116dd611a15565b83611ad6565b611722576040517f08c379a000000000000000000000000000000000000000000000000000000000815260040161171990613d0d565b60405180910390fd5b61172e84848484612139565b50505050565b6000611740600c611f2c565b905090565b606061175082612195565b9050919050565b61175f611dd2565b600061176b600c611f2c565b9050611777600c611f16565b6117818382611f3a565b61178b8183611f58565b505050565b6000600560008473ffffffffffffffffffffffffffffffffffffffff1673ffffffffffffffffffffffffffffffffffffffff16815260200190815260200160002060008373ffffffffffffffffffffffffffffffffffffffff1673ffffffffffffffffffffffffffffffffffffffff16815260200190815260200160002060009054906101000a900460ff16905092915050565b61182c611dd2565b80600d8190555050565b600e6020528060005260406000206000915090508060000154908060010160009054906101000a900473ffffffffffffffffffffffffffffffffffffffff16908060020160009054906101000a900473ffffffffffffffffffffffffffffffffffffffff16908060030154908060040160009054906101000a900460ff16908060040160019054906101000a900460ff16905086565b6118d4611dd2565b600073ffffffffffffffffffffffffffffffffffffffff168173ffffffffffffffffffffffffffffffffffffffff161415611944576040517f08c379a000000000000000000000000000000000000000000000000000000000815260040161193b90613b0d565b60405180910390fd5b61194d81611e50565b50565b60007f780e9d63000000000000000000000000000000000000000000000000000000007bffffffffffffffffffffffffffffffffffffffffffffffffffffffff1916827bffffffffffffffffffffffffffffffffffffffffffffffffffffffff191614806119c357506119c2826122a8565b5b9050919050565b6119d38161238a565b611a12576040517f08c379a0000000000000000000000000000000000000000000000000000000008152600401611a0990613c8d565b60405180910390fd5b50565b600033905090565b816004600083815260200190815260200160002060006101000a81548173ffffffffffffffffffffffffffffffffffffffff021916908373ffffffffffffffffffffffffffffffffffffffff160217905550808273ffffffffffffffffffffffffffffffffffffffff16611a90836110a5565b73ffffffffffffffffffffffffffffffffffffffff167f8c5be1e5ebec7d5bd14f71427d1e84f3dd0314c0f7b2291e5b200ac8c7c3b92560405160405180910390a45050565b600080611ae2836110a5565b90508073ffffffffffffffffffffffffffffffffffffffff168473ffffffffffffffffffffffffffffffffffffffff161480611b245750611b238185611790565b5b80611b6257508373ffffffffffffffffffffffffffffffffffffffff16611b4a84610891565b73ffffffffffffffffffffffffffffffffffffffff16145b91505092915050565b8273ffffffffffffffffffffffffffffffffffffffff16611b8b826110a5565b73ffffffffffffffffffffffffffffffffffffffff1614611be1576040517f08c379a0000000000000000000000000000000000000000000000000000000008152600401611bd890613b2d565b60405180910390fd5b600073ffffffffffffffffffffffffffffffffffffffff168273ffffffffffffffffffffffffffffffffffffffff161415611c51576040517f08c379a0000000000000000000000000000000000000000000000000000000008152600401611c4890613b6d565b60405180910390fd5b611c5c8383836123f6565b611c67600082611a1d565b6001600360008573ffffffffffffffffffffffffffffffffffffffff1673ffffffffffffffffffffffffffffffffffffffff1681526020019081526020016000206000828254611cb79190613f15565b925050819055506001600360008473ffffffffffffffffffffffffffffffffffffffff1673ffffffffffffffffffffffffffffffffffffffff1681526020019081526020016000206000828254611d0e9190613e8e565b92505081905550816002600083815260200190815260200160002060006101000a81548173ffffffffffffffffffffffffffffffffffffffff021916908373ffffffffffffffffffffffffffffffffffffffff160217905550808273ffffffffffffffffffffffffffffffffffffffff168473ffffffffffffffffffffffffffffffffffffffff167fddf252ad1be2c89b69c2b068fc378daa952ba7f163c4a11628f55a4df523b3ef60405160405180910390a4611dcd838383612406565b505050565b611dda611a15565b73ffffffffffffffffffffffffffffffffffffffff16611df8611390565b73ffffffffffffffffffffffffffffffffffffffff1614611e4e576040517f08c379a0000000000000000000000000000000000000000000000000000000008152600401611e4590613c4d565b60405180910390fd5b565b6000600b60009054906101000a900473ffffffffffffffffffffffffffffffffffffffff16905081600b60006101000a81548173ffffffffffffffffffffffffffffffffffffffff021916908373ffffffffffffffffffffffffffffffffffffffff1602179055508173ffffffffffffffffffffffffffffffffffffffff168173ffffffffffffffffffffffffffffffffffffffff167f8be0079c531659141344cd1fd0a4f28419497f9722a3daafe3b4186f6b6457e060405160405180910390a35050565b6001816000016000828254019250508190555050565b600081600001549050919050565b611f5482826040518060200160405280600081525061240b565b5050565b611f618261238a565b611fa0576040517f08c379a0000000000000000000000000000000000000000000000000000000008152600401611f9790613bed565b60405180910390fd5b80600660008481526020019081526020016000209080519060200190611fc7929190612f87565b505050565b8173ffffffffffffffffffffffffffffffffffffffff168373ffffffffffffffffffffffffffffffffffffffff16141561203b576040517f08c379a000000000000000000000000000000000000000000000000000000000815260040161203290613b8d565b60405180910390fd5b80600560008573ffffffffffffffffffffffffffffffffffffffff1673ffffffffffffffffffffffffffffffffffffffff16815260200190815260200160002060008473ffffffffffffffffffffffffffffffffffffffff1673ffffffffffffffffffffffffffffffffffffffff16815260200190815260200160002060006101000a81548160ff0219169083151502179055508173ffffffffffffffffffffffffffffffffffffffff168373ffffffffffffffffffffffffffffffffffffffff167f17307eab39ab6107e8899845ad3d59bd9653f200f220920489ca2b5937696c318360405161212c9190613a55565b60405180910390a3505050565b612144848484611b6b565b61215084848484612466565b61218f576040517f08c379a000000000000000000000000000000000000000000000000000000000815260040161218690613aed565b60405180910390fd5b50505050565b60606121a0826119ca565b60006006600084815260200190815260200160002080546121c090614011565b80601f01602080910402602001604051908101604052809291908181526020018280546121ec90614011565b80156122395780601f1061220e57610100808354040283529160200191612239565b820191906000526020600020905b81548152906001019060200180831161221c57829003601f168201915b50505050509050600061224a6125fd565b90506000815114156122605781925050506122a3565b60008251111561229557808260405160200161227d929190613985565b604051602081830303815290604052925050506122a3565b61229e84612614565b925050505b919050565b60007f80ac58cd000000000000000000000000000000000000000000000000000000007bffffffffffffffffffffffffffffffffffffffffffffffffffffffff1916827bffffffffffffffffffffffffffffffffffffffffffffffffffffffff1916148061237357507f5b5e139f000000000000000000000000000000000000000000000000000000007bffffffffffffffffffffffffffffffffffffffffffffffffffffffff1916827bffffffffffffffffffffffffffffffffffffffffffffffffffffffff1916145b8061238357506123828261267c565b5b9050919050565b60008073ffffffffffffffffffffffffffffffffffffffff166002600084815260200190815260200160002060009054906101000a900473ffffffffffffffffffffffffffffffffffffffff1673ffffffffffffffffffffffffffffffffffffffff1614159050919050565b6124018383836126e6565b505050565b505050565b61241583836127fa565b6124226000848484612466565b612461576040517f08c379a000000000000000000000000000000000000000000000000000000000815260040161245890613aed565b60405180910390fd5b505050565b60006124878473ffffffffffffffffffffffffffffffffffffffff166129d4565b156125f0578373ffffffffffffffffffffffffffffffffffffffff1663150b7a026124b0611a15565b8786866040518563ffffffff1660e01b81526004016124d29493929190613a09565b602060405180830381600087803b1580156124ec57600080fd5b505af192505050801561251d57506040513d601f19601f8201168201806040525081019061251a9190613451565b60015b6125a0573d806000811461254d576040519150601f19603f3d011682016040523d82523d6000602084013e612552565b606091505b50600081511415612598576040517f08c379a000000000000000000000000000000000000000000000000000000000815260040161258f90613aed565b60405180910390fd5b805181602001fd5b63150b7a0260e01b7bffffffffffffffffffffffffffffffffffffffffffffffffffffffff1916817bffffffffffffffffffffffffffffffffffffffffffffffffffffffff1916149150506125f5565b600190505b949350505050565b606060405180602001604052806000815250905090565b606061261f826119ca565b60006126296125fd565b905060008151116126495760405180602001604052806000815250612674565b80612653846129f7565b604051602001612664929190613985565b6040516020818303038152906040525b915050919050565b60007f01ffc9a7000000000000000000000000000000000000000000000000000000007bffffffffffffffffffffffffffffffffffffffffffffffffffffffff1916827bffffffffffffffffffffffffffffffffffffffffffffffffffffffff1916149050919050565b6126f1838383612ba4565b600073ffffffffffffffffffffffffffffffffffffffff168373ffffffffffffffffffffffffffffffffffffffff1614156127345761272f81612ba9565b612773565b8173ffffffffffffffffffffffffffffffffffffffff168373ffffffffffffffffffffffffffffffffffffffff1614612772576127718382612bf2565b5b5b600073ffffffffffffffffffffffffffffffffffffffff168273ffffffffffffffffffffffffffffffffffffffff1614156127b6576127b181612d5f565b6127f5565b8273ffffffffffffffffffffffffffffffffffffffff168273ffffffffffffffffffffffffffffffffffffffff16146127f4576127f38282612ea2565b5b5b505050565b600073ffffffffffffffffffffffffffffffffffffffff168273ffffffffffffffffffffffffffffffffffffffff16141561286a576040517f08c379a000000000000000000000000000000000000000000000000000000000815260040161286190613c2d565b60405180910390fd5b6128738161238a565b156128b3576040517f08c379a00000000000000000000000000000000000000000000000000000000081526004016128aa90613b4d565b60405180910390fd5b6128bf600083836123f6565b6001600360008473ffffffffffffffffffffffffffffffffffffffff1673ffffffffffffffffffffffffffffffffffffffff168152602001908152602001600020600082825461290f9190613e8e565b92505081905550816002600083815260200190815260200160002060006101000a81548173ffffffffffffffffffffffffffffffffffffffff021916908373ffffffffffffffffffffffffffffffffffffffff160217905550808273ffffffffffffffffffffffffffffffffffffffff16600073ffffffffffffffffffffffffffffffffffffffff167fddf252ad1be2c89b69c2b068fc378daa952ba7f163c4a11628f55a4df523b3ef60405160405180910390a46129d060008383612406565b5050565b6000808273ffffffffffffffffffffffffffffffffffffffff163b119050919050565b60606000821415612a3f576040518060400160405280600181526020017f30000000000000000000000000000000000000000000000000000000000000008152509050612b9f565b600082905060005b60008214612a71578080612a5a90614074565b915050600a82612a6a9190613ee4565b9150612a47565b60008167ffffffffffffffff811115612ab3577f4e487b7100000000000000000000000000000000000000000000000000000000600052604160045260246000fd5b6040519080825280601f01601f191660200182016040528015612ae55781602001600182028036833780820191505090505b5090505b60008514612b9857600182612afe9190613f15565b9150600a85612b0d91906140bd565b6030612b199190613e8e565b60f81b818381518110612b55577f4e487b7100000000000000000000000000000000000000000000000000000000600052603260045260246000fd5b60200101907effffffffffffffffffffffffffffffffffffffffffffffffffffffffffffff1916908160001a905350600a85612b919190613ee4565b9450612ae9565b8093505050505b919050565b505050565b600980549050600a600083815260200190815260200160002081905550600981908060018154018082558091505060019003906000526020600020016000909190919091505550565b60006001612bff84611161565b612c099190613f15565b9050600060086000848152602001908152602001600020549050818114612cee576000600760008673ffffffffffffffffffffffffffffffffffffffff1673ffffffffffffffffffffffffffffffffffffffff168152602001908152602001600020600084815260200190815260200160002054905080600760008773ffffffffffffffffffffffffffffffffffffffff1673ffffffffffffffffffffffffffffffffffffffff168152602001908152602001600020600084815260200190815260200160002081905550816008600083815260200190815260200160002081905550505b6008600084815260200190815260200160002060009055600760008573ffffffffffffffffffffffffffffffffffffffff1673ffffffffffffffffffffffffffffffffffffffff16815260200190815260200160002060008381526020019081526020016000206000905550505050565b60006001600980549050612d739190613f15565b90506000600a6000848152602001908152602001600020549050600060098381548110612dc9577f4e487b7100000000000000000000000000000000000000000000000000000000600052603260045260246000fd5b906000526020600020015490508060098381548110612e11577f4e487b7100000000000000000000000000000000000000000000000000000000600052603260045260246000fd5b906000526020600020018190555081600a600083815260200190815260200160002081905550600a6000858152602001908152602001600020600090556009805480612e86577f4e487b7100000000000000000000000000000000000000000000000000000000600052603160045260246000fd5b6001900381819060005260206000200160009055905550505050565b6000612ead83611161565b905081600760008573ffffffffffffffffffffffffffffffffffffffff1673ffffffffffffffffffffffffffffffffffffffff168152602001908152602001600020600083815260200190815260200160002081905550806008600084815260200190815260200160002081905550505050565b6040518060c0016040528060008152602001600073ffffffffffffffffffffffffffffffffffffffff168152602001600073ffffffffffffffffffffffffffffffffffffffff168152602001600081526020016000151581526020016000151581525090565b828054612f9390614011565b90600052602060002090601f016020900481019282612fb55760008555612ffc565b82601f10612fce57805160ff1916838001178555612ffc565b82800160010185558215612ffc579182015b82811115612ffb578251825591602001919060010190612fe0565b5b509050613009919061300d565b5090565b5b8082111561302657600081600090555060010161300e565b5090565b600061303d61303884613de9565b613dc4565b90508281526020810184848401111561305557600080fd5b613060848285613fcf565b509392505050565b600061307b61307684613e1a565b613dc4565b90508281526020810184848401111561309357600080fd5b61309e848285613fcf565b509392505050565b6000813590506130b5816146b7565b92915050565b6000813590506130ca816146ce565b92915050565b6000813590506130df816146e5565b92915050565b6000815190506130f4816146e5565b92915050565b60008083601f84011261310c57600080fd5b8235905067ffffffffffffffff81111561312557600080fd5b60208301915083600182028301111561313d57600080fd5b9250929050565b600082601f83011261315557600080fd5b813561316584826020860161302a565b91505092915050565b600082601f83011261317f57600080fd5b813561318f848260208601613068565b91505092915050565b6000813590506131a7816146fc565b92915050565b6000602082840312156131bf57600080fd5b60006131cd848285016130a6565b91505092915050565b600080604083850312156131e957600080fd5b60006131f7858286016130a6565b9250506020613208858286016130a6565b9150509250929050565b60008060006060848603121561322757600080fd5b6000613235868287016130a6565b9350506020613246868287016130a6565b925050604061325786828701613198565b9150509250925092565b60008060008060006080868803121561327957600080fd5b6000613287888289016130a6565b9550506020613298888289016130a6565b94505060406132a988828901613198565b935050606086013567ffffffffffffffff8111156132c657600080fd5b6132d2888289016130fa565b92509250509295509295909350565b600080600080608085870312156132f757600080fd5b6000613305878288016130a6565b9450506020613316878288016130a6565b935050604061332787828801613198565b925050606085013567ffffffffffffffff81111561334457600080fd5b61335087828801613144565b91505092959194509250565b6000806040838503121561336f57600080fd5b600061337d858286016130a6565b925050602061338e858286016130bb565b9150509250929050565b600080604083850312156133ab57600080fd5b60006133b9858286016130a6565b925050602083013567ffffffffffffffff8111156133d657600080fd5b6133e28582860161316e565b9150509250929050565b600080604083850312156133ff57600080fd5b600061340d858286016130a6565b925050602061341e85828601613198565b9150509250929050565b60006020828403121561343a57600080fd5b6000613448848285016130d0565b91505092915050565b60006020828403121561346357600080fd5b6000613471848285016130e5565b91505092915050565b6000806040838503121561348d57600080fd5b600083013567ffffffffffffffff8111156134a757600080fd5b6134b38582860161316e565b92505060206134c485828601613198565b9150509250929050565b6000602082840312156134e057600080fd5b60006134ee84828501613198565b91505092915050565b6000806040838503121561350a57600080fd5b600061351885828601613198565b925050602061352985828601613198565b9150509250929050565b61353c81613f5b565b82525050565b61354b81613f5b565b82525050565b61355a81613f49565b82525050565b61356981613f6d565b82525050565b61357881613f6d565b82525050565b61358781613f79565b82525050565b600061359882613e4b565b6135a28185613e61565b93506135b2818560208601613fde565b6135bb816141aa565b840191505092915050565b60006135d182613e56565b6135db8185613e72565b93506135eb818560208601613fde565b6135f4816141aa565b840191505092915050565b600061360a82613e56565b6136148185613e83565b9350613624818560208601613fde565b80840191505092915050565b600061363d602b83613e72565b9150613648826141bb565b604082019050919050565b6000613660601f83613e72565b915061366b8261420a565b602082019050919050565b6000613683603283613e72565b915061368e82614233565b604082019050919050565b60006136a6602683613e72565b91506136b182614282565b604082019050919050565b60006136c9602583613e72565b91506136d4826142d1565b604082019050919050565b60006136ec601c83613e72565b91506136f782614320565b602082019050919050565b600061370f602483613e72565b915061371a82614349565b604082019050919050565b6000613732601983613e72565b915061373d82614398565b602082019050919050565b6000613755601283613e72565b9150613760826143c1565b602082019050919050565b6000613778602983613e72565b9150613783826143ea565b604082019050919050565b600061379b602e83613e72565b91506137a682614439565b604082019050919050565b60006137be603e83613e72565b91506137c982614488565b604082019050919050565b60006137e1602083613e72565b91506137ec826144d7565b602082019050919050565b6000613804602083613e72565b915061380f82614500565b602082019050919050565b6000613827601d83613e72565b915061383282614529565b602082019050919050565b600061384a601883613e72565b915061385582614552565b602082019050919050565b600061386d602183613e72565b91506138788261457b565b604082019050919050565b6000613890602c83613e72565b915061389b826145ca565b604082019050919050565b60006138b3603083613e72565b91506138be82614619565b604082019050919050565b60006138d6602e83613e72565b91506138e182614668565b604082019050919050565b60c0820160008201516139026000850182613967565b5060208201516139156020850182613533565b5060408201516139286040850182613533565b50606082015161393b6060850182613967565b50608082015161394e6080850182613560565b5060a082015161396160a0850182613560565b50505050565b61397081613fc5565b82525050565b61397f81613fc5565b82525050565b600061399182856135ff565b915061399d82846135ff565b91508190509392505050565b60006020820190506139be6000830184613551565b92915050565b60006080820190506139d96000830187613542565b6139e66020830186613542565b6139f36040830185613976565b613a00606083018461356f565b95945050505050565b6000608082019050613a1e6000830187613551565b613a2b6020830186613551565b613a386040830185613976565b8181036060830152613a4a818461358d565b905095945050505050565b6000602082019050613a6a600083018461356f565b92915050565b6000602082019050613a85600083018461357e565b92915050565b60006020820190508181036000830152613aa581846135c6565b905092915050565b60006020820190508181036000830152613ac681613630565b9050919050565b60006020820190508181036000830152613ae681613653565b9050919050565b60006020820190508181036000830152613b0681613676565b9050919050565b60006020820190508181036000830152613b2681613699565b9050919050565b60006020820190508181036000830152613b46816136bc565b9050919050565b60006020820190508181036000830152613b66816136df565b9050919050565b60006020820190508181036000830152613b8681613702565b9050919050565b60006020820190508181036000830152613ba681613725565b9050919050565b60006020820190508181036000830152613bc681613748565b9050919050565b60006020820190508181036000830152613be68161376b565b9050919050565b60006020820190508181036000830152613c068161378e565b9050919050565b60006020820190508181036000830152613c26816137b1565b9050919050565b60006020820190508181036000830152613c46816137d4565b9050919050565b60006020820190508181036000830152613c66816137f7565b9050919050565b60006020820190508181036000830152613c868161381a565b9050919050565b60006020820190508181036000830152613ca68161383d565b9050919050565b60006020820190508181036000830152613cc681613860565b9050919050565b60006020820190508181036000830152613ce681613883565b9050919050565b60006020820190508181036000830152613d06816138a6565b9050919050565b60006020820190508181036000830152613d26816138c9565b9050919050565b600060c082019050613d4260008301846138ec565b92915050565b6000602082019050613d5d6000830184613976565b92915050565b600060c082019050613d786000830189613976565b613d856020830188613542565b613d926040830187613542565b613d9f6060830186613976565b613dac608083018561356f565b613db960a083018461356f565b979650505050505050565b6000613dce613ddf565b9050613dda8282614043565b919050565b6000604051905090565b600067ffffffffffffffff821115613e0457613e0361417b565b5b613e0d826141aa565b9050602081019050919050565b600067ffffffffffffffff821115613e3557613e3461417b565b5b613e3e826141aa565b9050602081019050919050565b600081519050919050565b600081519050919050565b600082825260208201905092915050565b600082825260208201905092915050565b600081905092915050565b6000613e9982613fc5565b9150613ea483613fc5565b9250827fffffffffffffffffffffffffffffffffffffffffffffffffffffffffffffffff03821115613ed957613ed86140ee565b5b828201905092915050565b6000613eef82613fc5565b9150613efa83613fc5565b925082613f0a57613f0961411d565b5b828204905092915050565b6000613f2082613fc5565b9150613f2b83613fc5565b925082821015613f3e57613f3d6140ee565b5b828203905092915050565b6000613f5482613fa5565b9050919050565b6000613f6682613fa5565b9050919050565b60008115159050919050565b60007fffffffff0000000000000000000000000000000000000000000000000000000082169050919050565b600073ffffffffffffffffffffffffffffffffffffffff82169050919050565b6000819050919050565b82818337600083830152505050565b60005b83811015613ffc578082015181840152602081019050613fe1565b8381111561400b576000848401525b50505050565b6000600282049050600182168061402957607f821691505b6020821081141561403d5761403c61414c565b5b50919050565b61404c826141aa565b810181811067ffffffffffffffff8211171561406b5761406a61417b565b5b80604052505050565b600061407f82613fc5565b91507fffffffffffffffffffffffffffffffffffffffffffffffffffffffffffffffff8214156140b2576140b16140ee565b5b600182019050919050565b60006140c882613fc5565b91506140d383613fc5565b9250826140e3576140e261411d565b5b828206905092915050565b7f4e487b7100000000000000000000000000000000000000000000000000000000600052601160045260246000fd5b7f4e487b7100000000000000000000000000000000000000000000000000000000600052601260045260246000fd5b7f4e487b7100000000000000000000000000000000000000000000000000000000600052602260045260246000fd5b7f4e487b7100000000000000000000000000000000000000000000000000000000600052604160045260246000fd5b6000601f19601f8301169050919050565b7f455243373231456e756d657261626c653a206f776e657220696e646578206f7560008201527f74206f6620626f756e6473000000000000000000000000000000000000000000602082015250565b7f5072696365206d7573742062652067726561746572207468616e207a65726f00600082015250565b7f4552433732313a207472616e7366657220746f206e6f6e20455243373231526560008201527f63656976657220696d706c656d656e7465720000000000000000000000000000602082015250565b7f4f776e61626c653a206e6577206f776e657220697320746865207a65726f206160008201527f6464726573730000000000000000000000000000000000000000000000000000602082015250565b7f4552433732313a207472616e736665722066726f6d20696e636f72726563742060008201527f6f776e6572000000000000000000000000000000000000000000000000000000602082015250565b7f4552433732313a20746f6b656e20616c7265616479206d696e74656400000000600082015250565b7f4552433732313a207472616e7366657220746f20746865207a65726f2061646460008201527f7265737300000000000000000000000000000000000000000000000000000000602082015250565b7f4552433732313a20617070726f766520746f2063616c6c657200000000000000600082015250565b7f204e465420697320666f7220726573616c650000000000000000000000000000600082015250565b7f4552433732313a2061646472657373207a65726f206973206e6f74206120766160008201527f6c6964206f776e65720000000000000000000000000000000000000000000000602082015250565b7f45524337323155524953746f726167653a2055524920736574206f66206e6f6e60008201527f6578697374656e7420746f6b656e000000000000000000000000000000000000602082015250565b7f4552433732313a20617070726f76652063616c6c6572206973206e6f7420746f60008201527f6b656e206f776e6572206e6f7220617070726f76656420666f7220616c6c0000602082015250565b7f4552433732313a206d696e7420746f20746865207a65726f2061646472657373600082015250565b7f4f776e61626c653a2063616c6c6572206973206e6f7420746865206f776e6572600082015250565b7f4f6e6c79206e6577204e4654206f776e65722043616e2052656c697374000000600082015250565b7f4552433732313a20696e76616c696420746f6b656e2049440000000000000000600082015250565b7f4552433732313a20617070726f76616c20746f2063757272656e74206f776e6560008201527f7200000000000000000000000000000000000000000000000000000000000000602082015250565b7f455243373231456e756d657261626c653a20676c6f62616c20696e646578206f60008201527f7574206f6620626f756e64730000000000000000000000000000000000000000602082015250565b7f56616c7565206d75737420626520657175616c20746f206f722067726561746560008201527f72207468616e204e465420707269636500000000000000000000000000000000602082015250565b7f4552433732313a2063616c6c6572206973206e6f7420746f6b656e206f776e6560008201527f72206e6f7220617070726f766564000000000000000000000000000000000000602082015250565b6146c081613f49565b81146146cb57600080fd5b50565b6146d781613f6d565b81146146e257600080fd5b50565b6146ee81613f79565b81146146f957600080fd5b50565b61470581613fc5565b811461471057600080fd5b5056fea2646970667358221220126fdb14e8528edda82fffcac05793341795f887b4b1418e06008d52a16013b064736f6c63430008040033",
  "linkReferences": {},
  "deployedLinkReferences": {}
}