{
  "_format": "hh-sol-artifact-1",
  "contractName": "EduFundNFT",
  "sourceName": "contracts/EduFundNFT.sol",
  "abi": [
    {
      "inputs": [],
      "stateMutability": "nonpayable",
      "type": "constructor"
    },
    {
      "anonymous": false,
      "inputs": [
        {
          "indexed": true,
          "internalType": "address",
          "name": "owner",
          "type": "address"
        },
        {
          "indexed": true,
          "internalType": "address",
          "name": "approved",
          "type": "address"
        },
        {
          "indexed": true,
          "internalType": "uint256",
          "name": "tokenId",
          "type": "uint256"
        }
      ],
      "name": "Approval",
      "type": "event"
    },
    {
      "anonymous": false,
      "inputs": [
        {
          "indexed": true,
          "internalType": "address",
          "name": "owner",
          "type": "address"
        },
        {
          "indexed": true,
          "internalType": "address",
          "name": "operator",
          "type": "address"
        },
        {
          "indexed": false,
          "internalType": "bool",
          "name": "approved",
          "type": "bool"
        }
      ],
      "name": "ApprovalForAll",
      "type": "event"
    },
    {
      "anonymous": false,
      "inputs": [
        {
          "indexed": true,
          "internalType": "uint256",
          "name": "tokenId",
          "type": "uint256"
        },
        {
          "indexed": false,
          "internalType": "address payable",
          "name": "owner",
          "type": "address"
        },
        {
          "indexed": false,
          "internalType": "address payable",
          "name": "seller",
          "type": "address"
        },
        {
          "indexed": false,
          "internalType": "uint256",
          "name": "price",
          "type": "uint256"
        },
        {
          "indexed": false,
          "internalType": "bool",
          "name": "sold",
          "type": "bool"
        }
      ],
      "name": "FacilityCreated",
      "type": "event"
    },
    {
      "anonymous": false,
      "inputs": [
        {
          "indexed": true,
          "internalType": "address",
          "name": "previousOwner",
          "type": "address"
        },
        {
          "indexed": true,
          "internalType": "address",
          "name": "newOwner",
          "type": "address"
        }
      ],
      "name": "OwnershipTransferred",
      "type": "event"
    },
    {
      "anonymous": false,
      "inputs": [
        {
          "indexed": true,
          "internalType": "address",
          "name": "from",
          "type": "address"
        },
        {
          "indexed": true,
          "internalType": "address",
          "name": "to",
          "type": "address"
        },
        {
          "indexed": true,
          "internalType": "uint256",
          "name": "tokenId",
          "type": "uint256"
        }
      ],
      "name": "Transfer",
      "type": "event"
    },
    {
      "inputs": [
        {
          "internalType": "address",
          "name": "to",
          "type": "address"
        },
        {
          "internalType": "uint256",
          "name": "tokenId",
          "type": "uint256"
        }
      ],
      "name": "approve",
      "outputs": [],
      "stateMutability": "nonpayable",
      "type": "function"
    },
    {
      "inputs": [
        {
          "internalType": "address",
          "name": "owner",
          "type": "address"
        }
      ],
      "name": "balanceOf",
      "outputs": [
        {
          "internalType": "uint256",
          "name": "",
          "type": "uint256"
        }
      ],
      "stateMutability": "view",
      "type": "function"
    },
    {
      "inputs": [
        {
          "internalType": "uint256",
          "name": "_tokenId",
          "type": "uint256"
        }
      ],
      "name": "buyNFT_to_fund_Edu",
      "outputs": [],
      "stateMutability": "payable",
      "type": "function"
    },
    {
      "inputs": [
        {
          "internalType": "uint256",
          "name": "_listPrice",
          "type": "uint256"
        },
        {
          "internalType": "uint256",
          "name": "_tokenId",
          "type": "uint256"
        }
      ],
      "name": "changeNFTPrice",
      "outputs": [],
      "stateMutability": "payable",
      "type": "function"
    },
    {
      "inputs": [
        {
          "internalType": "string",
          "name": "_tokenURI",
          "type": "string"
        },
        {
          "internalType": "uint256",
          "name": "price",
          "type": "uint256"
        }
      ],
      "name": "createFacility",
      "outputs": [
        {
          "internalType": "uint256",
          "name": "",
          "type": "uint256"
        }
      ],
      "stateMutability": "payable",
      "type": "function"
    },
    {
      "inputs": [
        {
          "internalType": "uint256",
          "name": "tokenId",
          "type": "uint256"
        }
      ],
      "name": "getApproved",
      "outputs": [
        {
          "internalType": "address",
          "name": "",
          "type": "address"
        }
      ],
      "stateMutability": "view",
      "type": "function"
    },
    {
      "inputs": [
        {
          "internalType": "uint256",
          "name": "_tokenId",
          "type": "uint256"
        }
      ],
      "name": "getFacility",
      "outputs": [
        {
          "components": [
            {
              "internalType": "uint256",
              "name": "tokenId",
              "type": "uint256"
            },
            {
              "internalType": "address payable",
              "name": "owner",
              "type": "address"
            },
            {
              "internalType": "uint256",
              "name": "price",
              "type": "uint256"
            },
            {
              "internalType": "bool",
              "name": "sold",
              "type": "bool"
            }
          ],
          "internalType": "struct EduFundNFT.EduFacility",
          "name": "",
          "type": "tuple"
        }
      ],
      "stateMutability": "view",
      "type": "function"
    },
    {
      "inputs": [
        {
          "internalType": "uint256",
          "name": "_tokenId",
          "type": "uint256"
        }
      ],
      "name": "getTokenPrice",
      "outputs": [
        {
          "internalType": "uint256",
          "name": "",
          "type": "uint256"
        }
      ],
      "stateMutability": "view",
      "type": "function"
    },
    {
      "inputs": [],
      "name": "getTotalFacility",
      "outputs": [
        {
          "internalType": "uint256",
          "name": "",
          "type": "uint256"
        }
      ],
      "stateMutability": "view",
      "type": "function"
    },
    {
      "inputs": [
        {
          "internalType": "address",
          "name": "owner",
          "type": "address"
        },
        {
          "internalType": "address",
          "name": "operator",
          "type": "address"
        }
      ],
      "name": "isApprovedForAll",
      "outputs": [
        {
          "internalType": "bool",
          "name": "",
          "type": "bool"
        }
      ],
      "stateMutability": "view",
      "type": "function"
    },
    {
      "inputs": [],
      "name": "name",
      "outputs": [
        {
          "internalType": "string",
          "name": "",
          "type": "string"
        }
      ],
      "stateMutability": "view",
      "type": "function"
    },
    {
      "inputs": [
        {
          "internalType": "address",
          "name": "",
          "type": "address"
        },
        {
          "internalType": "address",
          "name": "",
          "type": "address"
        },
        {
          "internalType": "uint256",
          "name": "",
          "type": "uint256"
        },
        {
          "internalType": "bytes",
          "name": "",
          "type": "bytes"
        }
      ],
      "name": "onERC721Received",
      "outputs": [
        {
          "internalType": "bytes4",
          "name": "",
          "type": "bytes4"
        }
      ],
      "stateMutability": "pure",
      "type": "function"
    },
    {
      "inputs": [],
      "name": "owner",
      "outputs": [
        {
          "internalType": "address",
          "name": "",
          "type": "address"
        }
      ],
      "stateMutability": "view",
      "type": "function"
    },
    {
      "inputs": [
        {
          "internalType": "uint256",
          "name": "tokenId",
          "type": "uint256"
        }
      ],
      "name": "ownerOf",
      "outputs": [
        {
          "internalType": "address",
          "name": "",
          "type": "address"
        }
      ],
      "stateMutability": "view",
      "type": "function"
    },
    {
      "inputs": [
        {
          "internalType": "uint256",
          "name": "_tokenId",
          "type": "uint256"
        },
        {
          "internalType": "uint256",
          "name": "newPrice",
          "type": "uint256"
        }
      ],
      "name": "re_ListNFT",
      "outputs": [],
      "stateMutability": "nonpayable",
      "type": "function"
    },
    {
      "inputs": [],
      "name": "renounceOwnership",
      "outputs": [],
      "stateMutability": "nonpayable",
      "type": "function"
    },
    {
      "inputs": [
        {
          "internalType": "address",
          "name": "to",
          "type": "address"
        },
        {
          "internalType": "string",
          "name": "uri",
          "type": "string"
        }
      ],
      "name": "safeMint",
      "outputs": [],
      "stateMutability": "nonpayable",
      "type": "function"
    },
    {
      "inputs": [
        {
          "internalType": "address",
          "name": "from",
          "type": "address"
        },
        {
          "internalType": "address",
          "name": "to",
          "type": "address"
        },
        {
          "internalType": "uint256",
          "name": "tokenId",
          "type": "uint256"
        }
      ],
      "name": "safeTransferFrom",
      "outputs": [],
      "stateMutability": "nonpayable",
      "type": "function"
    },
    {
      "inputs": [
        {
          "internalType": "address",
          "name": "from",
          "type": "address"
        },
        {
          "internalType": "address",
          "name": "to",
          "type": "address"
        },
        {
          "internalType": "uint256",
          "name": "_tokenId",
          "type": "uint256"
        },
        {
          "internalType": "bytes",
          "name": "data",
          "type": "bytes"
        }
      ],
      "name": "safeTransferFrom",
      "outputs": [],
      "stateMutability": "nonpayable",
      "type": "function"
    },
    {
      "inputs": [
        {
          "internalType": "address",
          "name": "operator",
          "type": "address"
        },
        {
          "internalType": "bool",
          "name": "approved",
          "type": "bool"
        }
      ],
      "name": "setApprovalForAll",
      "outputs": [],
      "stateMutability": "nonpayable",
      "type": "function"
    },
    {
      "inputs": [
        {
          "internalType": "bytes4",
          "name": "interfaceId",
          "type": "bytes4"
        }
      ],
      "name": "supportsInterface",
      "outputs": [
        {
          "internalType": "bool",
          "name": "",
          "type": "bool"
        }
      ],
      "stateMutability": "view",
      "type": "function"
    },
    {
      "inputs": [],
      "name": "symbol",
      "outputs": [
        {
          "internalType": "string",
          "name": "",
          "type": "string"
        }
      ],
      "stateMutability": "view",
      "type": "function"
    },
    {
      "inputs": [
        {
          "internalType": "uint256",
          "name": "index",
          "type": "uint256"
        }
      ],
      "name": "tokenByIndex",
      "outputs": [
        {
          "internalType": "uint256",
          "name": "",
          "type": "uint256"
        }
      ],
      "stateMutability": "view",
      "type": "function"
    },
    {
      "inputs": [
        {
          "internalType": "address",
          "name": "owner",
          "type": "address"
        },
        {
          "internalType": "uint256",
          "name": "index",
          "type": "uint256"
        }
      ],
      "name": "tokenOfOwnerByIndex",
      "outputs": [
        {
          "internalType": "uint256",
          "name": "",
          "type": "uint256"
        }
      ],
      "stateMutability": "view",
      "type": "function"
    },
    {
      "inputs": [
        {
          "internalType": "uint256",
          "name": "tokenId",
          "type": "uint256"
        }
      ],
      "name": "tokenURI",
      "outputs": [
        {
          "internalType": "string",
          "name": "",
          "type": "string"
        }
      ],
      "stateMutability": "view",
      "type": "function"
    },
    {
      "inputs": [],
      "name": "totalSupply",
      "outputs": [
        {
          "internalType": "uint256",
          "name": "",
          "type": "uint256"
        }
      ],
      "stateMutability": "view",
      "type": "function"
    },
    {
      "inputs": [
        {
          "internalType": "address",
          "name": "from",
          "type": "address"
        },
        {
          "internalType": "address",
          "name": "to",
          "type": "address"
        },
        {
          "internalType": "uint256",
          "name": "tokenId",
          "type": "uint256"
        }
      ],
      "name": "transferFrom",
      "outputs": [],
      "stateMutability": "nonpayable",
      "type": "function"
    },
    {
      "inputs": [
        {
          "internalType": "address",
          "name": "newOwner",
          "type": "address"
        }
      ],
      "name": "transferOwnership",
      "outputs": [],
      "stateMutability": "nonpayable",
      "type": "function"
    }
  ],
  "bytecode": "0x60806040523480156200001157600080fd5b506040518060400160405280600a81526020017f45647546756e644e4654000000000000000000000000000000000000000000008152506040518060400160405280600581526020017f45464e4654000000000000000000000000000000000000000000000000000000815250816000908051906020019062000096929190620001a6565b508060019080519060200190620000af929190620001a6565b505050620000d2620000c6620000d860201b60201c565b620000e060201b60201c565b620002bb565b600033905090565b6000600b60009054906101000a900473ffffffffffffffffffffffffffffffffffffffff16905081600b60006101000a81548173ffffffffffffffffffffffffffffffffffffffff021916908373ffffffffffffffffffffffffffffffffffffffff1602179055508173ffffffffffffffffffffffffffffffffffffffff168173ffffffffffffffffffffffffffffffffffffffff167f8be0079c531659141344cd1fd0a4f28419497f9722a3daafe3b4186f6b6457e060405160405180910390a35050565b828054620001b49062000256565b90600052602060002090601f016020900481019282620001d8576000855562000224565b82601f10620001f357805160ff191683800117855562000224565b8280016001018555821562000224579182015b828111156200022357825182559160200191906001019062000206565b5b50905062000233919062000237565b5090565b5b808211156200025257600081600090555060010162000238565b5090565b600060028204905060018216806200026f57607f821691505b602082108114156200028657620002856200028c565b5b50919050565b7f4e487b7100000000000000000000000000000000000000000000000000000000600052602260045260246000fd5b61469e80620002cb6000396000f3fe6080604052600436106101b75760003560e01c806370a08231116100ec578063b88d4fde1161008a578063c87b56dd11610064578063c87b56dd1461062d578063d204c45e1461066a578063e985e9c514610693578063f2fde38b146106d0576101b7565b8063b88d4fde1461059c578063c457fb37146105c5578063c4bfbd9014610602576101b7565b80638da5cb5b116100c65780638da5cb5b146104ed57806395d89b411461051857806399dad95414610543578063a22cb46514610573576101b7565b806370a082311461045c578063715018a6146104995780638698fb32146104b0576101b7565b806323b872dd1161015957806342c691e91161013357806342c691e91461039d5780634f6ccce7146103b95780634f8e05a6146103f65780636352211e1461041f576101b7565b806323b872dd1461030e5780632f745c591461033757806342842e0e14610374576101b7565b8063095ea7b311610195578063095ea7b3146102615780630fd76c7c1461028a578063150b7a02146102a657806318160ddd146102e3576101b7565b806301ffc9a7146101bc57806306fdde03146101f9578063081812fc14610224575b600080fd5b3480156101c857600080fd5b506101e360048036038101906101de9190613182565b6106f9565b6040516101f09190613823565b60405180910390f35b34801561020557600080fd5b5061020e61070b565b60405161021b9190613859565b60405180910390f35b34801561023057600080fd5b5061024b6004803603810190610246919061323c565b61079d565b6040516102589190613777565b60405180910390f35b34801561026d57600080fd5b5061028860048036038101906102839190613142565b6107e3565b005b6102a4600480360381019061029f9190613269565b6108fb565b005b3480156102b257600080fd5b506102cd60048036038101906102c89190612f9b565b610928565b6040516102da919061383e565b60405180910390f35b3480156102ef57600080fd5b506102f861093d565b6040516103059190613b56565b60405180910390f35b34801561031a57600080fd5b5061033560048036038101906103309190612f48565b61094a565b005b34801561034357600080fd5b5061035e60048036038101906103599190613142565b6109aa565b60405161036b9190613b56565b60405180910390f35b34801561038057600080fd5b5061039b60048036038101906103969190612f48565b610a4f565b005b6103b760048036038101906103b2919061323c565b610a6f565b005b3480156103c557600080fd5b506103e060048036038101906103db919061323c565b610de0565b6040516103ed9190613b56565b60405180910390f35b34801561040257600080fd5b5061041d60048036038101906104189190613269565b610e51565b005b34801561042b57600080fd5b506104466004803603810190610441919061323c565b610fdb565b6040516104539190613777565b60405180910390f35b34801561046857600080fd5b50610483600480360381019061047e9190612edb565b61108d565b6040516104909190613b56565b60405180910390f35b3480156104a557600080fd5b506104ae611145565b005b3480156104bc57600080fd5b506104d760048036038101906104d2919061323c565b611159565b6040516104e49190613b3b565b60405180910390f35b3480156104f957600080fd5b5061050261120b565b60405161050f9190613777565b60405180910390f35b34801561052457600080fd5b5061052d611235565b60405161053a9190613859565b60405180910390f35b61055d600480360381019061055891906131dc565b6112c7565b60405161056a9190613b56565b60405180910390f35b34801561057f57600080fd5b5061059a600480360381019061059591906130a6565b6114da565b005b3480156105a857600080fd5b506105c360048036038101906105be9190613023565b6114f0565b005b3480156105d157600080fd5b506105ec60048036038101906105e7919061323c565b611557565b6040516105f99190613b56565b60405180910390f35b34801561060e57600080fd5b5061061761157c565b6040516106249190613b56565b60405180910390f35b34801561063957600080fd5b50610654600480360381019061064f919061323c565b61158d565b6040516106619190613859565b60405180910390f35b34801561067657600080fd5b50610691600480360381019061068c91906130e6565b61159f565b005b34801561069f57600080fd5b506106ba60048036038101906106b59190612f08565b6115d8565b6040516106c79190613823565b60405180910390f35b3480156106dc57600080fd5b506106f760048036038101906106f29190612edb565b61166c565b005b6000610704826116f0565b9050919050565b60606000805461071a90613e23565b80601f016020809104026020016040519081016040528092919081815260200182805461074690613e23565b80156107935780601f1061076857610100808354040283529160200191610793565b820191906000526020600020905b81548152906001019060200180831161077657829003601f168201915b5050505050905090565b60006107a88261176a565b6004600083815260200190815260200160002060009054906101000a900473ffffffffffffffffffffffffffffffffffffffff169050919050565b60006107ee82610fdb565b90508073ffffffffffffffffffffffffffffffffffffffff168373ffffffffffffffffffffffffffffffffffffffff16141561085f576040517f08c379a000000000000000000000000000000000000000000000000000000000815260040161085690613a9b565b60405180910390fd5b8073ffffffffffffffffffffffffffffffffffffffff1661087e6117b5565b73ffffffffffffffffffffffffffffffffffffffff1614806108ad57506108ac816108a76117b5565b6115d8565b5b6108ec576040517f08c379a00000000000000000000000000000000000000000000000000000000081526004016108e3906139fb565b60405180910390fd5b6108f683836117bd565b505050565b610903611876565b6000600d60008381526020019081526020016000209050828160020181905550505050565b600063150b7a0260e01b905095945050505050565b6000600980549050905090565b61095b6109556117b5565b826118f4565b61099a576040517f08c379a000000000000000000000000000000000000000000000000000000000815260040161099190613b1b565b60405180910390fd5b6109a5838383611989565b505050565b60006109b58361108d565b82106109f6576040517f08c379a00000000000000000000000000000000000000000000000000000000081526004016109ed9061387b565b60405180910390fd5b600760008473ffffffffffffffffffffffffffffffffffffffff1673ffffffffffffffffffffffffffffffffffffffff168152602001908152602001600020600083815260200190815260200160002054905092915050565b610a6a838383604051806020016040528060008152506114f0565b505050565b6000600d6000838152602001908152602001600020905060008160020154905060008260010160009054906101000a900473ffffffffffffffffffffffffffffffffffffffff16905081341015610afb576040517f08c379a0000000000000000000000000000000000000000000000000000000008152600401610af290613adb565b60405180910390fd5b600015158360030160009054906101000a900460ff1615151415610bdd57610b24303386610a4f565b6000610b2e61120b565b73ffffffffffffffffffffffffffffffffffffffff1634604051610b5190613762565b60006040518083038185875af1925050503d8060008114610b8e576040519150601f19603f3d011682016040523d82523d6000602084013e610b93565b606091505b5050905080610bd7576040517f08c379a0000000000000000000000000000000000000000000000000000000008152600401610bce90613afb565b60405180910390fd5b50610d7a565b610be8303386610a4f565b60008173ffffffffffffffffffffffffffffffffffffffff166064601e34610c109190613ccd565b610c1a9190613c9c565b604051610c2690613762565b60006040518083038185875af1925050503d8060008114610c63576040519150601f19603f3d011682016040523d82523d6000602084013e610c68565b606091505b5050905080610cac576040517f08c379a0000000000000000000000000000000000000000000000000000000008152600401610ca39061395b565b60405180910390fd5b6000610cb661120b565b73ffffffffffffffffffffffffffffffffffffffff166064604634610cdb9190613ccd565b610ce59190613c9c565b604051610cf190613762565b60006040518083038185875af1925050503d8060008114610d2e576040519150601f19603f3d011682016040523d82523d6000602084013e610d33565b606091505b5050905080610d77576040517f08c379a0000000000000000000000000000000000000000000000000000000008152600401610d6e9061393b565b60405180910390fd5b50505b60018360030160006101000a81548160ff021916908315150217905550338360010160006101000a81548173ffffffffffffffffffffffffffffffffffffffff021916908373ffffffffffffffffffffffffffffffffffffffff16021790555050505050565b6000610dea61093d565b8210610e2b576040517f08c379a0000000000000000000000000000000000000000000000000000000008152600401610e2290613abb565b60405180910390fd5b60098281548110610e3f57610e3e613fbc565b5b90600052602060002001549050919050565b816000600d600083815260200190815260200160002090503373ffffffffffffffffffffffffffffffffffffffff16600d600084815260200190815260200160002060010160009054906101000a900473ffffffffffffffffffffffffffffffffffffffff1673ffffffffffffffffffffffffffffffffffffffff16148015610f01575060011515600d600084815260200190815260200160002060030160009054906101000a900460ff161515145b610f40576040517f08c379a0000000000000000000000000000000000000000000000000000000008152600401610f3790613a5b565b60405180910390fd5b6000600d60008681526020019081526020016000209050838160020181905550610f6b333087610a4f565b60018160030160006101000a81548160ff021916908315150217905550338160010160006101000a81548173ffffffffffffffffffffffffffffffffffffffff021916908373ffffffffffffffffffffffffffffffffffffffff1602179055508381600201819055505050505050565b6000806002600084815260200190815260200160002060009054906101000a900473ffffffffffffffffffffffffffffffffffffffff169050600073ffffffffffffffffffffffffffffffffffffffff168173ffffffffffffffffffffffffffffffffffffffff161415611084576040517f08c379a000000000000000000000000000000000000000000000000000000000815260040161107b90613a7b565b60405180910390fd5b80915050919050565b60008073ffffffffffffffffffffffffffffffffffffffff168273ffffffffffffffffffffffffffffffffffffffff1614156110fe576040517f08c379a00000000000000000000000000000000000000000000000000000000081526004016110f5906139bb565b60405180910390fd5b600360008373ffffffffffffffffffffffffffffffffffffffff1673ffffffffffffffffffffffffffffffffffffffff168152602001908152602001600020549050919050565b61114d611876565b6111576000611bf0565b565b611161612c03565b600d6000838152602001908152602001600020604051806080016040529081600082015481526020016001820160009054906101000a900473ffffffffffffffffffffffffffffffffffffffff1673ffffffffffffffffffffffffffffffffffffffff1673ffffffffffffffffffffffffffffffffffffffff168152602001600282015481526020016003820160009054906101000a900460ff1615151515815250509050919050565b6000600b60009054906101000a900473ffffffffffffffffffffffffffffffffffffffff16905090565b60606001805461124490613e23565b80601f016020809104026020016040519081016040528092919081815260200182805461127090613e23565b80156112bd5780601f10611292576101008083540402835291602001916112bd565b820191906000526020600020905b8154815290600101906020018083116112a057829003601f168201915b5050505050905090565b60006112d1611876565b60008211611314576040517f08c379a000000000000000000000000000000000000000000000000000000000815260040161130b9061389b565b60405180910390fd5b61131e600c611cb6565b600061132a600c611ccc565b90506113363382611cda565b6113848186868080601f016020809104026020016040519081016040528093929190818152602001838380828437600081840152601f19601f82011690508083019250505050505050611cf8565b60405180608001604052808281526020013373ffffffffffffffffffffffffffffffffffffffff16815260200184815260200160001515815250600d60008381526020019081526020016000206000820151816000015560208201518160010160006101000a81548173ffffffffffffffffffffffffffffffffffffffff021916908373ffffffffffffffffffffffffffffffffffffffff1602179055506040820151816002015560608201518160030160006101000a81548160ff021916908315150217905550905050611490600d600083815260200190815260200160002060010160009054906101000a900473ffffffffffffffffffffffffffffffffffffffff163083610a4f565b807f0bf718aa63f641b3cd55a8b6dc138207634e87116e1422763a5715d89a8a97cd33338660006040516114c79493929190613792565b60405180910390a2809150509392505050565b6114ec6114e56117b5565b8383611d6c565b5050565b82600d600084815260200190815260200160002060010160006101000a81548173ffffffffffffffffffffffffffffffffffffffff021916908373ffffffffffffffffffffffffffffffffffffffff16021790555061155184848484611ed9565b50505050565b600080600d600084815260200190815260200160002090508060020154915050919050565b6000611588600c611ccc565b905090565b606061159882611f35565b9050919050565b6115a7611876565b60006115b3600c611ccc565b90506115bf600c611cb6565b6115c98382611cda565b6115d38183611cf8565b505050565b6000600560008473ffffffffffffffffffffffffffffffffffffffff1673ffffffffffffffffffffffffffffffffffffffff16815260200190815260200160002060008373ffffffffffffffffffffffffffffffffffffffff1673ffffffffffffffffffffffffffffffffffffffff16815260200190815260200160002060009054906101000a900460ff16905092915050565b611674611876565b600073ffffffffffffffffffffffffffffffffffffffff168173ffffffffffffffffffffffffffffffffffffffff1614156116e4576040517f08c379a00000000000000000000000000000000000000000000000000000000081526004016116db906138db565b60405180910390fd5b6116ed81611bf0565b50565b60007f780e9d63000000000000000000000000000000000000000000000000000000007bffffffffffffffffffffffffffffffffffffffffffffffffffffffff1916827bffffffffffffffffffffffffffffffffffffffffffffffffffffffff19161480611763575061176282612048565b5b9050919050565b6117738161212a565b6117b2576040517f08c379a00000000000000000000000000000000000000000000000000000000081526004016117a990613a7b565b60405180910390fd5b50565b600033905090565b816004600083815260200190815260200160002060006101000a81548173ffffffffffffffffffffffffffffffffffffffff021916908373ffffffffffffffffffffffffffffffffffffffff160217905550808273ffffffffffffffffffffffffffffffffffffffff1661183083610fdb565b73ffffffffffffffffffffffffffffffffffffffff167f8c5be1e5ebec7d5bd14f71427d1e84f3dd0314c0f7b2291e5b200ac8c7c3b92560405160405180910390a45050565b61187e6117b5565b73ffffffffffffffffffffffffffffffffffffffff1661189c61120b565b73ffffffffffffffffffffffffffffffffffffffff16146118f2576040517f08c379a00000000000000000000000000000000000000000000000000000000081526004016118e990613a3b565b60405180910390fd5b565b60008061190083610fdb565b90508073ffffffffffffffffffffffffffffffffffffffff168473ffffffffffffffffffffffffffffffffffffffff161480611942575061194181856115d8565b5b8061198057508373ffffffffffffffffffffffffffffffffffffffff166119688461079d565b73ffffffffffffffffffffffffffffffffffffffff16145b91505092915050565b8273ffffffffffffffffffffffffffffffffffffffff166119a982610fdb565b73ffffffffffffffffffffffffffffffffffffffff16146119ff576040517f08c379a00000000000000000000000000000000000000000000000000000000081526004016119f6906138fb565b60405180910390fd5b600073ffffffffffffffffffffffffffffffffffffffff168273ffffffffffffffffffffffffffffffffffffffff161415611a6f576040517f08c379a0000000000000000000000000000000000000000000000000000000008152600401611a669061397b565b60405180910390fd5b611a7a838383612196565b611a856000826117bd565b6001600360008573ffffffffffffffffffffffffffffffffffffffff1673ffffffffffffffffffffffffffffffffffffffff1681526020019081526020016000206000828254611ad59190613d27565b925050819055506001600360008473ffffffffffffffffffffffffffffffffffffffff1673ffffffffffffffffffffffffffffffffffffffff1681526020019081526020016000206000828254611b2c9190613c46565b92505081905550816002600083815260200190815260200160002060006101000a81548173ffffffffffffffffffffffffffffffffffffffff021916908373ffffffffffffffffffffffffffffffffffffffff160217905550808273ffffffffffffffffffffffffffffffffffffffff168473ffffffffffffffffffffffffffffffffffffffff167fddf252ad1be2c89b69c2b068fc378daa952ba7f163c4a11628f55a4df523b3ef60405160405180910390a4611beb8383836121a6565b505050565b6000600b60009054906101000a900473ffffffffffffffffffffffffffffffffffffffff16905081600b60006101000a81548173ffffffffffffffffffffffffffffffffffffffff021916908373ffffffffffffffffffffffffffffffffffffffff1602179055508173ffffffffffffffffffffffffffffffffffffffff168173ffffffffffffffffffffffffffffffffffffffff167f8be0079c531659141344cd1fd0a4f28419497f9722a3daafe3b4186f6b6457e060405160405180910390a35050565b6001816000016000828254019250508190555050565b600081600001549050919050565b611cf48282604051806020016040528060008152506121ab565b5050565b611d018261212a565b611d40576040517f08c379a0000000000000000000000000000000000000000000000000000000008152600401611d37906139db565b60405180910390fd5b80600660008481526020019081526020016000209080519060200190611d67929190612c43565b505050565b8173ffffffffffffffffffffffffffffffffffffffff168373ffffffffffffffffffffffffffffffffffffffff161415611ddb576040517f08c379a0000000000000000000000000000000000000000000000000000000008152600401611dd29061399b565b60405180910390fd5b80600560008573ffffffffffffffffffffffffffffffffffffffff1673ffffffffffffffffffffffffffffffffffffffff16815260200190815260200160002060008473ffffffffffffffffffffffffffffffffffffffff1673ffffffffffffffffffffffffffffffffffffffff16815260200190815260200160002060006101000a81548160ff0219169083151502179055508173ffffffffffffffffffffffffffffffffffffffff168373ffffffffffffffffffffffffffffffffffffffff167f17307eab39ab6107e8899845ad3d59bd9653f200f220920489ca2b5937696c3183604051611ecc9190613823565b60405180910390a3505050565b611ee4848484611989565b611ef084848484612206565b611f2f576040517f08c379a0000000000000000000000000000000000000000000000000000000008152600401611f26906138bb565b60405180910390fd5b50505050565b6060611f408261176a565b6000600660008481526020019081526020016000208054611f6090613e23565b80601f0160208091040260200160405190810160405280929190818152602001828054611f8c90613e23565b8015611fd95780601f10611fae57610100808354040283529160200191611fd9565b820191906000526020600020905b815481529060010190602001808311611fbc57829003601f168201915b505050505090506000611fea61239d565b9050600081511415612000578192505050612043565b60008251111561203557808260405160200161201d92919061373e565b60405160208183030381529060405292505050612043565b61203e846123b4565b925050505b919050565b60007f80ac58cd000000000000000000000000000000000000000000000000000000007bffffffffffffffffffffffffffffffffffffffffffffffffffffffff1916827bffffffffffffffffffffffffffffffffffffffffffffffffffffffff1916148061211357507f5b5e139f000000000000000000000000000000000000000000000000000000007bffffffffffffffffffffffffffffffffffffffffffffffffffffffff1916827bffffffffffffffffffffffffffffffffffffffffffffffffffffffff1916145b8061212357506121228261241c565b5b9050919050565b60008073ffffffffffffffffffffffffffffffffffffffff166002600084815260200190815260200160002060009054906101000a900473ffffffffffffffffffffffffffffffffffffffff1673ffffffffffffffffffffffffffffffffffffffff1614159050919050565b6121a1838383612486565b505050565b505050565b6121b5838361259a565b6121c26000848484612206565b612201576040517f08c379a00000000000000000000000000000000000000000000000000000000081526004016121f8906138bb565b60405180910390fd5b505050565b60006122278473ffffffffffffffffffffffffffffffffffffffff16612774565b15612390578373ffffffffffffffffffffffffffffffffffffffff1663150b7a026122506117b5565b8786866040518563ffffffff1660e01b815260040161227294939291906137d7565b602060405180830381600087803b15801561228c57600080fd5b505af19250505080156122bd57506040513d601f19601f820116820180604052508101906122ba91906131af565b60015b612340573d80600081146122ed576040519150601f19603f3d011682016040523d82523d6000602084013e6122f2565b606091505b50600081511415612338576040517f08c379a000000000000000000000000000000000000000000000000000000000815260040161232f906138bb565b60405180910390fd5b805181602001fd5b63150b7a0260e01b7bffffffffffffffffffffffffffffffffffffffffffffffffffffffff1916817bffffffffffffffffffffffffffffffffffffffffffffffffffffffff191614915050612395565b600190505b949350505050565b606060405180602001604052806000815250905090565b60606123bf8261176a565b60006123c961239d565b905060008151116123e95760405180602001604052806000815250612414565b806123f384612797565b60405160200161240492919061373e565b6040516020818303038152906040525b915050919050565b60007f01ffc9a7000000000000000000000000000000000000000000000000000000007bffffffffffffffffffffffffffffffffffffffffffffffffffffffff1916827bffffffffffffffffffffffffffffffffffffffffffffffffffffffff1916149050919050565b6124918383836128f8565b600073ffffffffffffffffffffffffffffffffffffffff168373ffffffffffffffffffffffffffffffffffffffff1614156124d4576124cf816128fd565b612513565b8173ffffffffffffffffffffffffffffffffffffffff168373ffffffffffffffffffffffffffffffffffffffff1614612512576125118382612946565b5b5b600073ffffffffffffffffffffffffffffffffffffffff168273ffffffffffffffffffffffffffffffffffffffff1614156125565761255181612ab3565b612595565b8273ffffffffffffffffffffffffffffffffffffffff168273ffffffffffffffffffffffffffffffffffffffff1614612594576125938282612b84565b5b5b505050565b600073ffffffffffffffffffffffffffffffffffffffff168273ffffffffffffffffffffffffffffffffffffffff16141561260a576040517f08c379a000000000000000000000000000000000000000000000000000000000815260040161260190613a1b565b60405180910390fd5b6126138161212a565b15612653576040517f08c379a000000000000000000000000000000000000000000000000000000000815260040161264a9061391b565b60405180910390fd5b61265f60008383612196565b6001600360008473ffffffffffffffffffffffffffffffffffffffff1673ffffffffffffffffffffffffffffffffffffffff16815260200190815260200160002060008282546126af9190613c46565b92505081905550816002600083815260200190815260200160002060006101000a81548173ffffffffffffffffffffffffffffffffffffffff021916908373ffffffffffffffffffffffffffffffffffffffff160217905550808273ffffffffffffffffffffffffffffffffffffffff16600073ffffffffffffffffffffffffffffffffffffffff167fddf252ad1be2c89b69c2b068fc378daa952ba7f163c4a11628f55a4df523b3ef60405160405180910390a4612770600083836121a6565b5050565b6000808273ffffffffffffffffffffffffffffffffffffffff163b119050919050565b606060008214156127df576040518060400160405280600181526020017f300000000000000000000000000000000000000000000000000000000000000081525090506128f3565b600082905060005b600082146128115780806127fa90613e86565b915050600a8261280a9190613c9c565b91506127e7565b60008167ffffffffffffffff81111561282d5761282c613feb565b5b6040519080825280601f01601f19166020018201604052801561285f5781602001600182028036833780820191505090505b5090505b600085146128ec576001826128789190613d27565b9150600a856128879190613ecf565b60306128939190613c46565b60f81b8183815181106128a9576128a8613fbc565b5b60200101907effffffffffffffffffffffffffffffffffffffffffffffffffffffffffffff1916908160001a905350600a856128e59190613c9c565b9450612863565b8093505050505b919050565b505050565b600980549050600a600083815260200190815260200160002081905550600981908060018154018082558091505060019003906000526020600020016000909190919091505550565b600060016129538461108d565b61295d9190613d27565b9050600060086000848152602001908152602001600020549050818114612a42576000600760008673ffffffffffffffffffffffffffffffffffffffff1673ffffffffffffffffffffffffffffffffffffffff168152602001908152602001600020600084815260200190815260200160002054905080600760008773ffffffffffffffffffffffffffffffffffffffff1673ffffffffffffffffffffffffffffffffffffffff168152602001908152602001600020600084815260200190815260200160002081905550816008600083815260200190815260200160002081905550505b6008600084815260200190815260200160002060009055600760008573ffffffffffffffffffffffffffffffffffffffff1673ffffffffffffffffffffffffffffffffffffffff16815260200190815260200160002060008381526020019081526020016000206000905550505050565b60006001600980549050612ac79190613d27565b90506000600a6000848152602001908152602001600020549050600060098381548110612af757612af6613fbc565b5b906000526020600020015490508060098381548110612b1957612b18613fbc565b5b906000526020600020018190555081600a600083815260200190815260200160002081905550600a6000858152602001908152602001600020600090556009805480612b6857612b67613f8d565b5b6001900381819060005260206000200160009055905550505050565b6000612b8f8361108d565b905081600760008573ffffffffffffffffffffffffffffffffffffffff1673ffffffffffffffffffffffffffffffffffffffff168152602001908152602001600020600083815260200190815260200160002081905550806008600084815260200190815260200160002081905550505050565b604051806080016040528060008152602001600073ffffffffffffffffffffffffffffffffffffffff168152602001600081526020016000151581525090565b828054612c4f90613e23565b90600052602060002090601f016020900481019282612c715760008555612cb8565b82601f10612c8a57805160ff1916838001178555612cb8565b82800160010185558215612cb8579182015b82811115612cb7578251825591602001919060010190612c9c565b5b509050612cc59190612cc9565b5090565b5b80821115612ce2576000816000905550600101612cca565b5090565b6000612cf9612cf484613b96565b613b71565b905082815260208101848484011115612d1557612d14614029565b5b612d20848285613de1565b509392505050565b6000612d3b612d3684613bc7565b613b71565b905082815260208101848484011115612d5757612d56614029565b5b612d62848285613de1565b509392505050565b600081359050612d798161460c565b92915050565b600081359050612d8e81614623565b92915050565b600081359050612da38161463a565b92915050565b600081519050612db88161463a565b92915050565b60008083601f840112612dd457612dd361401f565b5b8235905067ffffffffffffffff811115612df157612df061401a565b5b602083019150836001820283011115612e0d57612e0c614024565b5b9250929050565b600082601f830112612e2957612e2861401f565b5b8135612e39848260208601612ce6565b91505092915050565b60008083601f840112612e5857612e5761401f565b5b8235905067ffffffffffffffff811115612e7557612e7461401a565b5b602083019150836001820283011115612e9157612e90614024565b5b9250929050565b600082601f830112612ead57612eac61401f565b5b8135612ebd848260208601612d28565b91505092915050565b600081359050612ed581614651565b92915050565b600060208284031215612ef157612ef0614033565b5b6000612eff84828501612d6a565b91505092915050565b60008060408385031215612f1f57612f1e614033565b5b6000612f2d85828601612d6a565b9250506020612f3e85828601612d6a565b9150509250929050565b600080600060608486031215612f6157612f60614033565b5b6000612f6f86828701612d6a565b9350506020612f8086828701612d6a565b9250506040612f9186828701612ec6565b9150509250925092565b600080600080600060808688031215612fb757612fb6614033565b5b6000612fc588828901612d6a565b9550506020612fd688828901612d6a565b9450506040612fe788828901612ec6565b935050606086013567ffffffffffffffff8111156130085761300761402e565b5b61301488828901612dbe565b92509250509295509295909350565b6000806000806080858703121561303d5761303c614033565b5b600061304b87828801612d6a565b945050602061305c87828801612d6a565b935050604061306d87828801612ec6565b925050606085013567ffffffffffffffff81111561308e5761308d61402e565b5b61309a87828801612e14565b91505092959194509250565b600080604083850312156130bd576130bc614033565b5b60006130cb85828601612d6a565b92505060206130dc85828601612d7f565b9150509250929050565b600080604083850312156130fd576130fc614033565b5b600061310b85828601612d6a565b925050602083013567ffffffffffffffff81111561312c5761312b61402e565b5b61313885828601612e98565b9150509250929050565b6000806040838503121561315957613158614033565b5b600061316785828601612d6a565b925050602061317885828601612ec6565b9150509250929050565b60006020828403121561319857613197614033565b5b60006131a684828501612d94565b91505092915050565b6000602082840312156131c5576131c4614033565b5b60006131d384828501612da9565b91505092915050565b6000806000604084860312156131f5576131f4614033565b5b600084013567ffffffffffffffff8111156132135761321261402e565b5b61321f86828701612e42565b9350935050602061323286828701612ec6565b9150509250925092565b60006020828403121561325257613251614033565b5b600061326084828501612ec6565b91505092915050565b600080604083850312156132805761327f614033565b5b600061328e85828601612ec6565b925050602061329f85828601612ec6565b9150509250929050565b6132b281613d6d565b82525050565b6132c181613d6d565b82525050565b6132d081613d5b565b82525050565b6132df81613d7f565b82525050565b6132ee81613d7f565b82525050565b6132fd81613d8b565b82525050565b600061330e82613bf8565b6133188185613c0e565b9350613328818560208601613df0565b61333181614038565b840191505092915050565b600061334782613c03565b6133518185613c2a565b9350613361818560208601613df0565b61336a81614038565b840191505092915050565b600061338082613c03565b61338a8185613c3b565b935061339a818560208601613df0565b80840191505092915050565b60006133b3602b83613c2a565b91506133be82614049565b604082019050919050565b60006133d6601f83613c2a565b91506133e182614098565b602082019050919050565b60006133f9603283613c2a565b9150613404826140c1565b604082019050919050565b600061341c602683613c2a565b915061342782614110565b604082019050919050565b600061343f602583613c2a565b915061344a8261415f565b604082019050919050565b6000613462601c83613c2a565b915061346d826141ae565b602082019050919050565b6000613485602683613c2a565b9150613490826141d7565b604082019050919050565b60006134a8602683613c2a565b91506134b382614226565b604082019050919050565b60006134cb602483613c2a565b91506134d682614275565b604082019050919050565b60006134ee601983613c2a565b91506134f9826142c4565b602082019050919050565b6000613511602983613c2a565b915061351c826142ed565b604082019050919050565b6000613534602e83613c2a565b915061353f8261433c565b604082019050919050565b6000613557603e83613c2a565b91506135628261438b565b604082019050919050565b600061357a602083613c2a565b9150613585826143da565b602082019050919050565b600061359d602083613c2a565b91506135a882614403565b602082019050919050565b60006135c0601d83613c2a565b91506135cb8261442c565b602082019050919050565b60006135e3601883613c2a565b91506135ee82614455565b602082019050919050565b6000613606602183613c2a565b91506136118261447e565b604082019050919050565b6000613629600083613c1f565b9150613634826144cd565b600082019050919050565b600061364c602c83613c2a565b9150613657826144d0565b604082019050919050565b600061366f603083613c2a565b915061367a8261451f565b604082019050919050565b6000613692602283613c2a565b915061369d8261456e565b604082019050919050565b60006136b5602e83613c2a565b91506136c0826145bd565b604082019050919050565b6080820160008201516136e16000850182613720565b5060208201516136f460208501826132a9565b5060408201516137076040850182613720565b50606082015161371a60608501826132d6565b50505050565b61372981613dd7565b82525050565b61373881613dd7565b82525050565b600061374a8285613375565b91506137568284613375565b91508190509392505050565b600061376d8261361c565b9150819050919050565b600060208201905061378c60008301846132c7565b92915050565b60006080820190506137a760008301876132b8565b6137b460208301866132b8565b6137c1604083018561372f565b6137ce60608301846132e5565b95945050505050565b60006080820190506137ec60008301876132c7565b6137f960208301866132c7565b613806604083018561372f565b81810360608301526138188184613303565b905095945050505050565b600060208201905061383860008301846132e5565b92915050565b600060208201905061385360008301846132f4565b92915050565b60006020820190508181036000830152613873818461333c565b905092915050565b60006020820190508181036000830152613894816133a6565b9050919050565b600060208201905081810360008301526138b4816133c9565b9050919050565b600060208201905081810360008301526138d4816133ec565b9050919050565b600060208201905081810360008301526138f48161340f565b9050919050565b6000602082019050818103600083015261391481613432565b9050919050565b6000602082019050818103600083015261393481613455565b9050919050565b6000602082019050818103600083015261395481613478565b9050919050565b600060208201905081810360008301526139748161349b565b9050919050565b60006020820190508181036000830152613994816134be565b9050919050565b600060208201905081810360008301526139b4816134e1565b9050919050565b600060208201905081810360008301526139d481613504565b9050919050565b600060208201905081810360008301526139f481613527565b9050919050565b60006020820190508181036000830152613a148161354a565b9050919050565b60006020820190508181036000830152613a348161356d565b9050919050565b60006020820190508181036000830152613a5481613590565b9050919050565b60006020820190508181036000830152613a74816135b3565b9050919050565b60006020820190508181036000830152613a94816135d6565b9050919050565b60006020820190508181036000830152613ab4816135f9565b9050919050565b60006020820190508181036000830152613ad48161363f565b9050919050565b60006020820190508181036000830152613af481613662565b9050919050565b60006020820190508181036000830152613b1481613685565b9050919050565b60006020820190508181036000830152613b34816136a8565b9050919050565b6000608082019050613b5060008301846136cb565b92915050565b6000602082019050613b6b600083018461372f565b92915050565b6000613b7b613b8c565b9050613b878282613e55565b919050565b6000604051905090565b600067ffffffffffffffff821115613bb157613bb0613feb565b5b613bba82614038565b9050602081019050919050565b600067ffffffffffffffff821115613be257613be1613feb565b5b613beb82614038565b9050602081019050919050565b600081519050919050565b600081519050919050565b600082825260208201905092915050565b600081905092915050565b600082825260208201905092915050565b600081905092915050565b6000613c5182613dd7565b9150613c5c83613dd7565b9250827fffffffffffffffffffffffffffffffffffffffffffffffffffffffffffffffff03821115613c9157613c90613f00565b5b828201905092915050565b6000613ca782613dd7565b9150613cb283613dd7565b925082613cc257613cc1613f2f565b5b828204905092915050565b6000613cd882613dd7565b9150613ce383613dd7565b9250817fffffffffffffffffffffffffffffffffffffffffffffffffffffffffffffffff0483118215151615613d1c57613d1b613f00565b5b828202905092915050565b6000613d3282613dd7565b9150613d3d83613dd7565b925082821015613d5057613d4f613f00565b5b828203905092915050565b6000613d6682613db7565b9050919050565b6000613d7882613db7565b9050919050565b60008115159050919050565b60007fffffffff0000000000000000000000000000000000000000000000000000000082169050919050565b600073ffffffffffffffffffffffffffffffffffffffff82169050919050565b6000819050919050565b82818337600083830152505050565b60005b83811015613e0e578082015181840152602081019050613df3565b83811115613e1d576000848401525b50505050565b60006002820490506001821680613e3b57607f821691505b60208210811415613e4f57613e4e613f5e565b5b50919050565b613e5e82614038565b810181811067ffffffffffffffff82111715613e7d57613e7c613feb565b5b80604052505050565b6000613e9182613dd7565b91507fffffffffffffffffffffffffffffffffffffffffffffffffffffffffffffffff821415613ec457613ec3613f00565b5b600182019050919050565b6000613eda82613dd7565b9150613ee583613dd7565b925082613ef557613ef4613f2f565b5b828206905092915050565b7f4e487b7100000000000000000000000000000000000000000000000000000000600052601160045260246000fd5b7f4e487b7100000000000000000000000000000000000000000000000000000000600052601260045260246000fd5b7f4e487b7100000000000000000000000000000000000000000000000000000000600052602260045260246000fd5b7f4e487b7100000000000000000000000000000000000000000000000000000000600052603160045260246000fd5b7f4e487b7100000000000000000000000000000000000000000000000000000000600052603260045260246000fd5b7f4e487b7100000000000000000000000000000000000000000000000000000000600052604160045260246000fd5b600080fd5b600080fd5b600080fd5b600080fd5b600080fd5b600080fd5b6000601f19601f8301169050919050565b7f455243373231456e756d657261626c653a206f776e657220696e646578206f7560008201527f74206f6620626f756e6473000000000000000000000000000000000000000000602082015250565b7f5072696365206d7573742062652067726561746572207468616e207a65726f00600082015250565b7f4552433732313a207472616e7366657220746f206e6f6e20455243373231526560008201527f63656976657220696d706c656d656e7465720000000000000000000000000000602082015250565b7f4f776e61626c653a206e6577206f776e657220697320746865207a65726f206160008201527f6464726573730000000000000000000000000000000000000000000000000000602082015250565b7f4552433732313a207472616e736665722066726f6d20696e636f72726563742060008201527f6f776e6572000000000000000000000000000000000000000000000000000000602082015250565b7f4552433732313a20746f6b656e20616c7265616479206d696e74656400000000600082015250565b7f70617274207472616e7366657220746f20636f6e7472616374206f776e65722060008201527f6661696c65640000000000000000000000000000000000000000000000000000602082015250565b7f70617274207472616e7366657220746f2063757272656e74204f776e6572206660008201527f61696c6564200000000000000000000000000000000000000000000000000000602082015250565b7f4552433732313a207472616e7366657220746f20746865207a65726f2061646460008201527f7265737300000000000000000000000000000000000000000000000000000000602082015250565b7f4552433732313a20617070726f766520746f2063616c6c657200000000000000600082015250565b7f4552433732313a2061646472657373207a65726f206973206e6f74206120766160008201527f6c6964206f776e65720000000000000000000000000000000000000000000000602082015250565b7f45524337323155524953746f726167653a2055524920736574206f66206e6f6e60008201527f6578697374656e7420746f6b656e000000000000000000000000000000000000602082015250565b7f4552433732313a20617070726f76652063616c6c6572206973206e6f7420746f60008201527f6b656e206f776e6572206e6f7220617070726f76656420666f7220616c6c0000602082015250565b7f4552433732313a206d696e7420746f20746865207a65726f2061646472657373600082015250565b7f4f776e61626c653a2063616c6c6572206973206e6f7420746865206f776e6572600082015250565b7f4f6e6c79206e6577204e4654206f776e65722043616e2052656c697374000000600082015250565b7f4552433732313a20696e76616c696420746f6b656e2049440000000000000000600082015250565b7f4552433732313a20617070726f76616c20746f2063757272656e74206f776e6560008201527f7200000000000000000000000000000000000000000000000000000000000000602082015250565b50565b7f455243373231456e756d657261626c653a20676c6f62616c20696e646578206f60008201527f7574206f6620626f756e64730000000000000000000000000000000000000000602082015250565b7f56616c7565206d75737420626520657175616c20746f206f722067726561746560008201527f72207468616e204e465420707269636500000000000000000000000000000000602082015250565b7f5472616e7366657220746f20636f6e7472616374206f776e6572206661696c6560008201527f6420000000000000000000000000000000000000000000000000000000000000602082015250565b7f4552433732313a2063616c6c6572206973206e6f7420746f6b656e206f776e6560008201527f72206e6f7220617070726f766564000000000000000000000000000000000000602082015250565b61461581613d5b565b811461462057600080fd5b50565b61462c81613d7f565b811461463757600080fd5b50565b61464381613d8b565b811461464e57600080fd5b50565b61465a81613dd7565b811461466557600080fd5b5056fea2646970667358221220ae6fee78d63d1bea8abf9ea8aa0214efe8671c1fa49cb66c5099e70ed59c203f64736f6c63430008070033",
  "linkReferences": {},
  "deployedLinkReferences": {}
}